{
	"contracts/Organization.sol": {
		"Organization": {
			"abi": [
				{
					"inputs": [],
					"stateMutability": "nonpayable",
					"type": "constructor"
				},
				{
					"anonymous": false,
					"inputs": [
						{
							"indexed": true,
							"internalType": "uint256",
							"name": "organizationId",
							"type": "uint256"
						},
						{
							"indexed": true,
							"internalType": "address",
							"name": "member",
							"type": "address"
						}
					],
					"name": "MemberAdded",
					"type": "event"
				},
				{
					"anonymous": false,
					"inputs": [
						{
							"indexed": true,
							"internalType": "uint256",
							"name": "organizationId",
							"type": "uint256"
						},
						{
							"indexed": true,
							"internalType": "address",
							"name": "admin",
							"type": "address"
						},
						{
							"indexed": false,
							"internalType": "string",
							"name": "name",
							"type": "string"
						}
					],
					"name": "OrganizationCreated",
					"type": "event"
				},
				{
					"anonymous": false,
					"inputs": [
						{
							"indexed": true,
							"internalType": "uint256",
							"name": "organizationId",
							"type": "uint256"
						},
						{
							"indexed": false,
							"internalType": "string",
							"name": "reason",
							"type": "string"
						}
					],
					"name": "OrganizationDeactivated",
					"type": "event"
				},
				{
					"anonymous": false,
					"inputs": [
						{
							"indexed": true,
							"internalType": "uint256",
							"name": "organizationId",
							"type": "uint256"
						},
						{
							"indexed": false,
							"internalType": "bool",
							"name": "isActive",
							"type": "bool"
						}
					],
					"name": "OrganizationStatusChanged",
					"type": "event"
				},
				{
					"anonymous": false,
					"inputs": [
						{
							"indexed": true,
							"internalType": "uint256",
							"name": "organizationId",
							"type": "uint256"
						},
						{
							"indexed": false,
							"internalType": "string",
							"name": "name",
							"type": "string"
						},
						{
							"indexed": false,
							"internalType": "string",
							"name": "encryptedUrl",
							"type": "string"
						}
					],
					"name": "OrganizationUpdated",
					"type": "event"
				},
				{
					"inputs": [],
					"name": "activeOrganizationsCount",
					"outputs": [
						{
							"internalType": "uint256",
							"name": "",
							"type": "uint256"
						}
					],
					"stateMutability": "view",
					"type": "function"
				},
				{
					"inputs": [
						{
							"internalType": "uint256",
							"name": "_organizationId",
							"type": "uint256"
						},
						{
							"internalType": "address",
							"name": "_member",
							"type": "address"
						}
					],
					"name": "addMember",
					"outputs": [],
					"stateMutability": "nonpayable",
					"type": "function"
				},
				{
					"inputs": [
						{
							"internalType": "string",
							"name": "_name",
							"type": "string"
						},
						{
							"internalType": "address",
							"name": "_organization",
							"type": "address"
						},
						{
							"internalType": "string",
							"name": "_encryptedUrl",
							"type": "string"
						}
					],
					"name": "createOrganization",
					"outputs": [],
					"stateMutability": "nonpayable",
					"type": "function"
				},
				{
					"inputs": [
						{
							"internalType": "uint256",
							"name": "_organizationId",
							"type": "uint256"
						},
						{
							"internalType": "string",
							"name": "_reason",
							"type": "string"
						}
					],
					"name": "deactivateOrganization",
					"outputs": [],
					"stateMutability": "nonpayable",
					"type": "function"
				},
				{
					"inputs": [
						{
							"internalType": "uint256",
							"name": "_organizationId",
							"type": "uint256"
						}
					],
					"name": "getMembers",
					"outputs": [
						{
							"internalType": "address[]",
							"name": "",
							"type": "address[]"
						}
					],
					"stateMutability": "view",
					"type": "function"
				},
				{
					"inputs": [
						{
							"internalType": "uint256",
							"name": "_organizationId",
							"type": "uint256"
						}
					],
					"name": "getOrganization",
					"outputs": [
						{
							"components": [
								{
									"internalType": "string",
									"name": "name",
									"type": "string"
								},
								{
									"internalType": "address",
									"name": "organization",
									"type": "address"
								},
								{
									"internalType": "address",
									"name": "admin",
									"type": "address"
								},
								{
									"internalType": "uint256",
									"name": "createdAt",
									"type": "uint256"
								},
								{
									"internalType": "uint256",
									"name": "updatedAt",
									"type": "uint256"
								},
								{
									"internalType": "address[]",
									"name": "members",
									"type": "address[]"
								},
								{
									"internalType": "string",
									"name": "encryptedUrl",
									"type": "string"
								},
								{
									"internalType": "bool",
									"name": "isActive",
									"type": "bool"
								}
							],
							"internalType": "struct Organization.OrganizationData",
							"name": "",
							"type": "tuple"
						}
					],
					"stateMutability": "view",
					"type": "function"
				},
				{
					"inputs": [],
					"name": "getOrganizations",
					"outputs": [
						{
							"components": [
								{
									"internalType": "string",
									"name": "name",
									"type": "string"
								},
								{
									"internalType": "address",
									"name": "organization",
									"type": "address"
								},
								{
									"internalType": "address",
									"name": "admin",
									"type": "address"
								},
								{
									"internalType": "uint256",
									"name": "createdAt",
									"type": "uint256"
								},
								{
									"internalType": "uint256",
									"name": "updatedAt",
									"type": "uint256"
								},
								{
									"internalType": "address[]",
									"name": "members",
									"type": "address[]"
								},
								{
									"internalType": "string",
									"name": "encryptedUrl",
									"type": "string"
								},
								{
									"internalType": "bool",
									"name": "isActive",
									"type": "bool"
								}
							],
							"internalType": "struct Organization.OrganizationData[]",
							"name": "",
							"type": "tuple[]"
						}
					],
					"stateMutability": "view",
					"type": "function"
				},
				{
					"inputs": [
						{
							"internalType": "uint256",
							"name": "",
							"type": "uint256"
						},
						{
							"internalType": "address",
							"name": "",
							"type": "address"
						}
					],
					"name": "isMember",
					"outputs": [
						{
							"internalType": "bool",
							"name": "",
							"type": "bool"
						}
					],
					"stateMutability": "view",
					"type": "function"
				},
				{
					"inputs": [
						{
							"internalType": "uint256",
							"name": "",
							"type": "uint256"
						}
					],
					"name": "organizations",
					"outputs": [
						{
							"internalType": "string",
							"name": "name",
							"type": "string"
						},
						{
							"internalType": "address",
							"name": "organization",
							"type": "address"
						},
						{
							"internalType": "address",
							"name": "admin",
							"type": "address"
						},
						{
							"internalType": "uint256",
							"name": "createdAt",
							"type": "uint256"
						},
						{
							"internalType": "uint256",
							"name": "updatedAt",
							"type": "uint256"
						},
						{
							"internalType": "string",
							"name": "encryptedUrl",
							"type": "string"
						},
						{
							"internalType": "bool",
							"name": "isActive",
							"type": "bool"
						}
					],
					"stateMutability": "view",
					"type": "function"
				},
				{
					"inputs": [],
					"name": "owner",
					"outputs": [
						{
							"internalType": "address",
							"name": "",
							"type": "address"
						}
					],
					"stateMutability": "view",
					"type": "function"
				},
				{
					"inputs": [
						{
							"internalType": "uint256",
							"name": "_organizationId",
							"type": "uint256"
						},
						{
							"internalType": "string",
							"name": "_name",
							"type": "string"
						},
						{
							"internalType": "string",
							"name": "_encryptedUrl",
							"type": "string"
						}
					],
					"name": "updateOrganization",
					"outputs": [],
					"stateMutability": "nonpayable",
					"type": "function"
				}
			],
			"devdoc": {
				"kind": "dev",
				"methods": {},
				"version": 1
			},
			"evm": {
				"assembly": "    /* \"contracts/Organization.sol\":58:6072  contract Organization {... */\n  mstore(0x40, 0xa0)\n    /* \"contracts/Organization.sol\":568:617  constructor() {... */\n  callvalue\n  dup1\n  iszero\n  tag_1\n  jumpi\n  revert(0x00, 0x00)\ntag_1:\n  pop\n    /* \"contracts/Organization.sol\":600:610  msg.sender */\n  caller\n    /* \"contracts/Organization.sol\":592:610  owner = msg.sender */\n  0x80\n  mstore\n    /* \"contracts/Organization.sol\":58:6072  contract Organization {... */\n  mload(0x80)\n  codecopy(0x00, dataOffset(sub_0), dataSize(sub_0))\n  0x00\n  assignImmutable(\"0xf4c2b5de886427473655d4c904c743576dc2d53249b7535d96c06cc97ae7216b\")\n  return(0x00, dataSize(sub_0))\nstop\n\nsub_0: assembly {\n        /* \"contracts/Organization.sol\":58:6072  contract Organization {... */\n      mstore(0x40, 0x80)\n      callvalue\n      dup1\n      iszero\n      tag_1\n      jumpi\n      revert(0x00, 0x00)\n    tag_1:\n      pop\n      jumpi(tag_2, lt(calldatasize, 0x04))\n      shr(0xe0, calldataload(0x00))\n      dup1\n      0x9754a3a8\n      gt\n      tag_14\n      jumpi\n      dup1\n      0x9754a3a8\n      eq\n      tag_8\n      jumpi\n      dup1\n      0xabf653bd\n      eq\n      tag_9\n      jumpi\n      dup1\n      0xc477ecab\n      eq\n      tag_10\n      jumpi\n      dup1\n      0xe35309ea\n      eq\n      tag_11\n      jumpi\n      dup1\n      0xe792dd8a\n      eq\n      tag_12\n      jumpi\n      dup1\n      0xed39a17d\n      eq\n      tag_13\n      jumpi\n      revert(0x00, 0x00)\n    tag_14:\n      dup1\n      0x2da78c2d\n      eq\n      tag_3\n      jumpi\n      dup1\n      0x4526f690\n      eq\n      tag_4\n      jumpi\n      dup1\n      0x74d0a676\n      eq\n      tag_5\n      jumpi\n      dup1\n      0x7d9e10f5\n      eq\n      tag_6\n      jumpi\n      dup1\n      0x8da5cb5b\n      eq\n      tag_7\n      jumpi\n    tag_2:\n      revert(0x00, 0x00)\n        /* \"contracts/Organization.sol\":366:405  uint256 public activeOrganizationsCount */\n    tag_3:\n      tag_15\n      sload(0x00)\n      dup2\n      jump\n    tag_15:\n      mload(0x40)\n        /* \"#utility.yul\":160:185   */\n      swap1\n      dup2\n      mstore\n        /* \"#utility.yul\":148:150   */\n      0x20\n        /* \"#utility.yul\":133:151   */\n      add\n        /* \"contracts/Organization.sol\":366:405  uint256 public activeOrganizationsCount */\n    tag_17:\n      mload(0x40)\n      dup1\n      swap2\n      sub\n      swap1\n      return\n        /* \"contracts/Organization.sol\":5384:5619  function getOrganization(... */\n    tag_4:\n      tag_19\n      tag_20\n      calldatasize\n      0x04\n      tag_21\n      jump\t// in\n    tag_20:\n      tag_22\n      jump\t// in\n    tag_19:\n      mload(0x40)\n      tag_17\n      swap2\n      swap1\n      tag_24\n      jump\t// in\n        /* \"contracts/Organization.sol\":3233:3870  function addMember(... */\n    tag_5:\n      tag_25\n      tag_26\n      calldatasize\n      0x04\n      tag_27\n      jump\t// in\n    tag_26:\n      tag_28\n      jump\t// in\n    tag_25:\n      stop\n        /* \"contracts/Organization.sol\":501:561  mapping(uint256 => mapping(address => bool)) public isMember */\n    tag_6:\n      tag_29\n      tag_30\n      calldatasize\n      0x04\n      tag_27\n      jump\t// in\n    tag_30:\n      0x02\n      0x20\n      swap1\n      dup2\n      mstore\n      0x00\n      swap3\n      dup4\n      mstore\n      0x40\n      dup1\n      dup5\n      keccak256\n      swap1\n      swap2\n      mstore\n      swap1\n      dup3\n      mstore\n      swap1\n      keccak256\n      sload\n      0xff\n      and\n      dup2\n      jump\n    tag_29:\n      mload(0x40)\n        /* \"#utility.yul\":3340:3354   */\n      swap1\n      iszero\n        /* \"#utility.yul\":3333:3355   */\n      iszero\n        /* \"#utility.yul\":3315:3356   */\n      dup2\n      mstore\n        /* \"#utility.yul\":3303:3305   */\n      0x20\n        /* \"#utility.yul\":3288:3306   */\n      add\n        /* \"contracts/Organization.sol\":501:561  mapping(uint256 => mapping(address => bool)) public isMember */\n      tag_17\n        /* \"#utility.yul\":3175:3362   */\n      jump\n        /* \"contracts/Organization.sol\":330:360  address public immutable owner */\n    tag_7:\n      tag_34\n      immutable(\"0xf4c2b5de886427473655d4c904c743576dc2d53249b7535d96c06cc97ae7216b\")\n      dup2\n      jump\n    tag_34:\n      mload(0x40)\n      sub(shl(0xa0, 0x01), 0x01)\n        /* \"#utility.yul\":3531:3563   */\n      swap1\n      swap2\n      and\n        /* \"#utility.yul\":3513:3564   */\n      dup2\n      mstore\n        /* \"#utility.yul\":3501:3503   */\n      0x20\n        /* \"#utility.yul\":3486:3504   */\n      add\n        /* \"contracts/Organization.sol\":330:360  address public immutable owner */\n      tag_17\n        /* \"#utility.yul\":3367:3570   */\n      jump\n        /* \"contracts/Organization.sol\":5654:5795  function getOrganizations()... */\n    tag_8:\n      tag_38\n      tag_39\n      jump\t// in\n    tag_38:\n      mload(0x40)\n      tag_17\n      swap2\n      swap1\n      tag_41\n      jump\t// in\n        /* \"contracts/Organization.sol\":4648:5346  function deactivateOrganization(... */\n    tag_9:\n      tag_25\n      tag_43\n      calldatasize\n      0x04\n      tag_44\n      jump\t// in\n    tag_43:\n      tag_45\n      jump\t// in\n        /* \"contracts/Organization.sol\":5839:6070  function getMembers(... */\n    tag_10:\n      tag_46\n      tag_47\n      calldatasize\n      0x04\n      tag_21\n      jump\t// in\n    tag_47:\n      tag_48\n      jump\t// in\n    tag_46:\n      mload(0x40)\n      tag_17\n      swap2\n      swap1\n      tag_50\n      jump\t// in\n        /* \"contracts/Organization.sol\":3932:4611  function updateOrganization(... */\n    tag_11:\n      tag_25\n      tag_52\n      calldatasize\n      0x04\n      tag_53\n      jump\t// in\n    tag_52:\n      tag_54\n      jump\t// in\n        /* \"contracts/Organization.sol\":411:450  OrganizationData[] public organizations */\n    tag_12:\n      tag_55\n      tag_56\n      calldatasize\n      0x04\n      tag_21\n      jump\t// in\n    tag_56:\n      tag_57\n      jump\t// in\n    tag_55:\n      mload(0x40)\n      tag_17\n      swap8\n      swap7\n      swap6\n      swap5\n      swap4\n      swap3\n      swap2\n      swap1\n      tag_59\n      jump\t// in\n        /* \"contracts/Organization.sol\":2075:3188  function createOrganization(... */\n    tag_13:\n      tag_25\n      tag_61\n      calldatasize\n      0x04\n      tag_62\n      jump\t// in\n    tag_61:\n      tag_63\n      jump\t// in\n        /* \"contracts/Organization.sol\":5384:5619  function getOrganization(... */\n    tag_22:\n        /* \"contracts/Organization.sol\":5536:5559  OrganizationData memory */\n      tag_64\n      mload(0x40)\n      dup1\n      0x0100\n      add\n      0x40\n      mstore\n      dup1\n      0x60\n      dup2\n      mstore\n      0x20\n      add\n      and(sub(shl(0xa0, 0x01), 0x01), 0x00)\n      dup2\n      mstore\n      0x20\n      add\n      and(sub(shl(0xa0, 0x01), 0x01), 0x00)\n      dup2\n      mstore\n      0x20\n      add\n      0x00\n      dup2\n      mstore\n      0x20\n      add\n      0x00\n      dup2\n      mstore\n      0x20\n      add\n      0x60\n      dup2\n      mstore\n      0x20\n      add\n      0x60\n      dup2\n      mstore\n      0x20\n      add\n      iszero(iszero(0x00))\n      dup2\n      mstore\n      pop\n      swap1\n      jump\n    tag_64:\n        /* \"contracts/Organization.sol\":1465:1478  organizations */\n      0x01\n        /* \"contracts/Organization.sol\":1465:1485  organizations.length */\n      sload\n        /* \"contracts/Organization.sol\":5502:5517  _organizationId */\n      dup3\n      swap1\n        /* \"contracts/Organization.sol\":1447:1485  _organizationId < organizations.length */\n      dup2\n      lt\n        /* \"contracts/Organization.sol\":1439:1513  require(_organizationId < organizations.length, \"Invalid organization id\") */\n      tag_67\n      jumpi\n      mload(0x40)\n      shl(0xe5, 0x461bcd)\n      dup2\n      mstore\n      0x04\n      add\n      tag_68\n      swap1\n      tag_69\n      jump\t// in\n    tag_68:\n      mload(0x40)\n      dup1\n      swap2\n      sub\n      swap1\n      revert\n    tag_67:\n        /* \"contracts/Organization.sol\":5582:5595  organizations */\n      0x01\n        /* \"contracts/Organization.sol\":5596:5611  _organizationId */\n      dup4\n        /* \"contracts/Organization.sol\":5582:5612  organizations[_organizationId] */\n      dup2\n      sload\n      dup2\n      lt\n      tag_72\n      jumpi\n      tag_72\n      tag_73\n      jump\t// in\n    tag_72:\n      swap1\n      0x00\n      mstore\n      keccak256(0x00, 0x20)\n      swap1\n      0x08\n      mul\n      add\n        /* \"contracts/Organization.sol\":5575:5612  return organizations[_organizationId] */\n      mload(0x40)\n      dup1\n      0x0100\n      add\n      0x40\n      mstore\n      swap1\n      dup2\n      0x00\n      dup3\n      add\n      dup1\n      sload\n      tag_75\n      swap1\n      tag_76\n      jump\t// in\n    tag_75:\n      dup1\n      0x1f\n      add\n      0x20\n      dup1\n      swap2\n      div\n      mul\n      0x20\n      add\n      mload(0x40)\n      swap1\n      dup2\n      add\n      0x40\n      mstore\n      dup1\n      swap3\n      swap2\n      swap1\n      dup2\n      dup2\n      mstore\n      0x20\n      add\n      dup3\n      dup1\n      sload\n      tag_77\n      swap1\n      tag_76\n      jump\t// in\n    tag_77:\n      dup1\n      iszero\n      tag_78\n      jumpi\n      dup1\n      0x1f\n      lt\n      tag_79\n      jumpi\n      0x0100\n      dup1\n      dup4\n      sload\n      div\n      mul\n      dup4\n      mstore\n      swap2\n      0x20\n      add\n      swap2\n      jump(tag_78)\n    tag_79:\n      dup3\n      add\n      swap2\n      swap1\n      0x00\n      mstore\n      keccak256(0x00, 0x20)\n      swap1\n    tag_80:\n      dup2\n      sload\n      dup2\n      mstore\n      swap1\n      0x01\n      add\n      swap1\n      0x20\n      add\n      dup1\n      dup4\n      gt\n      tag_80\n      jumpi\n      dup3\n      swap1\n      sub\n      0x1f\n      and\n      dup3\n      add\n      swap2\n    tag_78:\n      pop\n      pop\n      pop\n      swap2\n      dup4\n      mstore\n      pop\n      pop\n      0x01\n      dup3\n      add\n      sload\n      sub(shl(0xa0, 0x01), 0x01)\n      swap1\n      dup2\n      and\n      0x20\n      dup1\n      dup5\n      add\n      swap2\n      swap1\n      swap2\n      mstore\n      0x02\n      dup5\n      add\n      sload\n      swap1\n      swap2\n      and\n      0x40\n      dup1\n      dup5\n      add\n      swap2\n      swap1\n      swap2\n      mstore\n      0x03\n      dup5\n      add\n      sload\n      0x60\n      dup5\n      add\n      mstore\n      0x04\n      dup5\n      add\n      sload\n      0x80\n      dup5\n      add\n      mstore\n      0x05\n      dup5\n      add\n      dup1\n      sload\n      dup3\n      mload\n      dup2\n      dup6\n      mul\n      dup2\n      add\n      dup6\n      add\n      swap1\n      swap4\n      mstore\n      dup1\n      dup4\n      mstore\n      0xa0\n      swap1\n      swap5\n      add\n      swap4\n      swap2\n      swap3\n      swap1\n      swap2\n      swap1\n      dup4\n      add\n      dup3\n      dup3\n      dup1\n      iszero\n      tag_81\n      jumpi\n      0x20\n      mul\n      dup3\n      add\n      swap2\n      swap1\n      0x00\n      mstore\n      keccak256(0x00, 0x20)\n      swap1\n    tag_82:\n      dup2\n      sload\n      sub(shl(0xa0, 0x01), 0x01)\n      and\n      dup2\n      mstore\n      0x01\n      swap1\n      swap2\n      add\n      swap1\n      0x20\n      add\n      dup1\n      dup4\n      gt\n      tag_82\n      jumpi\n    tag_81:\n      pop\n      pop\n      pop\n      pop\n      pop\n      dup2\n      mstore\n      0x20\n      add\n      0x06\n      dup3\n      add\n      dup1\n      sload\n      tag_83\n      swap1\n      tag_76\n      jump\t// in\n    tag_83:\n      dup1\n      0x1f\n      add\n      0x20\n      dup1\n      swap2\n      div\n      mul\n      0x20\n      add\n      mload(0x40)\n      swap1\n      dup2\n      add\n      0x40\n      mstore\n      dup1\n      swap3\n      swap2\n      swap1\n      dup2\n      dup2\n      mstore\n      0x20\n      add\n      dup3\n      dup1\n      sload\n      tag_84\n      swap1\n      tag_76\n      jump\t// in\n    tag_84:\n      dup1\n      iszero\n      tag_85\n      jumpi\n      dup1\n      0x1f\n      lt\n      tag_86\n      jumpi\n      0x0100\n      dup1\n      dup4\n      sload\n      div\n      mul\n      dup4\n      mstore\n      swap2\n      0x20\n      add\n      swap2\n      jump(tag_85)\n    tag_86:\n      dup3\n      add\n      swap2\n      swap1\n      0x00\n      mstore\n      keccak256(0x00, 0x20)\n      swap1\n    tag_87:\n      dup2\n      sload\n      dup2\n      mstore\n      swap1\n      0x01\n      add\n      swap1\n      0x20\n      add\n      dup1\n      dup4\n      gt\n      tag_87\n      jumpi\n      dup3\n      swap1\n      sub\n      0x1f\n      and\n      dup3\n      add\n      swap2\n    tag_85:\n      pop\n      pop\n      pop\n      swap2\n      dup4\n      mstore\n      pop\n      pop\n      0x07\n      swap2\n      swap1\n      swap2\n      add\n      sload\n      0xff\n      and\n      iszero\n      iszero\n      0x20\n      swap1\n      swap2\n      add\n      mstore\n      swap2\n      pop\n        /* \"contracts/Organization.sol\":1523:1524  _ */\n    tag_70:\n        /* \"contracts/Organization.sol\":5384:5619  function getOrganization(... */\n      pop\n      swap2\n      swap1\n      pop\n      jump\t// out\n        /* \"contracts/Organization.sol\":3233:3870  function addMember(... */\n    tag_28:\n        /* \"contracts/Organization.sol\":1465:1478  organizations */\n      0x01\n        /* \"contracts/Organization.sol\":1465:1485  organizations.length */\n      sload\n        /* \"contracts/Organization.sol\":3357:3372  _organizationId */\n      dup3\n      swap1\n        /* \"contracts/Organization.sol\":1447:1485  _organizationId < organizations.length */\n      dup2\n      lt\n        /* \"contracts/Organization.sol\":1439:1513  require(_organizationId < organizations.length, \"Invalid organization id\") */\n      tag_89\n      jumpi\n      mload(0x40)\n      shl(0xe5, 0x461bcd)\n      dup2\n      mstore\n      0x04\n      add\n      tag_68\n      swap1\n      tag_69\n      jump\t// in\n    tag_89:\n        /* \"contracts/Organization.sol\":3392:3407  _organizationId */\n      dup3\n        /* \"contracts/Organization.sol\":1626:1639  organizations */\n      0x01\n        /* \"contracts/Organization.sol\":1640:1655  _organizationId */\n      dup2\n        /* \"contracts/Organization.sol\":1626:1656  organizations[_organizationId] */\n      dup2\n      sload\n      dup2\n      lt\n      tag_93\n      jumpi\n      tag_93\n      tag_73\n      jump\t// in\n    tag_93:\n      0x00\n      swap2\n      dup3\n      mstore\n      0x20\n      swap1\n      swap2\n      keccak256\n      0x08\n      swap1\n      swap2\n      mul\n      add\n        /* \"contracts/Organization.sol\":1626:1662  organizations[_organizationId].admin */\n      0x02\n      add\n      sload\n      sub(shl(0xa0, 0x01), 0x01)\n      and\n        /* \"contracts/Organization.sol\":1612:1622  msg.sender */\n      caller\n        /* \"contracts/Organization.sol\":1612:1662  msg.sender == organizations[_organizationId].admin */\n      eq\n        /* \"contracts/Organization.sol\":1591:1726  require(... */\n      tag_95\n      jumpi\n      mload(0x40)\n      shl(0xe5, 0x461bcd)\n      dup2\n      mstore\n      0x04\n      add\n      tag_68\n      swap1\n      tag_97\n      jump\t// in\n    tag_95:\n        /* \"contracts/Organization.sol\":3428:3443  _organizationId */\n      dup4\n        /* \"contracts/Organization.sol\":1826:1839  organizations */\n      0x01\n        /* \"contracts/Organization.sol\":1840:1855  _organizationId */\n      dup2\n        /* \"contracts/Organization.sol\":1826:1856  organizations[_organizationId] */\n      dup2\n      sload\n      dup2\n      lt\n      tag_100\n      jumpi\n      tag_100\n      tag_73\n      jump\t// in\n    tag_100:\n      0x00\n      swap2\n      dup3\n      mstore\n      0x20\n      swap1\n      swap2\n      keccak256\n        /* \"contracts/Organization.sol\":1826:1865  organizations[_organizationId].isActive */\n      0x07\n        /* \"contracts/Organization.sol\":1826:1856  organizations[_organizationId] */\n      0x08\n      swap1\n      swap3\n      mul\n      add\n        /* \"contracts/Organization.sol\":1826:1865  organizations[_organizationId].isActive */\n      add\n      sload\n      0xff\n      and\n        /* \"contracts/Organization.sol\":1805:1915  require(... */\n      tag_102\n      jumpi\n      mload(0x40)\n      shl(0xe5, 0x461bcd)\n      dup2\n      mstore\n        /* \"#utility.yul\":9931:9933   */\n      0x20\n        /* \"contracts/Organization.sol\":1805:1915  require(... */\n      0x04\n      dup3\n      add\n        /* \"#utility.yul\":9913:9934   */\n      mstore\n        /* \"#utility.yul\":9970:9972   */\n      0x18\n        /* \"#utility.yul\":9950:9968   */\n      0x24\n      dup3\n      add\n        /* \"#utility.yul\":9943:9973   */\n      mstore\n      shl(0x40, 0x4f7267616e697a6174696f6e20697320696e616374697665)\n        /* \"#utility.yul\":9989:10007   */\n      0x44\n      dup3\n      add\n        /* \"#utility.yul\":9982:10036   */\n      mstore\n        /* \"#utility.yul\":10053:10071   */\n      0x64\n      add\n        /* \"contracts/Organization.sol\":1805:1915  require(... */\n      tag_68\n        /* \"#utility.yul\":9729:10077   */\n      jump\n        /* \"contracts/Organization.sol\":1805:1915  require(... */\n    tag_102:\n      sub(shl(0xa0, 0x01), 0x01)\n        /* \"contracts/Organization.sol\":3467:3488  _member != address(0) */\n      dup5\n      and\n        /* \"contracts/Organization.sol\":3459:3515  require(_member != address(0), \"Invalid member address\") */\n      tag_106\n      jumpi\n      mload(0x40)\n      shl(0xe5, 0x461bcd)\n      dup2\n      mstore\n        /* \"#utility.yul\":10284:10286   */\n      0x20\n        /* \"contracts/Organization.sol\":3459:3515  require(_member != address(0), \"Invalid member address\") */\n      0x04\n      dup3\n      add\n        /* \"#utility.yul\":10266:10287   */\n      mstore\n        /* \"#utility.yul\":10323:10325   */\n      0x16\n        /* \"#utility.yul\":10303:10321   */\n      0x24\n      dup3\n      add\n        /* \"#utility.yul\":10296:10326   */\n      mstore\n      shl(0x50, 0x496e76616c6964206d656d6265722061646472657373)\n        /* \"#utility.yul\":10342:10360   */\n      0x44\n      dup3\n      add\n        /* \"#utility.yul\":10335:10387   */\n      mstore\n        /* \"#utility.yul\":10404:10422   */\n      0x64\n      add\n        /* \"contracts/Organization.sol\":3459:3515  require(_member != address(0), \"Invalid member address\") */\n      tag_68\n        /* \"#utility.yul\":10082:10428   */\n      jump\n        /* \"contracts/Organization.sol\":3459:3515  require(_member != address(0), \"Invalid member address\") */\n    tag_106:\n        /* \"contracts/Organization.sol\":3547:3572  isMember[_organizationId] */\n      0x00\n      dup6\n      dup2\n      mstore\n        /* \"contracts/Organization.sol\":3547:3555  isMember */\n      0x02\n        /* \"contracts/Organization.sol\":3547:3572  isMember[_organizationId] */\n      0x20\n      swap1\n      dup2\n      mstore\n      0x40\n      dup1\n      dup4\n      keccak256\n      sub(shl(0xa0, 0x01), 0x01)\n        /* \"contracts/Organization.sol\":3547:3581  isMember[_organizationId][_member] */\n      dup9\n      and\n      dup5\n      mstore\n      swap1\n      swap2\n      mstore\n      swap1\n      keccak256\n      sload\n      0xff\n      and\n        /* \"contracts/Organization.sol\":3546:3581  !isMember[_organizationId][_member] */\n      iszero\n        /* \"contracts/Organization.sol\":3525:3628  require(... */\n      tag_109\n      jumpi\n      mload(0x40)\n      shl(0xe5, 0x461bcd)\n      dup2\n      mstore\n        /* \"#utility.yul\":10635:10637   */\n      0x20\n        /* \"contracts/Organization.sol\":3525:3628  require(... */\n      0x04\n      dup3\n      add\n        /* \"#utility.yul\":10617:10638   */\n      mstore\n        /* \"#utility.yul\":10674:10676   */\n      0x15\n        /* \"#utility.yul\":10654:10672   */\n      0x24\n      dup3\n      add\n        /* \"#utility.yul\":10647:10677   */\n      mstore\n      shl(0x58, 0x4d656d62657220616c726561647920657869737473)\n        /* \"#utility.yul\":10693:10711   */\n      0x44\n      dup3\n      add\n        /* \"#utility.yul\":10686:10737   */\n      mstore\n        /* \"#utility.yul\":10754:10772   */\n      0x64\n      add\n        /* \"contracts/Organization.sol\":3525:3628  require(... */\n      tag_68\n        /* \"#utility.yul\":10433:10778   */\n      jump\n        /* \"contracts/Organization.sol\":3525:3628  require(... */\n    tag_109:\n        /* \"contracts/Organization.sol\":3639:3652  organizations */\n      0x01\n        /* \"contracts/Organization.sol\":3653:3668  _organizationId */\n      dup6\n        /* \"contracts/Organization.sol\":3639:3669  organizations[_organizationId] */\n      dup2\n      sload\n      dup2\n      lt\n      tag_113\n      jumpi\n      tag_113\n      tag_73\n      jump\t// in\n    tag_113:\n      0x00\n      swap2\n      dup3\n      mstore\n      0x20\n      dup1\n      dup4\n      keccak256\n      0x08\n      swap3\n      swap1\n      swap3\n      mul\n      swap1\n      swap2\n      add\n        /* \"contracts/Organization.sol\":3639:3677  organizations[_organizationId].members */\n      0x05\n      add\n        /* \"contracts/Organization.sol\":3639:3691  organizations[_organizationId].members.push(_member) */\n      dup1\n      sload\n      0x01\n      dup1\n      dup3\n      add\n      dup4\n      sstore\n      swap2\n      dup5\n      mstore\n      dup3\n      dup5\n      keccak256\n      add\n      dup1\n      sload\n      not(sub(shl(0xa0, 0x01), 0x01))\n      and\n      sub(shl(0xa0, 0x01), 0x01)\n      dup10\n      and\n      swap1\n      dup2\n      or\n      swap1\n      swap2\n      sstore\n        /* \"contracts/Organization.sol\":3701:3726  isMember[_organizationId] */\n      dup9\n      dup5\n      mstore\n        /* \"contracts/Organization.sol\":3701:3709  isMember */\n      0x02\n        /* \"contracts/Organization.sol\":3701:3726  isMember[_organizationId] */\n      dup4\n      mstore\n      0x40\n      dup1\n      dup6\n      keccak256\n        /* \"contracts/Organization.sol\":3701:3735  isMember[_organizationId][_member] */\n      swap2\n      dup6\n      mstore\n      swap3\n      mstore\n      swap2\n      keccak256\n        /* \"contracts/Organization.sol\":3701:3742  isMember[_organizationId][_member] = true */\n      dup1\n      sload\n      not(0xff)\n      and\n      dup3\n      or\n      swap1\n      sstore\n        /* \"contracts/Organization.sol\":3752:3782  organizations[_organizationId] */\n      dup1\n      sload\n        /* \"contracts/Organization.sol\":3795:3810  block.timestamp */\n      timestamp\n      swap2\n        /* \"contracts/Organization.sol\":3639:3691  organizations[_organizationId].members.push(_member) */\n      swap1\n        /* \"contracts/Organization.sol\":3701:3726  isMember[_organizationId] */\n      dup8\n      swap1\n        /* \"contracts/Organization.sol\":3752:3782  organizations[_organizationId] */\n      dup2\n      lt\n      tag_117\n      jumpi\n      tag_117\n      tag_73\n      jump\t// in\n    tag_117:\n      swap1\n      0x00\n      mstore\n      keccak256(0x00, 0x20)\n      swap1\n      0x08\n      mul\n      add\n        /* \"contracts/Organization.sol\":3752:3792  organizations[_organizationId].updatedAt */\n      0x04\n      add\n        /* \"contracts/Organization.sol\":3752:3810  organizations[_organizationId].updatedAt = block.timestamp */\n      dup2\n      swap1\n      sstore\n      pop\n        /* \"contracts/Organization.sol\":3855:3862  _member */\n      dup4\n      sub(shl(0xa0, 0x01), 0x01)\n        /* \"contracts/Organization.sol\":3826:3863  MemberAdded(_organizationId, _member) */\n      and\n        /* \"contracts/Organization.sol\":3838:3853  _organizationId */\n      dup6\n        /* \"contracts/Organization.sol\":3826:3863  MemberAdded(_organizationId, _member) */\n      0xf328ac0f8bcae00933fe87ba0aa2d0d505c1df94bc9c1aa05b8441c28b74032c\n      mload(0x40)\n      mload(0x40)\n      dup1\n      swap2\n      sub\n      swap1\n      log3\n        /* \"contracts/Organization.sol\":1736:1737  _ */\n      pop\n        /* \"contracts/Organization.sol\":1523:1524  _ */\n      pop\n        /* \"contracts/Organization.sol\":3233:3870  function addMember(... */\n      pop\n      pop\n      pop\n      jump\t// out\n        /* \"contracts/Organization.sol\":5654:5795  function getOrganizations()... */\n    tag_39:\n        /* \"contracts/Organization.sol\":5727:5752  OrganizationData[] memory */\n      0x60\n        /* \"contracts/Organization.sol\":5775:5788  organizations */\n      0x01\n        /* \"contracts/Organization.sol\":5768:5788  return organizations */\n      dup1\n      sload\n      dup1\n      0x20\n      mul\n      0x20\n      add\n      mload(0x40)\n      swap1\n      dup2\n      add\n      0x40\n      mstore\n      dup1\n      swap3\n      swap2\n      swap1\n      dup2\n      dup2\n      mstore\n      0x20\n      add\n      0x00\n      swap1\n    tag_120:\n      dup3\n      dup3\n      lt\n      iszero\n      tag_121\n      jumpi\n      dup4\n      dup3\n      swap1\n      0x00\n      mstore\n      keccak256(0x00, 0x20)\n      swap1\n      0x08\n      mul\n      add\n      mload(0x40)\n      dup1\n      0x0100\n      add\n      0x40\n      mstore\n      swap1\n      dup2\n      0x00\n      dup3\n      add\n      dup1\n      sload\n      tag_123\n      swap1\n      tag_76\n      jump\t// in\n    tag_123:\n      dup1\n      0x1f\n      add\n      0x20\n      dup1\n      swap2\n      div\n      mul\n      0x20\n      add\n      mload(0x40)\n      swap1\n      dup2\n      add\n      0x40\n      mstore\n      dup1\n      swap3\n      swap2\n      swap1\n      dup2\n      dup2\n      mstore\n      0x20\n      add\n      dup3\n      dup1\n      sload\n      tag_124\n      swap1\n      tag_76\n      jump\t// in\n    tag_124:\n      dup1\n      iszero\n      tag_125\n      jumpi\n      dup1\n      0x1f\n      lt\n      tag_126\n      jumpi\n      0x0100\n      dup1\n      dup4\n      sload\n      div\n      mul\n      dup4\n      mstore\n      swap2\n      0x20\n      add\n      swap2\n      jump(tag_125)\n    tag_126:\n      dup3\n      add\n      swap2\n      swap1\n      0x00\n      mstore\n      keccak256(0x00, 0x20)\n      swap1\n    tag_127:\n      dup2\n      sload\n      dup2\n      mstore\n      swap1\n      0x01\n      add\n      swap1\n      0x20\n      add\n      dup1\n      dup4\n      gt\n      tag_127\n      jumpi\n      dup3\n      swap1\n      sub\n      0x1f\n      and\n      dup3\n      add\n      swap2\n    tag_125:\n      pop\n      pop\n      pop\n      swap2\n      dup4\n      mstore\n      pop\n      pop\n      0x01\n      dup3\n      add\n      sload\n      sub(shl(0xa0, 0x01), 0x01)\n      swap1\n      dup2\n      and\n      0x20\n      dup1\n      dup5\n      add\n      swap2\n      swap1\n      swap2\n      mstore\n      0x02\n      dup5\n      add\n      sload\n      swap1\n      swap2\n      and\n      0x40\n      dup1\n      dup5\n      add\n      swap2\n      swap1\n      swap2\n      mstore\n      0x03\n      dup5\n      add\n      sload\n      0x60\n      dup5\n      add\n      mstore\n      0x04\n      dup5\n      add\n      sload\n      0x80\n      dup5\n      add\n      mstore\n      0x05\n      dup5\n      add\n      dup1\n      sload\n      dup3\n      mload\n      dup2\n      dup6\n      mul\n      dup2\n      add\n      dup6\n      add\n      swap1\n      swap4\n      mstore\n      dup1\n      dup4\n      mstore\n      0xa0\n      swap1\n      swap5\n      add\n      swap4\n      swap2\n      swap3\n      swap1\n      swap2\n      swap1\n      dup4\n      add\n      dup3\n      dup3\n      dup1\n      iszero\n      tag_128\n      jumpi\n      0x20\n      mul\n      dup3\n      add\n      swap2\n      swap1\n      0x00\n      mstore\n      keccak256(0x00, 0x20)\n      swap1\n    tag_129:\n      dup2\n      sload\n      sub(shl(0xa0, 0x01), 0x01)\n      and\n      dup2\n      mstore\n      0x01\n      swap1\n      swap2\n      add\n      swap1\n      0x20\n      add\n      dup1\n      dup4\n      gt\n      tag_129\n      jumpi\n    tag_128:\n      pop\n      pop\n      pop\n      pop\n      pop\n      dup2\n      mstore\n      0x20\n      add\n      0x06\n      dup3\n      add\n      dup1\n      sload\n      tag_130\n      swap1\n      tag_76\n      jump\t// in\n    tag_130:\n      dup1\n      0x1f\n      add\n      0x20\n      dup1\n      swap2\n      div\n      mul\n      0x20\n      add\n      mload(0x40)\n      swap1\n      dup2\n      add\n      0x40\n      mstore\n      dup1\n      swap3\n      swap2\n      swap1\n      dup2\n      dup2\n      mstore\n      0x20\n      add\n      dup3\n      dup1\n      sload\n      tag_131\n      swap1\n      tag_76\n      jump\t// in\n    tag_131:\n      dup1\n      iszero\n      tag_132\n      jumpi\n      dup1\n      0x1f\n      lt\n      tag_133\n      jumpi\n      0x0100\n      dup1\n      dup4\n      sload\n      div\n      mul\n      dup4\n      mstore\n      swap2\n      0x20\n      add\n      swap2\n      jump(tag_132)\n    tag_133:\n      dup3\n      add\n      swap2\n      swap1\n      0x00\n      mstore\n      keccak256(0x00, 0x20)\n      swap1\n    tag_134:\n      dup2\n      sload\n      dup2\n      mstore\n      swap1\n      0x01\n      add\n      swap1\n      0x20\n      add\n      dup1\n      dup4\n      gt\n      tag_134\n      jumpi\n      dup3\n      swap1\n      sub\n      0x1f\n      and\n      dup3\n      add\n      swap2\n    tag_132:\n      pop\n      pop\n      pop\n      swap2\n      dup4\n      mstore\n      pop\n      pop\n      0x07\n      swap2\n      swap1\n      swap2\n      add\n      sload\n      0xff\n      and\n      iszero\n      iszero\n      0x20\n      swap2\n      dup3\n      add\n      mstore\n      swap1\n      dup3\n      mstore\n      0x01\n      swap3\n      swap1\n      swap3\n      add\n      swap2\n      add\n      jump(tag_120)\n    tag_121:\n      pop\n      pop\n      pop\n      pop\n      swap1\n      pop\n        /* \"contracts/Organization.sol\":5654:5795  function getOrganizations()... */\n      swap1\n      jump\t// out\n        /* \"contracts/Organization.sol\":4648:5346  function deactivateOrganization(... */\n    tag_45:\n        /* \"contracts/Organization.sol\":1465:1478  organizations */\n      0x01\n        /* \"contracts/Organization.sol\":1465:1485  organizations.length */\n      sload\n        /* \"contracts/Organization.sol\":4775:4790  _organizationId */\n      dup3\n      swap1\n        /* \"contracts/Organization.sol\":1447:1485  _organizationId < organizations.length */\n      dup2\n      lt\n        /* \"contracts/Organization.sol\":1439:1513  require(_organizationId < organizations.length, \"Invalid organization id\") */\n      tag_136\n      jumpi\n      mload(0x40)\n      shl(0xe5, 0x461bcd)\n      dup2\n      mstore\n      0x04\n      add\n      tag_68\n      swap1\n      tag_69\n      jump\t// in\n    tag_136:\n        /* \"contracts/Organization.sol\":4823:4833  msg.sender */\n      caller\n      sub(shl(0xa0, 0x01), 0x01)\n        /* \"contracts/Organization.sol\":4837:4842  owner */\n      immutable(\"0xf4c2b5de886427473655d4c904c743576dc2d53249b7535d96c06cc97ae7216b\")\n        /* \"contracts/Organization.sol\":4823:4842  msg.sender == owner */\n      and\n      eq\n        /* \"contracts/Organization.sol\":4802:4923  require(... */\n      tag_139\n      jumpi\n      mload(0x40)\n      shl(0xe5, 0x461bcd)\n      dup2\n      mstore\n        /* \"#utility.yul\":10985:10987   */\n      0x20\n        /* \"contracts/Organization.sol\":4802:4923  require(... */\n      0x04\n      dup3\n      add\n        /* \"#utility.yul\":10967:10988   */\n      mstore\n        /* \"#utility.yul\":11024:11026   */\n      0x37\n        /* \"#utility.yul\":11004:11022   */\n      0x24\n      dup3\n      add\n        /* \"#utility.yul\":10997:11027   */\n      mstore\n        /* \"#utility.yul\":11063:11097   */\n      0x4f6e6c792074686520636f6e7472616374206f776e65722063616e2064656163\n        /* \"#utility.yul\":11043:11061   */\n      0x44\n      dup3\n      add\n        /* \"#utility.yul\":11036:11098   */\n      mstore\n        /* \"#utility.yul\":11134:11159   */\n      0x74697661746520746865206f7267616e697a6174696f6e000000000000000000\n        /* \"#utility.yul\":11114:11132   */\n      0x64\n      dup3\n      add\n        /* \"#utility.yul\":11107:11160   */\n      mstore\n        /* \"#utility.yul\":11177:11196   */\n      0x84\n      add\n        /* \"contracts/Organization.sol\":4802:4923  require(... */\n      tag_68\n        /* \"#utility.yul\":10783:11202   */\n      jump\n        /* \"contracts/Organization.sol\":4802:4923  require(... */\n    tag_139:\n        /* \"contracts/Organization.sol\":4954:4967  organizations */\n      0x01\n        /* \"contracts/Organization.sol\":4968:4983  _organizationId */\n      dup4\n        /* \"contracts/Organization.sol\":4954:4984  organizations[_organizationId] */\n      dup2\n      sload\n      dup2\n      lt\n      tag_143\n      jumpi\n      tag_143\n      tag_73\n      jump\t// in\n    tag_143:\n      0x00\n      swap2\n      dup3\n      mstore\n      0x20\n      swap1\n      swap2\n      keccak256\n        /* \"contracts/Organization.sol\":4954:4993  organizations[_organizationId].isActive */\n      0x07\n        /* \"contracts/Organization.sol\":4954:4984  organizations[_organizationId] */\n      0x08\n      swap1\n      swap3\n      mul\n      add\n        /* \"contracts/Organization.sol\":4954:4993  organizations[_organizationId].isActive */\n      add\n      sload\n      0xff\n      and\n        /* \"contracts/Organization.sol\":4933:5048  require(... */\n      tag_145\n      jumpi\n      mload(0x40)\n      shl(0xe5, 0x461bcd)\n      dup2\n      mstore\n        /* \"#utility.yul\":11409:11411   */\n      0x20\n        /* \"contracts/Organization.sol\":4933:5048  require(... */\n      0x04\n      dup3\n      add\n        /* \"#utility.yul\":11391:11412   */\n      mstore\n        /* \"#utility.yul\":11448:11450   */\n      0x1d\n        /* \"#utility.yul\":11428:11446   */\n      0x24\n      dup3\n      add\n        /* \"#utility.yul\":11421:11451   */\n      mstore\n        /* \"#utility.yul\":11487:11518   */\n      0x4f7267616e697a6174696f6e20616c726561647920696e616374697665000000\n        /* \"#utility.yul\":11467:11485   */\n      0x44\n      dup3\n      add\n        /* \"#utility.yul\":11460:11519   */\n      mstore\n        /* \"#utility.yul\":11536:11554   */\n      0x64\n      add\n        /* \"contracts/Organization.sol\":4933:5048  require(... */\n      tag_68\n        /* \"#utility.yul\":11207:11560   */\n      jump\n        /* \"contracts/Organization.sol\":4933:5048  require(... */\n    tag_145:\n        /* \"contracts/Organization.sol\":5101:5106  false */\n      0x00\n        /* \"contracts/Organization.sol\":5059:5072  organizations */\n      0x01\n        /* \"contracts/Organization.sol\":5073:5088  _organizationId */\n      dup5\n        /* \"contracts/Organization.sol\":5059:5089  organizations[_organizationId] */\n      dup2\n      sload\n      dup2\n      lt\n      tag_149\n      jumpi\n      tag_149\n      tag_73\n      jump\t// in\n    tag_149:\n      swap1\n      0x00\n      mstore\n      keccak256(0x00, 0x20)\n      swap1\n      0x08\n      mul\n      add\n        /* \"contracts/Organization.sol\":5059:5098  organizations[_organizationId].isActive */\n      0x07\n      add\n      0x00\n        /* \"contracts/Organization.sol\":5059:5106  organizations[_organizationId].isActive = false */\n      0x0100\n      exp\n      dup2\n      sload\n      dup2\n      0xff\n      mul\n      not\n      and\n      swap1\n      dup4\n      iszero\n      iszero\n      mul\n      or\n      swap1\n      sstore\n      pop\n        /* \"contracts/Organization.sol\":5159:5174  block.timestamp */\n      timestamp\n        /* \"contracts/Organization.sol\":5116:5129  organizations */\n      0x01\n        /* \"contracts/Organization.sol\":5130:5145  _organizationId */\n      dup5\n        /* \"contracts/Organization.sol\":5116:5146  organizations[_organizationId] */\n      dup2\n      sload\n      dup2\n      lt\n      tag_152\n      jumpi\n      tag_152\n      tag_73\n      jump\t// in\n    tag_152:\n      swap1\n      0x00\n      mstore\n      keccak256(0x00, 0x20)\n      swap1\n      0x08\n      mul\n      add\n        /* \"contracts/Organization.sol\":5116:5156  organizations[_organizationId].updatedAt */\n      0x04\n      add\n        /* \"contracts/Organization.sol\":5116:5174  organizations[_organizationId].updatedAt = block.timestamp */\n      dup2\n      swap1\n      sstore\n      pop\n        /* \"contracts/Organization.sol\":5186:5210  activeOrganizationsCount */\n      0x00\n      0x00\n        /* \"contracts/Organization.sol\":5184:5210  --activeOrganizationsCount */\n      dup2\n      sload\n      tag_154\n      swap1\n      tag_155\n      jump\t// in\n    tag_154:\n      swap1\n      swap2\n      sstore\n      pop\n        /* \"contracts/Organization.sol\":5226:5275  OrganizationStatusChanged(_organizationId, false) */\n      mload(0x40)\n        /* \"contracts/Organization.sol\":5269:5274  false */\n      0x00\n        /* \"#utility.yul\":3315:3356   */\n      dup2\n      mstore\n        /* \"contracts/Organization.sol\":5252:5267  _organizationId */\n      dup4\n      swap1\n        /* \"contracts/Organization.sol\":5226:5275  OrganizationStatusChanged(_organizationId, false) */\n      0x1f5eef396f0126db889cd46f4ca63a15cc149b1eb0539888878f748a76297711\n      swap1\n        /* \"#utility.yul\":3303:3305   */\n      0x20\n        /* \"#utility.yul\":3288:3306   */\n      add\n        /* \"contracts/Organization.sol\":5226:5275  OrganizationStatusChanged(_organizationId, false) */\n      mload(0x40)\n      dup1\n      swap2\n      sub\n      swap1\n      log2\n        /* \"contracts/Organization.sol\":5314:5329  _organizationId */\n      dup3\n        /* \"contracts/Organization.sol\":5290:5339  OrganizationDeactivated(_organizationId, _reason) */\n      0xb65f432ba3873bcffa1712074c16990dda95cbe52fbe3f0889e9233243ba8891\n        /* \"contracts/Organization.sol\":5331:5338  _reason */\n      dup4\n        /* \"contracts/Organization.sol\":5290:5339  OrganizationDeactivated(_organizationId, _reason) */\n      mload(0x40)\n      tag_157\n      swap2\n      swap1\n      tag_158\n      jump\t// in\n    tag_157:\n      mload(0x40)\n      dup1\n      swap2\n      sub\n      swap1\n      log2\n        /* \"contracts/Organization.sol\":4648:5346  function deactivateOrganization(... */\n      pop\n      pop\n      pop\n      jump\t// out\n        /* \"contracts/Organization.sol\":5839:6070  function getMembers(... */\n    tag_48:\n        /* \"contracts/Organization.sol\":1465:1478  organizations */\n      0x01\n        /* \"contracts/Organization.sol\":1465:1485  organizations.length */\n      sload\n        /* \"contracts/Organization.sol\":5986:6002  address[] memory */\n      0x60\n      swap1\n        /* \"contracts/Organization.sol\":5952:5967  _organizationId */\n      dup3\n      swap1\n        /* \"contracts/Organization.sol\":1447:1485  _organizationId < organizations.length */\n      dup2\n      lt\n        /* \"contracts/Organization.sol\":1439:1513  require(_organizationId < organizations.length, \"Invalid organization id\") */\n      tag_160\n      jumpi\n      mload(0x40)\n      shl(0xe5, 0x461bcd)\n      dup2\n      mstore\n      0x04\n      add\n      tag_68\n      swap1\n      tag_69\n      jump\t// in\n    tag_160:\n        /* \"contracts/Organization.sol\":6025:6038  organizations */\n      0x01\n        /* \"contracts/Organization.sol\":6039:6054  _organizationId */\n      dup4\n        /* \"contracts/Organization.sol\":6025:6055  organizations[_organizationId] */\n      dup2\n      sload\n      dup2\n      lt\n      tag_164\n      jumpi\n      tag_164\n      tag_73\n      jump\t// in\n    tag_164:\n      swap1\n      0x00\n      mstore\n      keccak256(0x00, 0x20)\n      swap1\n      0x08\n      mul\n      add\n        /* \"contracts/Organization.sol\":6025:6063  organizations[_organizationId].members */\n      0x05\n      add\n        /* \"contracts/Organization.sol\":6018:6063  return organizations[_organizationId].members */\n      dup1\n      sload\n      dup1\n      0x20\n      mul\n      0x20\n      add\n      mload(0x40)\n      swap1\n      dup2\n      add\n      0x40\n      mstore\n      dup1\n      swap3\n      swap2\n      swap1\n      dup2\n      dup2\n      mstore\n      0x20\n      add\n      dup3\n      dup1\n      sload\n      dup1\n      iszero\n      tag_166\n      jumpi\n      0x20\n      mul\n      dup3\n      add\n      swap2\n      swap1\n      0x00\n      mstore\n      keccak256(0x00, 0x20)\n      swap1\n    tag_167:\n      dup2\n      sload\n      sub(shl(0xa0, 0x01), 0x01)\n      and\n      dup2\n      mstore\n      0x01\n      swap1\n      swap2\n      add\n      swap1\n      0x20\n      add\n      dup1\n      dup4\n      gt\n      tag_167\n      jumpi\n    tag_166:\n      pop\n      pop\n      pop\n      pop\n      pop\n      swap2\n      pop\n        /* \"contracts/Organization.sol\":5839:6070  function getMembers(... */\n      pop\n      swap2\n      swap1\n      pop\n      jump\t// out\n        /* \"contracts/Organization.sol\":3932:4611  function updateOrganization(... */\n    tag_54:\n        /* \"contracts/Organization.sol\":1465:1478  organizations */\n      0x01\n        /* \"contracts/Organization.sol\":1465:1485  organizations.length */\n      sload\n        /* \"contracts/Organization.sol\":4106:4121  _organizationId */\n      dup4\n      swap1\n        /* \"contracts/Organization.sol\":1447:1485  _organizationId < organizations.length */\n      dup2\n      lt\n        /* \"contracts/Organization.sol\":1439:1513  require(_organizationId < organizations.length, \"Invalid organization id\") */\n      tag_169\n      jumpi\n      mload(0x40)\n      shl(0xe5, 0x461bcd)\n      dup2\n      mstore\n      0x04\n      add\n      tag_68\n      swap1\n      tag_69\n      jump\t// in\n    tag_169:\n        /* \"contracts/Organization.sol\":4141:4156  _organizationId */\n      dup4\n        /* \"contracts/Organization.sol\":1626:1639  organizations */\n      0x01\n        /* \"contracts/Organization.sol\":1640:1655  _organizationId */\n      dup2\n        /* \"contracts/Organization.sol\":1626:1656  organizations[_organizationId] */\n      dup2\n      sload\n      dup2\n      lt\n      tag_173\n      jumpi\n      tag_173\n      tag_73\n      jump\t// in\n    tag_173:\n      0x00\n      swap2\n      dup3\n      mstore\n      0x20\n      swap1\n      swap2\n      keccak256\n      0x08\n      swap1\n      swap2\n      mul\n      add\n        /* \"contracts/Organization.sol\":1626:1662  organizations[_organizationId].admin */\n      0x02\n      add\n      sload\n      sub(shl(0xa0, 0x01), 0x01)\n      and\n        /* \"contracts/Organization.sol\":1612:1622  msg.sender */\n      caller\n        /* \"contracts/Organization.sol\":1612:1662  msg.sender == organizations[_organizationId].admin */\n      eq\n        /* \"contracts/Organization.sol\":1591:1726  require(... */\n      tag_175\n      jumpi\n      mload(0x40)\n      shl(0xe5, 0x461bcd)\n      dup2\n      mstore\n      0x04\n      add\n      tag_68\n      swap1\n      tag_97\n      jump\t// in\n    tag_175:\n        /* \"contracts/Organization.sol\":4177:4192  _organizationId */\n      dup5\n        /* \"contracts/Organization.sol\":1826:1839  organizations */\n      0x01\n        /* \"contracts/Organization.sol\":1840:1855  _organizationId */\n      dup2\n        /* \"contracts/Organization.sol\":1826:1856  organizations[_organizationId] */\n      dup2\n      sload\n      dup2\n      lt\n      tag_179\n      jumpi\n      tag_179\n      tag_73\n      jump\t// in\n    tag_179:\n      0x00\n      swap2\n      dup3\n      mstore\n      0x20\n      swap1\n      swap2\n      keccak256\n        /* \"contracts/Organization.sol\":1826:1865  organizations[_organizationId].isActive */\n      0x07\n        /* \"contracts/Organization.sol\":1826:1856  organizations[_organizationId] */\n      0x08\n      swap1\n      swap3\n      mul\n      add\n        /* \"contracts/Organization.sol\":1826:1865  organizations[_organizationId].isActive */\n      add\n      sload\n      0xff\n      and\n        /* \"contracts/Organization.sol\":1805:1915  require(... */\n      tag_181\n      jumpi\n      mload(0x40)\n      shl(0xe5, 0x461bcd)\n      dup2\n      mstore\n        /* \"#utility.yul\":9931:9933   */\n      0x20\n        /* \"contracts/Organization.sol\":1805:1915  require(... */\n      0x04\n      dup3\n      add\n        /* \"#utility.yul\":9913:9934   */\n      mstore\n        /* \"#utility.yul\":9970:9972   */\n      0x18\n        /* \"#utility.yul\":9950:9968   */\n      0x24\n      dup3\n      add\n        /* \"#utility.yul\":9943:9973   */\n      mstore\n      shl(0x40, 0x4f7267616e697a6174696f6e20697320696e616374697665)\n        /* \"#utility.yul\":9989:10007   */\n      0x44\n      dup3\n      add\n        /* \"#utility.yul\":9982:10036   */\n      mstore\n        /* \"#utility.yul\":10053:10071   */\n      0x64\n      add\n        /* \"contracts/Organization.sol\":1805:1915  require(... */\n      tag_68\n        /* \"#utility.yul\":9729:10077   */\n      jump\n        /* \"contracts/Organization.sol\":1805:1915  require(... */\n    tag_181:\n        /* \"contracts/Organization.sol\":4238:4239  0 */\n      0x00\n        /* \"contracts/Organization.sol\":4222:4227  _name */\n      dup6\n        /* \"contracts/Organization.sol\":4216:4235  bytes(_name).length */\n      mload\n        /* \"contracts/Organization.sol\":4216:4239  bytes(_name).length > 0 */\n      gt\n        /* \"contracts/Organization.sol\":4208:4260  require(bytes(_name).length > 0, \"Name is required\") */\n      tag_184\n      jumpi\n      mload(0x40)\n      shl(0xe5, 0x461bcd)\n      dup2\n      mstore\n        /* \"#utility.yul\":12265:12267   */\n      0x20\n        /* \"contracts/Organization.sol\":4208:4260  require(bytes(_name).length > 0, \"Name is required\") */\n      0x04\n      dup3\n      add\n        /* \"#utility.yul\":12247:12268   */\n      mstore\n        /* \"#utility.yul\":12304:12306   */\n      0x10\n        /* \"#utility.yul\":12284:12302   */\n      0x24\n      dup3\n      add\n        /* \"#utility.yul\":12277:12307   */\n      mstore\n      shl(0x82, 0x13985b59481a5cc81c995c5d5a5c9959)\n        /* \"#utility.yul\":12323:12341   */\n      0x44\n      dup3\n      add\n        /* \"#utility.yul\":12316:12362   */\n      mstore\n        /* \"#utility.yul\":12379:12397   */\n      0x64\n      add\n        /* \"contracts/Organization.sol\":4208:4260  require(bytes(_name).length > 0, \"Name is required\") */\n      tag_68\n        /* \"#utility.yul\":12063:12403   */\n      jump\n        /* \"contracts/Organization.sol\":4208:4260  require(bytes(_name).length > 0, \"Name is required\") */\n    tag_184:\n        /* \"contracts/Organization.sol\":4308:4309  0 */\n      0x00\n        /* \"contracts/Organization.sol\":4284:4297  _encryptedUrl */\n      dup5\n        /* \"contracts/Organization.sol\":4278:4305  bytes(_encryptedUrl).length */\n      mload\n        /* \"contracts/Organization.sol\":4278:4309  bytes(_encryptedUrl).length > 0 */\n      gt\n        /* \"contracts/Organization.sol\":4270:4339  require(bytes(_encryptedUrl).length > 0, \"Encrypted URL is required\") */\n      tag_187\n      jumpi\n      mload(0x40)\n      shl(0xe5, 0x461bcd)\n      dup2\n      mstore\n        /* \"#utility.yul\":12610:12612   */\n      0x20\n        /* \"contracts/Organization.sol\":4270:4339  require(bytes(_encryptedUrl).length > 0, \"Encrypted URL is required\") */\n      0x04\n      dup3\n      add\n        /* \"#utility.yul\":12592:12613   */\n      mstore\n        /* \"#utility.yul\":12649:12651   */\n      0x19\n        /* \"#utility.yul\":12629:12647   */\n      0x24\n      dup3\n      add\n        /* \"#utility.yul\":12622:12652   */\n      mstore\n      shl(0x3a, 0x115b98dc9e5c1d195908155493081a5cc81c995c5d5a5c9959)\n        /* \"#utility.yul\":12668:12686   */\n      0x44\n      dup3\n      add\n        /* \"#utility.yul\":12661:12716   */\n      mstore\n        /* \"#utility.yul\":12733:12751   */\n      0x64\n      add\n        /* \"contracts/Organization.sol\":4270:4339  require(bytes(_encryptedUrl).length > 0, \"Encrypted URL is required\") */\n      tag_68\n        /* \"#utility.yul\":12408:12757   */\n      jump\n        /* \"contracts/Organization.sol\":4270:4339  require(bytes(_encryptedUrl).length > 0, \"Encrypted URL is required\") */\n    tag_187:\n        /* \"contracts/Organization.sol\":4388:4393  _name */\n      dup5\n        /* \"contracts/Organization.sol\":4350:4363  organizations */\n      0x01\n        /* \"contracts/Organization.sol\":4364:4379  _organizationId */\n      dup8\n        /* \"contracts/Organization.sol\":4350:4380  organizations[_organizationId] */\n      dup2\n      sload\n      dup2\n      lt\n      tag_191\n      jumpi\n      tag_191\n      tag_73\n      jump\t// in\n    tag_191:\n      swap1\n      0x00\n      mstore\n      keccak256(0x00, 0x20)\n      swap1\n      0x08\n      mul\n      add\n        /* \"contracts/Organization.sol\":4350:4385  organizations[_organizationId].name */\n      0x00\n      add\n        /* \"contracts/Organization.sol\":4350:4393  organizations[_organizationId].name = _name */\n      swap1\n      dup2\n      tag_193\n      swap2\n      swap1\n      tag_194\n      jump\t// in\n    tag_193:\n      pop\n        /* \"contracts/Organization.sol\":4449:4462  _encryptedUrl */\n      dup4\n        /* \"contracts/Organization.sol\":4403:4416  organizations */\n      0x01\n        /* \"contracts/Organization.sol\":4417:4432  _organizationId */\n      dup8\n        /* \"contracts/Organization.sol\":4403:4433  organizations[_organizationId] */\n      dup2\n      sload\n      dup2\n      lt\n      tag_196\n      jumpi\n      tag_196\n      tag_73\n      jump\t// in\n    tag_196:\n      swap1\n      0x00\n      mstore\n      keccak256(0x00, 0x20)\n      swap1\n      0x08\n      mul\n      add\n        /* \"contracts/Organization.sol\":4403:4446  organizations[_organizationId].encryptedUrl */\n      0x06\n      add\n        /* \"contracts/Organization.sol\":4403:4462  organizations[_organizationId].encryptedUrl = _encryptedUrl */\n      swap1\n      dup2\n      tag_198\n      swap2\n      swap1\n      tag_194\n      jump\t// in\n    tag_198:\n      pop\n        /* \"contracts/Organization.sol\":4515:4530  block.timestamp */\n      timestamp\n        /* \"contracts/Organization.sol\":4472:4485  organizations */\n      0x01\n        /* \"contracts/Organization.sol\":4486:4501  _organizationId */\n      dup8\n        /* \"contracts/Organization.sol\":4472:4502  organizations[_organizationId] */\n      dup2\n      sload\n      dup2\n      lt\n      tag_200\n      jumpi\n      tag_200\n      tag_73\n      jump\t// in\n    tag_200:\n      swap1\n      0x00\n      mstore\n      keccak256(0x00, 0x20)\n      swap1\n      0x08\n      mul\n      add\n        /* \"contracts/Organization.sol\":4472:4512  organizations[_organizationId].updatedAt */\n      0x04\n      add\n        /* \"contracts/Organization.sol\":4472:4530  organizations[_organizationId].updatedAt = block.timestamp */\n      dup2\n      swap1\n      sstore\n      pop\n        /* \"contracts/Organization.sol\":4566:4581  _organizationId */\n      dup6\n        /* \"contracts/Organization.sol\":4546:4604  OrganizationUpdated(_organizationId, _name, _encryptedUrl) */\n      0xda238709a4ad4d2d617aa517f02cffdd5b443bc1173fed5aa4bfcc0aa3712293\n        /* \"contracts/Organization.sol\":4583:4588  _name */\n      dup7\n        /* \"contracts/Organization.sol\":4590:4603  _encryptedUrl */\n      dup7\n        /* \"contracts/Organization.sol\":4546:4604  OrganizationUpdated(_organizationId, _name, _encryptedUrl) */\n      mload(0x40)\n      tag_202\n      swap3\n      swap2\n      swap1\n      tag_203\n      jump\t// in\n    tag_202:\n      mload(0x40)\n      dup1\n      swap2\n      sub\n      swap1\n      log2\n        /* \"contracts/Organization.sol\":1736:1737  _ */\n      pop\n        /* \"contracts/Organization.sol\":1523:1524  _ */\n      pop\n        /* \"contracts/Organization.sol\":3932:4611  function updateOrganization(... */\n      pop\n      pop\n      pop\n      pop\n      jump\t// out\n        /* \"contracts/Organization.sol\":411:450  OrganizationData[] public organizations */\n    tag_57:\n      0x01\n      dup2\n      dup2\n      sload\n      dup2\n      lt\n      tag_204\n      jumpi\n      0x00\n      dup1\n      revert\n    tag_204:\n      swap1\n      0x00\n      mstore\n      keccak256(0x00, 0x20)\n      swap1\n      0x08\n      mul\n      add\n      0x00\n      swap2\n      pop\n      swap1\n      pop\n      dup1\n      0x00\n      add\n      dup1\n      sload\n      tag_206\n      swap1\n      tag_76\n      jump\t// in\n    tag_206:\n      dup1\n      0x1f\n      add\n      0x20\n      dup1\n      swap2\n      div\n      mul\n      0x20\n      add\n      mload(0x40)\n      swap1\n      dup2\n      add\n      0x40\n      mstore\n      dup1\n      swap3\n      swap2\n      swap1\n      dup2\n      dup2\n      mstore\n      0x20\n      add\n      dup3\n      dup1\n      sload\n      tag_207\n      swap1\n      tag_76\n      jump\t// in\n    tag_207:\n      dup1\n      iszero\n      tag_208\n      jumpi\n      dup1\n      0x1f\n      lt\n      tag_209\n      jumpi\n      0x0100\n      dup1\n      dup4\n      sload\n      div\n      mul\n      dup4\n      mstore\n      swap2\n      0x20\n      add\n      swap2\n      jump(tag_208)\n    tag_209:\n      dup3\n      add\n      swap2\n      swap1\n      0x00\n      mstore\n      keccak256(0x00, 0x20)\n      swap1\n    tag_210:\n      dup2\n      sload\n      dup2\n      mstore\n      swap1\n      0x01\n      add\n      swap1\n      0x20\n      add\n      dup1\n      dup4\n      gt\n      tag_210\n      jumpi\n      dup3\n      swap1\n      sub\n      0x1f\n      and\n      dup3\n      add\n      swap2\n    tag_208:\n      pop\n      pop\n      pop\n      0x01\n      dup5\n      add\n      sload\n      0x02\n      dup6\n      add\n      sload\n      0x03\n      dup7\n      add\n      sload\n      0x04\n      dup8\n      add\n      sload\n      0x06\n      dup9\n      add\n      dup1\n      sload\n      swap8\n      swap9\n      sub(shl(0xa0, 0x01), 0x01)\n      swap6\n      dup7\n      and\n      swap9\n      swap5\n      swap1\n      swap6\n      and\n      swap7\n      pop\n      swap2\n      swap5\n      pop\n      swap3\n      swap2\n      tag_211\n      swap1\n      tag_76\n      jump\t// in\n    tag_211:\n      dup1\n      0x1f\n      add\n      0x20\n      dup1\n      swap2\n      div\n      mul\n      0x20\n      add\n      mload(0x40)\n      swap1\n      dup2\n      add\n      0x40\n      mstore\n      dup1\n      swap3\n      swap2\n      swap1\n      dup2\n      dup2\n      mstore\n      0x20\n      add\n      dup3\n      dup1\n      sload\n      tag_212\n      swap1\n      tag_76\n      jump\t// in\n    tag_212:\n      dup1\n      iszero\n      tag_213\n      jumpi\n      dup1\n      0x1f\n      lt\n      tag_214\n      jumpi\n      0x0100\n      dup1\n      dup4\n      sload\n      div\n      mul\n      dup4\n      mstore\n      swap2\n      0x20\n      add\n      swap2\n      jump(tag_213)\n    tag_214:\n      dup3\n      add\n      swap2\n      swap1\n      0x00\n      mstore\n      keccak256(0x00, 0x20)\n      swap1\n    tag_215:\n      dup2\n      sload\n      dup2\n      mstore\n      swap1\n      0x01\n      add\n      swap1\n      0x20\n      add\n      dup1\n      dup4\n      gt\n      tag_215\n      jumpi\n      dup3\n      swap1\n      sub\n      0x1f\n      and\n      dup3\n      add\n      swap2\n    tag_213:\n      pop\n      pop\n      pop\n      0x07\n      swap1\n      swap4\n      add\n      sload\n      swap2\n      swap3\n      pop\n      pop\n      0xff\n      and\n      dup8\n      jump\t// out\n        /* \"contracts/Organization.sol\":2075:3188  function createOrganization(... */\n    tag_63:\n        /* \"contracts/Organization.sol\":2253:2254  0 */\n      0x00\n        /* \"contracts/Organization.sol\":2237:2242  _name */\n      dup4\n        /* \"contracts/Organization.sol\":2231:2250  bytes(_name).length */\n      mload\n        /* \"contracts/Organization.sol\":2231:2254  bytes(_name).length > 0 */\n      gt\n        /* \"contracts/Organization.sol\":2223:2275  require(bytes(_name).length > 0, \"Name is required\") */\n      tag_217\n      jumpi\n      mload(0x40)\n      shl(0xe5, 0x461bcd)\n      dup2\n      mstore\n        /* \"#utility.yul\":12265:12267   */\n      0x20\n        /* \"contracts/Organization.sol\":2223:2275  require(bytes(_name).length > 0, \"Name is required\") */\n      0x04\n      dup3\n      add\n        /* \"#utility.yul\":12247:12268   */\n      mstore\n        /* \"#utility.yul\":12304:12306   */\n      0x10\n        /* \"#utility.yul\":12284:12302   */\n      0x24\n      dup3\n      add\n        /* \"#utility.yul\":12277:12307   */\n      mstore\n      shl(0x82, 0x13985b59481a5cc81c995c5d5a5c9959)\n        /* \"#utility.yul\":12323:12341   */\n      0x44\n      dup3\n      add\n        /* \"#utility.yul\":12316:12362   */\n      mstore\n        /* \"#utility.yul\":12379:12397   */\n      0x64\n      add\n        /* \"contracts/Organization.sol\":2223:2275  require(bytes(_name).length > 0, \"Name is required\") */\n      tag_68\n        /* \"#utility.yul\":12063:12403   */\n      jump\n        /* \"contracts/Organization.sol\":2223:2275  require(bytes(_name).length > 0, \"Name is required\") */\n    tag_217:\n      sub(shl(0xa0, 0x01), 0x01)\n        /* \"contracts/Organization.sol\":2293:2320  _organization != address(0) */\n      dup3\n      and\n        /* \"contracts/Organization.sol\":2285:2353  require(_organization != address(0), \"Invalid organization address\") */\n      tag_219\n      jumpi\n      mload(0x40)\n      shl(0xe5, 0x461bcd)\n      dup2\n      mstore\n        /* \"#utility.yul\":15476:15478   */\n      0x20\n        /* \"contracts/Organization.sol\":2285:2353  require(_organization != address(0), \"Invalid organization address\") */\n      0x04\n      dup3\n      add\n        /* \"#utility.yul\":15458:15479   */\n      mstore\n        /* \"#utility.yul\":15515:15517   */\n      0x1c\n        /* \"#utility.yul\":15495:15513   */\n      0x24\n      dup3\n      add\n        /* \"#utility.yul\":15488:15518   */\n      mstore\n        /* \"#utility.yul\":15554:15584   */\n      0x496e76616c6964206f7267616e697a6174696f6e206164647265737300000000\n        /* \"#utility.yul\":15534:15552   */\n      0x44\n      dup3\n      add\n        /* \"#utility.yul\":15527:15585   */\n      mstore\n        /* \"#utility.yul\":15602:15620   */\n      0x64\n      add\n        /* \"contracts/Organization.sol\":2285:2353  require(_organization != address(0), \"Invalid organization address\") */\n      tag_68\n        /* \"#utility.yul\":15274:15626   */\n      jump\n        /* \"contracts/Organization.sol\":2285:2353  require(_organization != address(0), \"Invalid organization address\") */\n    tag_219:\n        /* \"contracts/Organization.sol\":2401:2402  0 */\n      0x00\n        /* \"contracts/Organization.sol\":2377:2390  _encryptedUrl */\n      dup2\n        /* \"contracts/Organization.sol\":2371:2398  bytes(_encryptedUrl).length */\n      mload\n        /* \"contracts/Organization.sol\":2371:2402  bytes(_encryptedUrl).length > 0 */\n      gt\n        /* \"contracts/Organization.sol\":2363:2432  require(bytes(_encryptedUrl).length > 0, \"Encrypted URL is required\") */\n      tag_222\n      jumpi\n      mload(0x40)\n      shl(0xe5, 0x461bcd)\n      dup2\n      mstore\n        /* \"#utility.yul\":12610:12612   */\n      0x20\n        /* \"contracts/Organization.sol\":2363:2432  require(bytes(_encryptedUrl).length > 0, \"Encrypted URL is required\") */\n      0x04\n      dup3\n      add\n        /* \"#utility.yul\":12592:12613   */\n      mstore\n        /* \"#utility.yul\":12649:12651   */\n      0x19\n        /* \"#utility.yul\":12629:12647   */\n      0x24\n      dup3\n      add\n        /* \"#utility.yul\":12622:12652   */\n      mstore\n      shl(0x3a, 0x115b98dc9e5c1d195908155493081a5cc81c995c5d5a5c9959)\n        /* \"#utility.yul\":12668:12686   */\n      0x44\n      dup3\n      add\n        /* \"#utility.yul\":12661:12716   */\n      mstore\n        /* \"#utility.yul\":12733:12751   */\n      0x64\n      add\n        /* \"contracts/Organization.sol\":2363:2432  require(bytes(_encryptedUrl).length > 0, \"Encrypted URL is required\") */\n      tag_68\n        /* \"#utility.yul\":12408:12757   */\n      jump\n        /* \"contracts/Organization.sol\":2363:2432  require(bytes(_encryptedUrl).length > 0, \"Encrypted URL is required\") */\n    tag_222:\n        /* \"contracts/Organization.sol\":2443:2456  organizations */\n      0x01\n        /* \"contracts/Organization.sol\":2475:2824  OrganizationData({... */\n      mload(0x40)\n      dup1\n      0x0100\n      add\n      0x40\n      mstore\n      dup1\n        /* \"contracts/Organization.sol\":2516:2521  _name */\n      dup6\n        /* \"contracts/Organization.sol\":2475:2824  OrganizationData({... */\n      dup2\n      mstore\n      0x20\n      add\n        /* \"contracts/Organization.sol\":2553:2566  _organization */\n      dup5\n      sub(shl(0xa0, 0x01), 0x01)\n        /* \"contracts/Organization.sol\":2475:2824  OrganizationData({... */\n      and\n      dup2\n      mstore\n      0x20\n      add\n        /* \"contracts/Organization.sol\":2591:2601  msg.sender */\n      caller\n      sub(shl(0xa0, 0x01), 0x01)\n        /* \"contracts/Organization.sol\":2475:2824  OrganizationData({... */\n      and\n      dup2\n      mstore\n      0x20\n      add\n        /* \"contracts/Organization.sol\":2630:2645  block.timestamp */\n      timestamp\n        /* \"contracts/Organization.sol\":2475:2824  OrganizationData({... */\n      dup2\n      mstore\n      0x20\n      add\n        /* \"contracts/Organization.sol\":2674:2689  block.timestamp */\n      timestamp\n        /* \"contracts/Organization.sol\":2475:2824  OrganizationData({... */\n      dup2\n      mstore\n      0x20\n      add\n        /* \"contracts/Organization.sol\":2730:2731  0 */\n      0x00\n        /* \"contracts/Organization.sol\":2716:2732  new address[](0) */\n      0xffffffffffffffff\n      dup2\n      gt\n      iszero\n      tag_225\n      jumpi\n      tag_225\n      tag_226\n      jump\t// in\n    tag_225:\n      mload(0x40)\n      swap1\n      dup1\n      dup3\n      mstore\n      dup1\n      0x20\n      mul\n      0x20\n      add\n      dup3\n      add\n      0x40\n      mstore\n      dup1\n      iszero\n      tag_227\n      jumpi\n      dup2\n      0x20\n      add\n      0x20\n      dup3\n      mul\n      dup1\n      calldatasize\n      dup4\n      calldatacopy\n      add\n      swap1\n      pop\n    tag_227:\n      pop\n        /* \"contracts/Organization.sol\":2475:2824  OrganizationData({... */\n      dup2\n      mstore\n      0x20\n      dup1\n      dup3\n      add\n      dup6\n      swap1\n      mstore\n        /* \"contracts/Organization.sol\":2805:2809  true */\n      0x01\n        /* \"contracts/Organization.sol\":2475:2824  OrganizationData({... */\n      0x40\n      swap1\n      swap3\n      add\n      dup3\n      swap1\n      mstore\n        /* \"contracts/Organization.sol\":2443:2834  organizations.push(... */\n      dup4\n      sload\n      swap2\n      dup3\n      add\n      dup5\n      sstore\n      0x00\n      swap4\n      dup5\n      mstore\n      swap1\n      swap3\n      keccak256\n      dup2\n      mload\n      swap2\n      swap3\n      0x08\n      mul\n      add\n      swap1\n      dup2\n      swap1\n      tag_229\n      swap1\n      dup3\n      tag_194\n      jump\t// in\n    tag_229:\n      pop\n      0x20\n      dup3\n      dup2\n      add\n      mload\n      0x01\n      dup4\n      add\n      dup1\n      sload\n      sub(shl(0xa0, 0x01), 0x01)\n      swap3\n      dup4\n      and\n      not(sub(shl(0xa0, 0x01), 0x01))\n      swap2\n      dup3\n      and\n      or\n      swap1\n      swap2\n      sstore\n      0x40\n      dup6\n      add\n      mload\n      0x02\n      dup6\n      add\n      dup1\n      sload\n      swap2\n      swap1\n      swap4\n      and\n      swap2\n      and\n      or\n      swap1\n      sstore\n      0x60\n      dup4\n      add\n      mload\n      0x03\n      dup4\n      add\n      sstore\n      0x80\n      dup4\n      add\n      mload\n      0x04\n      dup4\n      add\n      sstore\n      0xa0\n      dup4\n      add\n      mload\n      dup1\n      mload\n      tag_230\n      swap3\n      0x05\n      dup6\n      add\n      swap3\n      add\n      swap1\n      tag_231\n      jump\t// in\n    tag_230:\n      pop\n      0xc0\n      dup3\n      add\n      mload\n      0x06\n      dup3\n      add\n      swap1\n      tag_232\n      swap1\n      dup3\n      tag_194\n      jump\t// in\n    tag_232:\n      pop\n      0xe0\n      swap2\n      swap1\n      swap2\n      add\n      mload\n      0x07\n      swap1\n      swap2\n      add\n      dup1\n      sload\n      not(0xff)\n      and\n      swap2\n      iszero\n      iszero\n      swap2\n      swap1\n      swap2\n      or\n      swap1\n      sstore\n      0x01\n        /* \"contracts/Organization.sol\":2870:2890  organizations.length */\n      dup1\n      sload\n      0x00\n      swap2\n        /* \"contracts/Organization.sol\":2870:2894  organizations.length - 1 */\n      tag_233\n      swap2\n      tag_234\n      jump\t// in\n    tag_233:\n        /* \"contracts/Organization.sol\":2845:2894  uint256 organizationId = organizations.length - 1 */\n      swap1\n      pop\n        /* \"contracts/Organization.sol\":2905:2918  organizations */\n      0x01\n        /* \"contracts/Organization.sol\":2919:2933  organizationId */\n      dup2\n        /* \"contracts/Organization.sol\":2905:2934  organizations[organizationId] */\n      dup2\n      sload\n      dup2\n      lt\n      tag_236\n      jumpi\n      tag_236\n      tag_73\n      jump\t// in\n    tag_236:\n      0x00\n      swap2\n      dup3\n      mstore\n      0x20\n      dup1\n      dup4\n      keccak256\n        /* \"contracts/Organization.sol\":2905:2942  organizations[organizationId].members */\n      0x05\n        /* \"contracts/Organization.sol\":2905:2934  organizations[organizationId] */\n      0x08\n      swap1\n      swap4\n      mul\n      add\n        /* \"contracts/Organization.sol\":2905:2942  organizations[organizationId].members */\n      swap2\n      swap1\n      swap2\n      add\n        /* \"contracts/Organization.sol\":2905:2959  organizations[organizationId].members.push(msg.sender) */\n      dup1\n      sload\n      0x01\n      dup2\n      dup2\n      add\n      dup4\n      sstore\n      swap2\n      dup5\n      mstore\n      dup3\n      dup5\n      keccak256\n      add\n      dup1\n      sload\n      not(sub(shl(0xa0, 0x01), 0x01))\n      and\n        /* \"contracts/Organization.sol\":2948:2958  msg.sender */\n      caller\n        /* \"contracts/Organization.sol\":2905:2959  organizations[organizationId].members.push(msg.sender) */\n      swap1\n      dup2\n      or\n      swap1\n      swap2\n      sstore\n        /* \"contracts/Organization.sol\":2969:2993  isMember[organizationId] */\n      dup5\n      dup5\n      mstore\n        /* \"contracts/Organization.sol\":2969:2977  isMember */\n      0x02\n        /* \"contracts/Organization.sol\":2969:2993  isMember[organizationId] */\n      dup4\n      mstore\n      0x40\n      dup1\n      dup6\n      keccak256\n        /* \"contracts/Organization.sol\":2969:3005  isMember[organizationId][msg.sender] */\n      swap2\n      dup6\n      mstore\n      swap3\n      mstore\n      swap1\n      dup3\n      keccak256\n        /* \"contracts/Organization.sol\":2969:3012  isMember[organizationId][msg.sender] = true */\n      dup1\n      sload\n      not(0xff)\n      and\n      swap1\n      swap2\n      or\n      swap1\n      sstore\n        /* \"contracts/Organization.sol\":3023:3049  ++activeOrganizationsCount */\n      dup1\n      sload\n        /* \"contracts/Organization.sol\":2905:2934  organizations[organizationId] */\n      dup2\n      swap1\n        /* \"contracts/Organization.sol\":3023:3049  ++activeOrganizationsCount */\n      tag_239\n      swap1\n      tag_240\n      jump\t// in\n    tag_239:\n      swap1\n      swap2\n      sstore\n      pop\n        /* \"contracts/Organization.sol\":3065:3119  OrganizationCreated(organizationId, msg.sender, _name) */\n      mload(0x40)\n        /* \"contracts/Organization.sol\":3101:3111  msg.sender */\n      caller\n      swap1\n        /* \"contracts/Organization.sol\":3085:3099  organizationId */\n      dup3\n      swap1\n        /* \"contracts/Organization.sol\":3065:3119  OrganizationCreated(organizationId, msg.sender, _name) */\n      0x738a6c19c1f9d0875478754c8c4811baa12949f287f2385e1092efef86be9f79\n      swap1\n      tag_241\n      swap1\n        /* \"contracts/Organization.sol\":3113:3118  _name */\n      dup9\n      swap1\n        /* \"contracts/Organization.sol\":3065:3119  OrganizationCreated(organizationId, msg.sender, _name) */\n      tag_158\n      jump\t// in\n    tag_241:\n      mload(0x40)\n      dup1\n      swap2\n      sub\n      swap1\n      log3\n        /* \"contracts/Organization.sol\":3134:3181  OrganizationStatusChanged(organizationId, true) */\n      mload(0x40)\n        /* \"contracts/Organization.sol\":3176:3180  true */\n      0x01\n        /* \"#utility.yul\":3315:3356   */\n      dup2\n      mstore\n        /* \"contracts/Organization.sol\":3160:3174  organizationId */\n      dup2\n      swap1\n        /* \"contracts/Organization.sol\":3134:3181  OrganizationStatusChanged(organizationId, true) */\n      0x1f5eef396f0126db889cd46f4ca63a15cc149b1eb0539888878f748a76297711\n      swap1\n        /* \"#utility.yul\":3303:3305   */\n      0x20\n        /* \"#utility.yul\":3288:3306   */\n      add\n        /* \"contracts/Organization.sol\":3134:3181  OrganizationStatusChanged(organizationId, true) */\n      mload(0x40)\n      dup1\n      swap2\n      sub\n      swap1\n      log2\n        /* \"contracts/Organization.sol\":2213:3188  {... */\n      pop\n        /* \"contracts/Organization.sol\":2075:3188  function createOrganization(... */\n      pop\n      pop\n      pop\n      jump\t// out\n    tag_231:\n      dup3\n      dup1\n      sload\n      dup3\n      dup3\n      sstore\n      swap1\n      0x00\n      mstore\n      keccak256(0x00, 0x20)\n      swap1\n      dup2\n      add\n      swap3\n      dup3\n      iszero\n      tag_245\n      jumpi\n      swap2\n      0x20\n      mul\n      dup3\n      add\n    tag_244:\n      dup3\n      dup2\n      gt\n      iszero\n      tag_245\n      jumpi\n      dup3\n      mload\n      dup3\n      sload\n      not(sub(shl(0xa0, 0x01), 0x01))\n      and\n      sub(shl(0xa0, 0x01), 0x01)\n      swap1\n      swap2\n      and\n      or\n      dup3\n      sstore\n      0x20\n      swap1\n      swap3\n      add\n      swap2\n      0x01\n      swap1\n      swap2\n      add\n      swap1\n      jump(tag_244)\n    tag_245:\n      pop\n      tag_246\n      swap3\n      swap2\n      pop\n      tag_247\n      jump\t// in\n    tag_246:\n      pop\n      swap1\n      jump\t// out\n    tag_247:\n    tag_248:\n      dup1\n      dup3\n      gt\n      iszero\n      tag_246\n      jumpi\n      0x00\n      dup2\n      sstore\n      0x01\n      add\n      jump(tag_248)\n        /* \"#utility.yul\":196:422   */\n    tag_21:\n        /* \"#utility.yul\":255:261   */\n      0x00\n        /* \"#utility.yul\":308:310   */\n      0x20\n        /* \"#utility.yul\":296:305   */\n      dup3\n        /* \"#utility.yul\":287:294   */\n      dup5\n        /* \"#utility.yul\":283:306   */\n      sub\n        /* \"#utility.yul\":279:311   */\n      slt\n        /* \"#utility.yul\":276:328   */\n      iszero\n      tag_264\n      jumpi\n        /* \"#utility.yul\":324:325   */\n      0x00\n        /* \"#utility.yul\":321:322   */\n      0x00\n        /* \"#utility.yul\":314:326   */\n      revert\n        /* \"#utility.yul\":276:328   */\n    tag_264:\n      pop\n        /* \"#utility.yul\":369:392   */\n      calldataload\n      swap2\n        /* \"#utility.yul\":196:422   */\n      swap1\n      pop\n      jump\t// out\n        /* \"#utility.yul\":427:716   */\n    tag_250:\n        /* \"#utility.yul\":469:472   */\n      0x00\n        /* \"#utility.yul\":507:512   */\n      dup2\n        /* \"#utility.yul\":501:513   */\n      mload\n        /* \"#utility.yul\":534:540   */\n      dup1\n        /* \"#utility.yul\":529:532   */\n      dup5\n        /* \"#utility.yul\":522:541   */\n      mstore\n        /* \"#utility.yul\":590:596   */\n      dup1\n        /* \"#utility.yul\":583:587   */\n      0x20\n        /* \"#utility.yul\":576:581   */\n      dup5\n        /* \"#utility.yul\":572:588   */\n      add\n        /* \"#utility.yul\":565:569   */\n      0x20\n        /* \"#utility.yul\":560:563   */\n      dup7\n        /* \"#utility.yul\":556:570   */\n      add\n        /* \"#utility.yul\":550:597   */\n      mcopy\n        /* \"#utility.yul\":642:643   */\n      0x00\n        /* \"#utility.yul\":635:639   */\n      0x20\n        /* \"#utility.yul\":626:632   */\n      dup3\n        /* \"#utility.yul\":621:624   */\n      dup7\n        /* \"#utility.yul\":617:633   */\n      add\n        /* \"#utility.yul\":613:640   */\n      add\n        /* \"#utility.yul\":606:644   */\n      mstore\n        /* \"#utility.yul\":705:709   */\n      0x20\n        /* \"#utility.yul\":698:700   */\n      0x1f\n        /* \"#utility.yul\":694:701   */\n      not\n        /* \"#utility.yul\":689:691   */\n      0x1f\n        /* \"#utility.yul\":681:687   */\n      dup4\n        /* \"#utility.yul\":677:692   */\n      add\n        /* \"#utility.yul\":673:702   */\n      and\n        /* \"#utility.yul\":668:671   */\n      dup6\n        /* \"#utility.yul\":664:703   */\n      add\n        /* \"#utility.yul\":660:710   */\n      add\n        /* \"#utility.yul\":653:710   */\n      swap2\n      pop\n      pop\n        /* \"#utility.yul\":427:716   */\n      swap3\n      swap2\n      pop\n      pop\n      jump\t// out\n        /* \"#utility.yul\":830:1276   */\n    tag_252:\n        /* \"#utility.yul\":883:886   */\n      0x00\n        /* \"#utility.yul\":921:926   */\n      dup2\n        /* \"#utility.yul\":915:927   */\n      mload\n        /* \"#utility.yul\":948:954   */\n      dup1\n        /* \"#utility.yul\":943:946   */\n      dup5\n        /* \"#utility.yul\":936:955   */\n      mstore\n        /* \"#utility.yul\":980:984   */\n      0x20\n        /* \"#utility.yul\":975:978   */\n      dup5\n        /* \"#utility.yul\":971:985   */\n      add\n        /* \"#utility.yul\":964:985   */\n      swap4\n      pop\n        /* \"#utility.yul\":1019:1023   */\n      0x20\n        /* \"#utility.yul\":1012:1017   */\n      dup4\n        /* \"#utility.yul\":1008:1024   */\n      add\n        /* \"#utility.yul\":1042:1043   */\n      0x00\n        /* \"#utility.yul\":1052:1251   */\n    tag_268:\n        /* \"#utility.yul\":1066:1072   */\n      dup3\n        /* \"#utility.yul\":1063:1064   */\n      dup2\n        /* \"#utility.yul\":1060:1073   */\n      lt\n        /* \"#utility.yul\":1052:1251   */\n      iszero\n      tag_270\n      jumpi\n        /* \"#utility.yul\":1131:1144   */\n      dup2\n      mload\n      sub(shl(0xa0, 0x01), 0x01)\n        /* \"#utility.yul\":1127:1166   */\n      and\n        /* \"#utility.yul\":1115:1167   */\n      dup7\n      mstore\n        /* \"#utility.yul\":1196:1200   */\n      0x20\n        /* \"#utility.yul\":1187:1201   */\n      swap6\n      dup7\n      add\n      swap6\n        /* \"#utility.yul\":1224:1241   */\n      swap1\n      swap2\n      add\n      swap1\n        /* \"#utility.yul\":1163:1164   */\n      0x01\n        /* \"#utility.yul\":1081:1090   */\n      add\n        /* \"#utility.yul\":1052:1251   */\n      jump(tag_268)\n    tag_270:\n      pop\n        /* \"#utility.yul\":1267:1270   */\n      swap4\n      swap5\n        /* \"#utility.yul\":830:1276   */\n      swap4\n      pop\n      pop\n      pop\n      pop\n      jump\t// out\n        /* \"#utility.yul\":1377:2401   */\n    tag_254:\n        /* \"#utility.yul\":1436:1439   */\n      0x00\n        /* \"#utility.yul\":1480:1485   */\n      dup2\n        /* \"#utility.yul\":1474:1486   */\n      mload\n        /* \"#utility.yul\":1507:1513   */\n      0x0100\n        /* \"#utility.yul\":1502:1505   */\n      dup5\n        /* \"#utility.yul\":1495:1514   */\n      mstore\n        /* \"#utility.yul\":1535:1584   */\n      tag_273\n        /* \"#utility.yul\":1576:1582   */\n      0x0100\n        /* \"#utility.yul\":1571:1574   */\n      dup6\n        /* \"#utility.yul\":1567:1583   */\n      add\n        /* \"#utility.yul\":1553:1565   */\n      dup3\n        /* \"#utility.yul\":1535:1584   */\n      tag_250\n      jump\t// in\n    tag_273:\n        /* \"#utility.yul\":1523:1584   */\n      swap1\n      pop\n        /* \"#utility.yul\":1632:1636   */\n      0x20\n        /* \"#utility.yul\":1625:1630   */\n      dup4\n        /* \"#utility.yul\":1621:1637   */\n      add\n        /* \"#utility.yul\":1615:1638   */\n      mload\n        /* \"#utility.yul\":1647:1697   */\n      tag_274\n        /* \"#utility.yul\":1691:1695   */\n      0x20\n        /* \"#utility.yul\":1686:1689   */\n      dup7\n        /* \"#utility.yul\":1682:1696   */\n      add\n        /* \"#utility.yul\":1666:1680   */\n      dup3\n      sub(shl(0xa0, 0x01), 0x01)\n        /* \"#utility.yul\":787:818   */\n      and\n        /* \"#utility.yul\":775:819   */\n      swap1\n      mstore\n        /* \"#utility.yul\":721:825   */\n      jump\n        /* \"#utility.yul\":1647:1697   */\n    tag_274:\n      pop\n        /* \"#utility.yul\":1745:1749   */\n      0x40\n        /* \"#utility.yul\":1738:1743   */\n      dup4\n        /* \"#utility.yul\":1734:1750   */\n      add\n        /* \"#utility.yul\":1728:1751   */\n      mload\n        /* \"#utility.yul\":1760:1810   */\n      tag_275\n        /* \"#utility.yul\":1804:1808   */\n      0x40\n        /* \"#utility.yul\":1799:1802   */\n      dup7\n        /* \"#utility.yul\":1795:1809   */\n      add\n        /* \"#utility.yul\":1779:1793   */\n      dup3\n      sub(shl(0xa0, 0x01), 0x01)\n        /* \"#utility.yul\":787:818   */\n      and\n        /* \"#utility.yul\":775:819   */\n      swap1\n      mstore\n        /* \"#utility.yul\":721:825   */\n      jump\n        /* \"#utility.yul\":1760:1810   */\n    tag_275:\n      pop\n        /* \"#utility.yul\":1859:1863   */\n      0x60\n        /* \"#utility.yul\":1852:1857   */\n      dup4\n        /* \"#utility.yul\":1848:1864   */\n      add\n        /* \"#utility.yul\":1842:1865   */\n      mload\n        /* \"#utility.yul\":1835:1839   */\n      0x60\n        /* \"#utility.yul\":1830:1833   */\n      dup6\n        /* \"#utility.yul\":1826:1840   */\n      add\n        /* \"#utility.yul\":1819:1866   */\n      mstore\n        /* \"#utility.yul\":1915:1919   */\n      0x80\n        /* \"#utility.yul\":1908:1913   */\n      dup4\n        /* \"#utility.yul\":1904:1920   */\n      add\n        /* \"#utility.yul\":1898:1921   */\n      mload\n        /* \"#utility.yul\":1891:1895   */\n      0x80\n        /* \"#utility.yul\":1886:1889   */\n      dup6\n        /* \"#utility.yul\":1882:1896   */\n      add\n        /* \"#utility.yul\":1875:1922   */\n      mstore\n        /* \"#utility.yul\":1970:1974   */\n      0xa0\n        /* \"#utility.yul\":1963:1968   */\n      dup4\n        /* \"#utility.yul\":1959:1975   */\n      add\n        /* \"#utility.yul\":1953:1976   */\n      mload\n        /* \"#utility.yul\":2018:2021   */\n      dup5\n        /* \"#utility.yul\":2012:2016   */\n      dup3\n        /* \"#utility.yul\":2008:2022   */\n      sub\n        /* \"#utility.yul\":2001:2005   */\n      0xa0\n        /* \"#utility.yul\":1996:1999   */\n      dup7\n        /* \"#utility.yul\":1992:2006   */\n      add\n        /* \"#utility.yul\":1985:2023   */\n      mstore\n        /* \"#utility.yul\":2046:2096   */\n      tag_276\n        /* \"#utility.yul\":2091:2095   */\n      dup3\n        /* \"#utility.yul\":2075:2089   */\n      dup3\n        /* \"#utility.yul\":2046:2096   */\n      tag_252\n      jump\t// in\n    tag_276:\n        /* \"#utility.yul\":2032:2096   */\n      swap2\n      pop\n      pop\n        /* \"#utility.yul\":2144:2148   */\n      0xc0\n        /* \"#utility.yul\":2137:2142   */\n      dup4\n        /* \"#utility.yul\":2133:2149   */\n      add\n        /* \"#utility.yul\":2127:2150   */\n      mload\n        /* \"#utility.yul\":2194:2197   */\n      dup5\n        /* \"#utility.yul\":2186:2192   */\n      dup3\n        /* \"#utility.yul\":2182:2198   */\n      sub\n        /* \"#utility.yul\":2175:2179   */\n      0xc0\n        /* \"#utility.yul\":2170:2173   */\n      dup7\n        /* \"#utility.yul\":2166:2180   */\n      add\n        /* \"#utility.yul\":2159:2199   */\n      mstore\n        /* \"#utility.yul\":2222:2263   */\n      tag_277\n        /* \"#utility.yul\":2256:2262   */\n      dup3\n        /* \"#utility.yul\":2240:2254   */\n      dup3\n        /* \"#utility.yul\":2222:2263   */\n      tag_250\n      jump\t// in\n    tag_277:\n        /* \"#utility.yul\":2208:2263   */\n      swap2\n      pop\n      pop\n        /* \"#utility.yul\":2311:2315   */\n      0xe0\n        /* \"#utility.yul\":2304:2309   */\n      dup4\n        /* \"#utility.yul\":2300:2316   */\n      add\n        /* \"#utility.yul\":2294:2317   */\n      mload\n        /* \"#utility.yul\":2326:2373   */\n      tag_278\n        /* \"#utility.yul\":2367:2371   */\n      0xe0\n        /* \"#utility.yul\":2362:2365   */\n      dup7\n        /* \"#utility.yul\":2358:2372   */\n      add\n        /* \"#utility.yul\":2342:2356   */\n      dup3\n        /* \"#utility.yul\":1351:1364   */\n      iszero\n        /* \"#utility.yul\":1344:1365   */\n      iszero\n        /* \"#utility.yul\":1332:1366   */\n      swap1\n      mstore\n        /* \"#utility.yul\":1281:1372   */\n      jump\n        /* \"#utility.yul\":2326:2373   */\n    tag_278:\n      pop\n        /* \"#utility.yul\":2389:2395   */\n      swap4\n        /* \"#utility.yul\":1377:2401   */\n      swap3\n      pop\n      pop\n      pop\n      jump\t// out\n        /* \"#utility.yul\":2406:2687   */\n    tag_24:\n        /* \"#utility.yul\":2599:2601   */\n      0x20\n        /* \"#utility.yul\":2588:2597   */\n      dup2\n        /* \"#utility.yul\":2581:2602   */\n      mstore\n        /* \"#utility.yul\":2562:2566   */\n      0x00\n        /* \"#utility.yul\":2619:2681   */\n      tag_280\n        /* \"#utility.yul\":2677:2679   */\n      0x20\n        /* \"#utility.yul\":2666:2675   */\n      dup4\n        /* \"#utility.yul\":2662:2680   */\n      add\n        /* \"#utility.yul\":2654:2660   */\n      dup5\n        /* \"#utility.yul\":2619:2681   */\n      tag_254\n      jump\t// in\n    tag_280:\n        /* \"#utility.yul\":2611:2681   */\n      swap4\n        /* \"#utility.yul\":2406:2687   */\n      swap3\n      pop\n      pop\n      pop\n      jump\t// out\n        /* \"#utility.yul\":2692:2865   */\n    tag_255:\n        /* \"#utility.yul\":2760:2780   */\n      dup1\n      calldataload\n      sub(shl(0xa0, 0x01), 0x01)\n        /* \"#utility.yul\":2809:2840   */\n      dup2\n      and\n        /* \"#utility.yul\":2799:2841   */\n      dup2\n      eq\n        /* \"#utility.yul\":2789:2859   */\n      tag_282\n      jumpi\n        /* \"#utility.yul\":2855:2856   */\n      0x00\n        /* \"#utility.yul\":2852:2853   */\n      0x00\n        /* \"#utility.yul\":2845:2857   */\n      revert\n        /* \"#utility.yul\":2789:2859   */\n    tag_282:\n        /* \"#utility.yul\":2692:2865   */\n      swap2\n      swap1\n      pop\n      jump\t// out\n        /* \"#utility.yul\":2870:3170   */\n    tag_27:\n        /* \"#utility.yul\":2938:2944   */\n      0x00\n        /* \"#utility.yul\":2946:2952   */\n      0x00\n        /* \"#utility.yul\":2999:3001   */\n      0x40\n        /* \"#utility.yul\":2987:2996   */\n      dup4\n        /* \"#utility.yul\":2978:2985   */\n      dup6\n        /* \"#utility.yul\":2974:2997   */\n      sub\n        /* \"#utility.yul\":2970:3002   */\n      slt\n        /* \"#utility.yul\":2967:3019   */\n      iszero\n      tag_284\n      jumpi\n        /* \"#utility.yul\":3015:3016   */\n      0x00\n        /* \"#utility.yul\":3012:3013   */\n      0x00\n        /* \"#utility.yul\":3005:3017   */\n      revert\n        /* \"#utility.yul\":2967:3019   */\n    tag_284:\n        /* \"#utility.yul\":3060:3083   */\n      dup3\n      calldataload\n      swap2\n      pop\n        /* \"#utility.yul\":3126:3164   */\n      tag_285\n        /* \"#utility.yul\":3160:3162   */\n      0x20\n        /* \"#utility.yul\":3145:3163   */\n      dup5\n      add\n        /* \"#utility.yul\":3126:3164   */\n      tag_255\n      jump\t// in\n    tag_285:\n        /* \"#utility.yul\":3116:3164   */\n      swap1\n      pop\n        /* \"#utility.yul\":2870:3170   */\n      swap3\n      pop\n      swap3\n      swap1\n      pop\n      jump\t// out\n        /* \"#utility.yul\":3575:4418   */\n    tag_41:\n        /* \"#utility.yul\":3781:3785   */\n      0x00\n        /* \"#utility.yul\":3829:3831   */\n      0x20\n        /* \"#utility.yul\":3818:3827   */\n      dup3\n        /* \"#utility.yul\":3814:3832   */\n      add\n        /* \"#utility.yul\":3859:3861   */\n      0x20\n        /* \"#utility.yul\":3848:3857   */\n      dup4\n        /* \"#utility.yul\":3841:3862   */\n      mstore\n        /* \"#utility.yul\":3882:3888   */\n      dup1\n        /* \"#utility.yul\":3917:3923   */\n      dup5\n        /* \"#utility.yul\":3911:3924   */\n      mload\n        /* \"#utility.yul\":3948:3954   */\n      dup1\n        /* \"#utility.yul\":3940:3946   */\n      dup4\n        /* \"#utility.yul\":3933:3955   */\n      mstore\n        /* \"#utility.yul\":3986:3988   */\n      0x40\n        /* \"#utility.yul\":3975:3984   */\n      dup6\n        /* \"#utility.yul\":3971:3989   */\n      add\n        /* \"#utility.yul\":3964:3989   */\n      swap2\n      pop\n        /* \"#utility.yul\":4048:4050   */\n      0x40\n        /* \"#utility.yul\":4038:4044   */\n      dup2\n        /* \"#utility.yul\":4035:4036   */\n      0x05\n        /* \"#utility.yul\":4031:4045   */\n      shl\n        /* \"#utility.yul\":4020:4029   */\n      dup7\n        /* \"#utility.yul\":4016:4046   */\n      add\n        /* \"#utility.yul\":4012:4051   */\n      add\n        /* \"#utility.yul\":3998:4051   */\n      swap3\n      pop\n        /* \"#utility.yul\":4086:4088   */\n      0x20\n        /* \"#utility.yul\":4078:4084   */\n      dup7\n        /* \"#utility.yul\":4074:4089   */\n      add\n        /* \"#utility.yul\":4107:4108   */\n      0x00\n        /* \"#utility.yul\":4117:4389   */\n    tag_289:\n        /* \"#utility.yul\":4131:4137   */\n      dup3\n        /* \"#utility.yul\":4128:4129   */\n      dup2\n        /* \"#utility.yul\":4125:4138   */\n      lt\n        /* \"#utility.yul\":4117:4389   */\n      iszero\n      tag_291\n      jumpi\n        /* \"#utility.yul\":4224:4226   */\n      0x3f\n        /* \"#utility.yul\":4220:4227   */\n      not\n        /* \"#utility.yul\":4208:4217   */\n      dup8\n        /* \"#utility.yul\":4200:4206   */\n      dup7\n        /* \"#utility.yul\":4196:4218   */\n      sub\n        /* \"#utility.yul\":4192:4228   */\n      add\n        /* \"#utility.yul\":4187:4190   */\n      dup5\n        /* \"#utility.yul\":4180:4229   */\n      mstore\n        /* \"#utility.yul\":4252:4309   */\n      tag_292\n        /* \"#utility.yul\":4302:4308   */\n      dup6\n        /* \"#utility.yul\":4293:4299   */\n      dup4\n        /* \"#utility.yul\":4287:4300   */\n      mload\n        /* \"#utility.yul\":4252:4309   */\n      tag_254\n      jump\t// in\n    tag_292:\n        /* \"#utility.yul\":4242:4309   */\n      swap5\n      pop\n        /* \"#utility.yul\":4344:4346   */\n      0x20\n        /* \"#utility.yul\":4367:4379   */\n      swap4\n      dup5\n      add\n      swap4\n        /* \"#utility.yul\":4332:4347   */\n      swap2\n      swap1\n      swap2\n      add\n      swap1\n        /* \"#utility.yul\":4153:4154   */\n      0x01\n        /* \"#utility.yul\":4146:4155   */\n      add\n        /* \"#utility.yul\":4117:4389   */\n      jump(tag_289)\n    tag_291:\n      pop\n        /* \"#utility.yul\":4406:4412   */\n      swap3\n      swap7\n        /* \"#utility.yul\":3575:4418   */\n      swap6\n      pop\n      pop\n      pop\n      pop\n      pop\n      pop\n      jump\t// out\n        /* \"#utility.yul\":4423:4550   */\n    tag_226:\n        /* \"#utility.yul\":4484:4494   */\n      0x4e487b71\n        /* \"#utility.yul\":4479:4482   */\n      0xe0\n        /* \"#utility.yul\":4475:4495   */\n      shl\n        /* \"#utility.yul\":4472:4473   */\n      0x00\n        /* \"#utility.yul\":4465:4496   */\n      mstore\n        /* \"#utility.yul\":4515:4519   */\n      0x41\n        /* \"#utility.yul\":4512:4513   */\n      0x04\n        /* \"#utility.yul\":4505:4520   */\n      mstore\n        /* \"#utility.yul\":4539:4543   */\n      0x24\n        /* \"#utility.yul\":4536:4537   */\n      0x00\n        /* \"#utility.yul\":4529:4544   */\n      revert\n        /* \"#utility.yul\":4555:5281   */\n    tag_256:\n        /* \"#utility.yul\":4598:4603   */\n      0x00\n        /* \"#utility.yul\":4651:4654   */\n      dup3\n        /* \"#utility.yul\":4644:4648   */\n      0x1f\n        /* \"#utility.yul\":4636:4642   */\n      dup4\n        /* \"#utility.yul\":4632:4649   */\n      add\n        /* \"#utility.yul\":4628:4655   */\n      slt\n        /* \"#utility.yul\":4618:4673   */\n      tag_295\n      jumpi\n        /* \"#utility.yul\":4669:4670   */\n      0x00\n        /* \"#utility.yul\":4666:4667   */\n      0x00\n        /* \"#utility.yul\":4659:4671   */\n      revert\n        /* \"#utility.yul\":4618:4673   */\n    tag_295:\n        /* \"#utility.yul\":4709:4715   */\n      dup2\n        /* \"#utility.yul\":4696:4716   */\n      calldataload\n        /* \"#utility.yul\":4739:4757   */\n      0xffffffffffffffff\n        /* \"#utility.yul\":4731:4737   */\n      dup2\n        /* \"#utility.yul\":4728:4758   */\n      gt\n        /* \"#utility.yul\":4725:4781   */\n      iszero\n      tag_297\n      jumpi\n        /* \"#utility.yul\":4761:4779   */\n      tag_297\n      tag_226\n      jump\t// in\n    tag_297:\n        /* \"#utility.yul\":4810:4812   */\n      0x40\n        /* \"#utility.yul\":4804:4813   */\n      mload\n        /* \"#utility.yul\":4902:4904   */\n      0x1f\n        /* \"#utility.yul\":4864:4881   */\n      dup3\n      add\n      not(0x1f)\n        /* \"#utility.yul\":4860:4891   */\n      swap1\n      dup2\n      and\n        /* \"#utility.yul\":4893:4895   */\n      0x3f\n        /* \"#utility.yul\":4856:4896   */\n      add\n        /* \"#utility.yul\":4852:4906   */\n      and\n        /* \"#utility.yul\":4840:4907   */\n      dup2\n      add\n        /* \"#utility.yul\":4937:4955   */\n      0xffffffffffffffff\n        /* \"#utility.yul\":4922:4956   */\n      dup2\n      gt\n        /* \"#utility.yul\":4958:4980   */\n      dup3\n      dup3\n      lt\n        /* \"#utility.yul\":4919:4981   */\n      or\n        /* \"#utility.yul\":4916:5004   */\n      iszero\n      tag_299\n      jumpi\n        /* \"#utility.yul\":4984:5002   */\n      tag_299\n      tag_226\n      jump\t// in\n    tag_299:\n        /* \"#utility.yul\":5020:5022   */\n      0x40\n        /* \"#utility.yul\":5013:5035   */\n      mstore\n        /* \"#utility.yul\":5044:5066   */\n      dup2\n      dup2\n      mstore\n        /* \"#utility.yul\":5085:5104   */\n      dup4\n      dup3\n      add\n        /* \"#utility.yul\":5106:5110   */\n      0x20\n        /* \"#utility.yul\":5081:5111   */\n      add\n        /* \"#utility.yul\":5078:5117   */\n      dup6\n      lt\n        /* \"#utility.yul\":5075:5134   */\n      iszero\n      tag_300\n      jumpi\n        /* \"#utility.yul\":5130:5131   */\n      0x00\n        /* \"#utility.yul\":5127:5128   */\n      0x00\n        /* \"#utility.yul\":5120:5132   */\n      revert\n        /* \"#utility.yul\":5075:5134   */\n    tag_300:\n        /* \"#utility.yul\":5194:5200   */\n      dup2\n        /* \"#utility.yul\":5187:5191   */\n      0x20\n        /* \"#utility.yul\":5179:5185   */\n      dup6\n        /* \"#utility.yul\":5175:5192   */\n      add\n        /* \"#utility.yul\":5168:5172   */\n      0x20\n        /* \"#utility.yul\":5160:5166   */\n      dup4\n        /* \"#utility.yul\":5156:5173   */\n      add\n        /* \"#utility.yul\":5143:5201   */\n      calldatacopy\n        /* \"#utility.yul\":5249:5250   */\n      0x00\n        /* \"#utility.yul\":5221:5240   */\n      swap2\n      dup2\n      add\n        /* \"#utility.yul\":5242:5246   */\n      0x20\n        /* \"#utility.yul\":5217:5247   */\n      add\n        /* \"#utility.yul\":5210:5251   */\n      swap2\n      swap1\n      swap2\n      mstore\n        /* \"#utility.yul\":5225:5231   */\n      swap4\n        /* \"#utility.yul\":4555:5281   */\n      swap3\n      pop\n      pop\n      pop\n      jump\t// out\n        /* \"#utility.yul\":5286:5722   */\n    tag_44:\n        /* \"#utility.yul\":5364:5370   */\n      0x00\n        /* \"#utility.yul\":5372:5378   */\n      0x00\n        /* \"#utility.yul\":5425:5427   */\n      0x40\n        /* \"#utility.yul\":5413:5422   */\n      dup4\n        /* \"#utility.yul\":5404:5411   */\n      dup6\n        /* \"#utility.yul\":5400:5423   */\n      sub\n        /* \"#utility.yul\":5396:5428   */\n      slt\n        /* \"#utility.yul\":5393:5445   */\n      iszero\n      tag_302\n      jumpi\n        /* \"#utility.yul\":5441:5442   */\n      0x00\n        /* \"#utility.yul\":5438:5439   */\n      0x00\n        /* \"#utility.yul\":5431:5443   */\n      revert\n        /* \"#utility.yul\":5393:5445   */\n    tag_302:\n        /* \"#utility.yul\":5486:5509   */\n      dup3\n      calldataload\n      swap2\n      pop\n        /* \"#utility.yul\":5584:5586   */\n      0x20\n        /* \"#utility.yul\":5569:5587   */\n      dup4\n      add\n        /* \"#utility.yul\":5556:5588   */\n      calldataload\n        /* \"#utility.yul\":5611:5629   */\n      0xffffffffffffffff\n        /* \"#utility.yul\":5600:5630   */\n      dup2\n      gt\n        /* \"#utility.yul\":5597:5647   */\n      iszero\n      tag_303\n      jumpi\n        /* \"#utility.yul\":5643:5644   */\n      0x00\n        /* \"#utility.yul\":5640:5641   */\n      0x00\n        /* \"#utility.yul\":5633:5645   */\n      revert\n        /* \"#utility.yul\":5597:5647   */\n    tag_303:\n        /* \"#utility.yul\":5666:5716   */\n      tag_304\n        /* \"#utility.yul\":5708:5715   */\n      dup6\n        /* \"#utility.yul\":5699:5705   */\n      dup3\n        /* \"#utility.yul\":5688:5697   */\n      dup7\n        /* \"#utility.yul\":5684:5706   */\n      add\n        /* \"#utility.yul\":5666:5716   */\n      tag_256\n      jump\t// in\n    tag_304:\n        /* \"#utility.yul\":5656:5716   */\n      swap2\n      pop\n      pop\n        /* \"#utility.yul\":5286:5722   */\n      swap3\n      pop\n      swap3\n      swap1\n      pop\n      jump\t// out\n        /* \"#utility.yul\":5727:6364   */\n    tag_50:\n        /* \"#utility.yul\":5917:5919   */\n      0x20\n        /* \"#utility.yul\":5929:5950   */\n      dup1\n      dup3\n      mstore\n        /* \"#utility.yul\":5999:6012   */\n      dup3\n      mload\n        /* \"#utility.yul\":5902:5920   */\n      dup3\n      dup3\n      add\n        /* \"#utility.yul\":6021:6043   */\n      dup2\n      swap1\n      mstore\n        /* \"#utility.yul\":5869:5873   */\n      0x00\n      swap2\n        /* \"#utility.yul\":6100:6115   */\n      dup5\n      add\n      swap1\n        /* \"#utility.yul\":6074:6076   */\n      0x40\n        /* \"#utility.yul\":6059:6077   */\n      dup5\n      add\n      swap1\n        /* \"#utility.yul\":5869:5873   */\n      dup4\n        /* \"#utility.yul\":6143:6338   */\n    tag_306:\n        /* \"#utility.yul\":6157:6163   */\n      dup2\n        /* \"#utility.yul\":6154:6155   */\n      dup2\n        /* \"#utility.yul\":6151:6164   */\n      lt\n        /* \"#utility.yul\":6143:6338   */\n      iszero\n      tag_308\n      jumpi\n        /* \"#utility.yul\":6222:6235   */\n      dup4\n      mload\n      sub(shl(0xa0, 0x01), 0x01)\n        /* \"#utility.yul\":6218:6257   */\n      and\n        /* \"#utility.yul\":6206:6258   */\n      dup4\n      mstore\n        /* \"#utility.yul\":6287:6289   */\n      0x20\n        /* \"#utility.yul\":6313:6328   */\n      swap4\n      dup5\n      add\n      swap4\n        /* \"#utility.yul\":6278:6290   */\n      swap1\n      swap3\n      add\n      swap2\n        /* \"#utility.yul\":6254:6255   */\n      0x01\n        /* \"#utility.yul\":6172:6181   */\n      add\n        /* \"#utility.yul\":6143:6338   */\n      jump(tag_306)\n    tag_308:\n      pop\n        /* \"#utility.yul\":6355:6358   */\n      swap1\n      swap6\n        /* \"#utility.yul\":5727:6364   */\n      swap5\n      pop\n      pop\n      pop\n      pop\n      pop\n      jump\t// out\n        /* \"#utility.yul\":6369:7021   */\n    tag_53:\n        /* \"#utility.yul\":6466:6472   */\n      0x00\n        /* \"#utility.yul\":6474:6480   */\n      0x00\n        /* \"#utility.yul\":6482:6488   */\n      0x00\n        /* \"#utility.yul\":6535:6537   */\n      0x60\n        /* \"#utility.yul\":6523:6532   */\n      dup5\n        /* \"#utility.yul\":6514:6521   */\n      dup7\n        /* \"#utility.yul\":6510:6533   */\n      sub\n        /* \"#utility.yul\":6506:6538   */\n      slt\n        /* \"#utility.yul\":6503:6555   */\n      iszero\n      tag_310\n      jumpi\n        /* \"#utility.yul\":6551:6552   */\n      0x00\n        /* \"#utility.yul\":6548:6549   */\n      0x00\n        /* \"#utility.yul\":6541:6553   */\n      revert\n        /* \"#utility.yul\":6503:6555   */\n    tag_310:\n        /* \"#utility.yul\":6596:6619   */\n      dup4\n      calldataload\n      swap3\n      pop\n        /* \"#utility.yul\":6694:6696   */\n      0x20\n        /* \"#utility.yul\":6679:6697   */\n      dup5\n      add\n        /* \"#utility.yul\":6666:6698   */\n      calldataload\n        /* \"#utility.yul\":6721:6739   */\n      0xffffffffffffffff\n        /* \"#utility.yul\":6710:6740   */\n      dup2\n      gt\n        /* \"#utility.yul\":6707:6757   */\n      iszero\n      tag_311\n      jumpi\n        /* \"#utility.yul\":6753:6754   */\n      0x00\n        /* \"#utility.yul\":6750:6751   */\n      0x00\n        /* \"#utility.yul\":6743:6755   */\n      revert\n        /* \"#utility.yul\":6707:6757   */\n    tag_311:\n        /* \"#utility.yul\":6776:6826   */\n      tag_312\n        /* \"#utility.yul\":6818:6825   */\n      dup7\n        /* \"#utility.yul\":6809:6815   */\n      dup3\n        /* \"#utility.yul\":6798:6807   */\n      dup8\n        /* \"#utility.yul\":6794:6816   */\n      add\n        /* \"#utility.yul\":6776:6826   */\n      tag_256\n      jump\t// in\n    tag_312:\n        /* \"#utility.yul\":6766:6826   */\n      swap3\n      pop\n      pop\n        /* \"#utility.yul\":6879:6881   */\n      0x40\n        /* \"#utility.yul\":6868:6877   */\n      dup5\n        /* \"#utility.yul\":6864:6882   */\n      add\n        /* \"#utility.yul\":6851:6883   */\n      calldataload\n        /* \"#utility.yul\":6908:6926   */\n      0xffffffffffffffff\n        /* \"#utility.yul\":6898:6906   */\n      dup2\n        /* \"#utility.yul\":6895:6927   */\n      gt\n        /* \"#utility.yul\":6892:6944   */\n      iszero\n      tag_313\n      jumpi\n        /* \"#utility.yul\":6940:6941   */\n      0x00\n        /* \"#utility.yul\":6937:6938   */\n      0x00\n        /* \"#utility.yul\":6930:6942   */\n      revert\n        /* \"#utility.yul\":6892:6944   */\n    tag_313:\n        /* \"#utility.yul\":6963:7015   */\n      tag_314\n        /* \"#utility.yul\":7007:7014   */\n      dup7\n        /* \"#utility.yul\":6996:7004   */\n      dup3\n        /* \"#utility.yul\":6985:6994   */\n      dup8\n        /* \"#utility.yul\":6981:7005   */\n      add\n        /* \"#utility.yul\":6963:7015   */\n      tag_256\n      jump\t// in\n    tag_314:\n        /* \"#utility.yul\":6953:7015   */\n      swap2\n      pop\n      pop\n        /* \"#utility.yul\":6369:7021   */\n      swap3\n      pop\n      swap3\n      pop\n      swap3\n      jump\t// out\n        /* \"#utility.yul\":7026:7831   */\n    tag_59:\n        /* \"#utility.yul\":7357:7360   */\n      0xe0\n        /* \"#utility.yul\":7346:7355   */\n      dup2\n        /* \"#utility.yul\":7339:7361   */\n      mstore\n        /* \"#utility.yul\":7320:7324   */\n      0x00\n        /* \"#utility.yul\":7384:7430   */\n      tag_316\n        /* \"#utility.yul\":7425:7428   */\n      0xe0\n        /* \"#utility.yul\":7414:7423   */\n      dup4\n        /* \"#utility.yul\":7410:7429   */\n      add\n        /* \"#utility.yul\":7402:7408   */\n      dup11\n        /* \"#utility.yul\":7384:7430   */\n      tag_250\n      jump\t// in\n    tag_316:\n      sub(shl(0xa0, 0x01), 0x01)\n        /* \"#utility.yul\":7466:7498   */\n      dup10\n      dup2\n      and\n        /* \"#utility.yul\":7461:7463   */\n      0x20\n        /* \"#utility.yul\":7446:7464   */\n      dup6\n      add\n        /* \"#utility.yul\":7439:7499   */\n      mstore\n        /* \"#utility.yul\":7535:7567   */\n      dup9\n      and\n        /* \"#utility.yul\":7530:7532   */\n      0x40\n        /* \"#utility.yul\":7515:7533   */\n      dup5\n      add\n        /* \"#utility.yul\":7508:7568   */\n      mstore\n        /* \"#utility.yul\":7599:7601   */\n      0x60\n        /* \"#utility.yul\":7584:7602   */\n      dup4\n      add\n        /* \"#utility.yul\":7577:7611   */\n      dup8\n      swap1\n      mstore\n        /* \"#utility.yul\":7642:7645   */\n      0x80\n        /* \"#utility.yul\":7627:7646   */\n      dup4\n      add\n        /* \"#utility.yul\":7620:7655   */\n      dup7\n      swap1\n      mstore\n        /* \"#utility.yul\":7692:7714   */\n      dup3\n      dup2\n      sub\n        /* \"#utility.yul\":7486:7489   */\n      0xa0\n        /* \"#utility.yul\":7671:7690   */\n      dup5\n      add\n        /* \"#utility.yul\":7664:7715   */\n      mstore\n        /* \"#utility.yul\":7732:7765   */\n      tag_317\n        /* \"#utility.yul\":7696:7702   */\n      dup2\n        /* \"#utility.yul\":7750:7756   */\n      dup7\n        /* \"#utility.yul\":7732:7765   */\n      tag_250\n      jump\t// in\n    tag_317:\n        /* \"#utility.yul\":7724:7765   */\n      swap2\n      pop\n      pop\n        /* \"#utility.yul\":7816:7822   */\n      dup3\n        /* \"#utility.yul\":7809:7823   */\n      iszero\n        /* \"#utility.yul\":7802:7824   */\n      iszero\n        /* \"#utility.yul\":7796:7799   */\n      0xc0\n        /* \"#utility.yul\":7785:7794   */\n      dup4\n        /* \"#utility.yul\":7781:7800   */\n      add\n        /* \"#utility.yul\":7774:7825   */\n      mstore\n        /* \"#utility.yul\":7026:7831   */\n      swap9\n      swap8\n      pop\n      pop\n      pop\n      pop\n      pop\n      pop\n      pop\n      pop\n      jump\t// out\n        /* \"#utility.yul\":7836:8448   */\n    tag_62:\n        /* \"#utility.yul\":7933:7939   */\n      0x00\n        /* \"#utility.yul\":7941:7947   */\n      0x00\n        /* \"#utility.yul\":7949:7955   */\n      0x00\n        /* \"#utility.yul\":8002:8004   */\n      0x60\n        /* \"#utility.yul\":7990:7999   */\n      dup5\n        /* \"#utility.yul\":7981:7988   */\n      dup7\n        /* \"#utility.yul\":7977:8000   */\n      sub\n        /* \"#utility.yul\":7973:8005   */\n      slt\n        /* \"#utility.yul\":7970:8022   */\n      iszero\n      tag_319\n      jumpi\n        /* \"#utility.yul\":8018:8019   */\n      0x00\n        /* \"#utility.yul\":8015:8016   */\n      0x00\n        /* \"#utility.yul\":8008:8020   */\n      revert\n        /* \"#utility.yul\":7970:8022   */\n    tag_319:\n        /* \"#utility.yul\":8058:8067   */\n      dup4\n        /* \"#utility.yul\":8045:8068   */\n      calldataload\n        /* \"#utility.yul\":8091:8109   */\n      0xffffffffffffffff\n        /* \"#utility.yul\":8083:8089   */\n      dup2\n        /* \"#utility.yul\":8080:8110   */\n      gt\n        /* \"#utility.yul\":8077:8127   */\n      iszero\n      tag_320\n      jumpi\n        /* \"#utility.yul\":8123:8124   */\n      0x00\n        /* \"#utility.yul\":8120:8121   */\n      0x00\n        /* \"#utility.yul\":8113:8125   */\n      revert\n        /* \"#utility.yul\":8077:8127   */\n    tag_320:\n        /* \"#utility.yul\":8146:8196   */\n      tag_321\n        /* \"#utility.yul\":8188:8195   */\n      dup7\n        /* \"#utility.yul\":8179:8185   */\n      dup3\n        /* \"#utility.yul\":8168:8177   */\n      dup8\n        /* \"#utility.yul\":8164:8186   */\n      add\n        /* \"#utility.yul\":8146:8196   */\n      tag_256\n      jump\t// in\n    tag_321:\n        /* \"#utility.yul\":8136:8196   */\n      swap4\n      pop\n      pop\n        /* \"#utility.yul\":8215:8253   */\n      tag_322\n        /* \"#utility.yul\":8249:8251   */\n      0x20\n        /* \"#utility.yul\":8238:8247   */\n      dup6\n        /* \"#utility.yul\":8234:8252   */\n      add\n        /* \"#utility.yul\":8215:8253   */\n      tag_255\n      jump\t// in\n    tag_322:\n        /* \"#utility.yul\":8205:8253   */\n      swap2\n      pop\n        /* \"#utility.yul\":8306:8308   */\n      0x40\n        /* \"#utility.yul\":8295:8304   */\n      dup5\n        /* \"#utility.yul\":8291:8309   */\n      add\n        /* \"#utility.yul\":8278:8310   */\n      calldataload\n        /* \"#utility.yul\":8335:8353   */\n      0xffffffffffffffff\n        /* \"#utility.yul\":8325:8333   */\n      dup2\n        /* \"#utility.yul\":8322:8354   */\n      gt\n        /* \"#utility.yul\":8319:8371   */\n      iszero\n      tag_313\n      jumpi\n        /* \"#utility.yul\":8367:8368   */\n      0x00\n        /* \"#utility.yul\":8364:8365   */\n      0x00\n        /* \"#utility.yul\":8357:8369   */\n      revert\n        /* \"#utility.yul\":8453:8800   */\n    tag_69:\n        /* \"#utility.yul\":8655:8657   */\n      0x20\n        /* \"#utility.yul\":8637:8658   */\n      dup1\n      dup3\n      mstore\n        /* \"#utility.yul\":8694:8696   */\n      0x17\n        /* \"#utility.yul\":8674:8692   */\n      swap1\n      dup3\n      add\n        /* \"#utility.yul\":8667:8697   */\n      mstore\n        /* \"#utility.yul\":8733:8758   */\n      0x496e76616c6964206f7267616e697a6174696f6e206964000000000000000000\n        /* \"#utility.yul\":8728:8730   */\n      0x40\n        /* \"#utility.yul\":8713:8731   */\n      dup3\n      add\n        /* \"#utility.yul\":8706:8759   */\n      mstore\n        /* \"#utility.yul\":8791:8793   */\n      0x60\n        /* \"#utility.yul\":8776:8794   */\n      add\n      swap1\n        /* \"#utility.yul\":8453:8800   */\n      jump\t// out\n        /* \"#utility.yul\":8805:8932   */\n    tag_73:\n        /* \"#utility.yul\":8866:8876   */\n      0x4e487b71\n        /* \"#utility.yul\":8861:8864   */\n      0xe0\n        /* \"#utility.yul\":8857:8877   */\n      shl\n        /* \"#utility.yul\":8854:8855   */\n      0x00\n        /* \"#utility.yul\":8847:8878   */\n      mstore\n        /* \"#utility.yul\":8897:8901   */\n      0x32\n        /* \"#utility.yul\":8894:8895   */\n      0x04\n        /* \"#utility.yul\":8887:8902   */\n      mstore\n        /* \"#utility.yul\":8921:8925   */\n      0x24\n        /* \"#utility.yul\":8918:8919   */\n      0x00\n        /* \"#utility.yul\":8911:8926   */\n      revert\n        /* \"#utility.yul\":8937:9317   */\n    tag_76:\n        /* \"#utility.yul\":9016:9017   */\n      0x01\n        /* \"#utility.yul\":9012:9024   */\n      dup2\n      dup2\n      shr\n      swap1\n        /* \"#utility.yul\":9059:9071   */\n      dup3\n      and\n      dup1\n        /* \"#utility.yul\":9080:9141   */\n      tag_328\n      jumpi\n        /* \"#utility.yul\":9134:9138   */\n      0x7f\n        /* \"#utility.yul\":9126:9132   */\n      dup3\n        /* \"#utility.yul\":9122:9139   */\n      and\n        /* \"#utility.yul\":9112:9139   */\n      swap2\n      pop\n        /* \"#utility.yul\":9080:9141   */\n    tag_328:\n        /* \"#utility.yul\":9187:9189   */\n      0x20\n        /* \"#utility.yul\":9179:9185   */\n      dup3\n        /* \"#utility.yul\":9176:9190   */\n      lt\n        /* \"#utility.yul\":9156:9174   */\n      dup2\n        /* \"#utility.yul\":9153:9191   */\n      sub\n        /* \"#utility.yul\":9150:9311   */\n      tag_70\n      jumpi\n        /* \"#utility.yul\":9233:9243   */\n      0x4e487b71\n        /* \"#utility.yul\":9228:9231   */\n      0xe0\n        /* \"#utility.yul\":9224:9244   */\n      shl\n        /* \"#utility.yul\":9221:9222   */\n      0x00\n        /* \"#utility.yul\":9214:9245   */\n      mstore\n        /* \"#utility.yul\":9268:9272   */\n      0x22\n        /* \"#utility.yul\":9265:9266   */\n      0x04\n        /* \"#utility.yul\":9258:9273   */\n      mstore\n        /* \"#utility.yul\":9296:9300   */\n      0x24\n        /* \"#utility.yul\":9293:9294   */\n      0x00\n        /* \"#utility.yul\":9286:9301   */\n      revert\n        /* \"#utility.yul\":9322:9724   */\n    tag_97:\n        /* \"#utility.yul\":9524:9526   */\n      0x20\n        /* \"#utility.yul\":9506:9527   */\n      dup1\n      dup3\n      mstore\n        /* \"#utility.yul\":9563:9565   */\n      0x26\n        /* \"#utility.yul\":9543:9561   */\n      swap1\n      dup3\n      add\n        /* \"#utility.yul\":9536:9566   */\n      mstore\n        /* \"#utility.yul\":9602:9636   */\n      0x4f6e6c79207468652061646d696e2063616e20706572666f726d207468697320\n        /* \"#utility.yul\":9597:9599   */\n      0x40\n        /* \"#utility.yul\":9582:9600   */\n      dup3\n      add\n        /* \"#utility.yul\":9575:9637   */\n      mstore\n      shl(0xd1, 0x30b1ba34b7b7)\n        /* \"#utility.yul\":9668:9670   */\n      0x60\n        /* \"#utility.yul\":9653:9671   */\n      dup3\n      add\n        /* \"#utility.yul\":9646:9682   */\n      mstore\n        /* \"#utility.yul\":9714:9717   */\n      0x80\n        /* \"#utility.yul\":9699:9718   */\n      add\n      swap1\n        /* \"#utility.yul\":9322:9724   */\n      jump\t// out\n        /* \"#utility.yul\":11565:11692   */\n    tag_257:\n        /* \"#utility.yul\":11626:11636   */\n      0x4e487b71\n        /* \"#utility.yul\":11621:11624   */\n      0xe0\n        /* \"#utility.yul\":11617:11637   */\n      shl\n        /* \"#utility.yul\":11614:11615   */\n      0x00\n        /* \"#utility.yul\":11607:11638   */\n      mstore\n        /* \"#utility.yul\":11657:11661   */\n      0x11\n        /* \"#utility.yul\":11654:11655   */\n      0x04\n        /* \"#utility.yul\":11647:11662   */\n      mstore\n        /* \"#utility.yul\":11681:11685   */\n      0x24\n        /* \"#utility.yul\":11678:11679   */\n      0x00\n        /* \"#utility.yul\":11671:11686   */\n      revert\n        /* \"#utility.yul\":11697:11833   */\n    tag_155:\n        /* \"#utility.yul\":11736:11739   */\n      0x00\n        /* \"#utility.yul\":11764:11769   */\n      dup2\n        /* \"#utility.yul\":11754:11793   */\n      tag_339\n      jumpi\n        /* \"#utility.yul\":11773:11791   */\n      tag_339\n      tag_257\n      jump\t// in\n    tag_339:\n      pop\n      not(0x00)\n        /* \"#utility.yul\":11809:11827   */\n      add\n      swap1\n        /* \"#utility.yul\":11697:11833   */\n      jump\t// out\n        /* \"#utility.yul\":11838:12058   */\n    tag_158:\n        /* \"#utility.yul\":11987:11989   */\n      0x20\n        /* \"#utility.yul\":11976:11985   */\n      dup2\n        /* \"#utility.yul\":11969:11990   */\n      mstore\n        /* \"#utility.yul\":11950:11954   */\n      0x00\n        /* \"#utility.yul\":12007:12052   */\n      tag_280\n        /* \"#utility.yul\":12048:12050   */\n      0x20\n        /* \"#utility.yul\":12037:12046   */\n      dup4\n        /* \"#utility.yul\":12033:12051   */\n      add\n        /* \"#utility.yul\":12025:12031   */\n      dup5\n        /* \"#utility.yul\":12007:12052   */\n      tag_250\n      jump\t// in\n        /* \"#utility.yul\":12888:13406   */\n    tag_259:\n        /* \"#utility.yul\":12990:12992   */\n      0x1f\n        /* \"#utility.yul\":12985:12988   */\n      dup3\n        /* \"#utility.yul\":12982:12993   */\n      gt\n        /* \"#utility.yul\":12979:13400   */\n      iszero\n      tag_346\n      jumpi\n        /* \"#utility.yul\":13026:13031   */\n      dup1\n        /* \"#utility.yul\":13023:13024   */\n      0x00\n        /* \"#utility.yul\":13016:13032   */\n      mstore\n        /* \"#utility.yul\":13070:13074   */\n      0x20\n        /* \"#utility.yul\":13067:13068   */\n      0x00\n        /* \"#utility.yul\":13057:13075   */\n      keccak256\n        /* \"#utility.yul\":13140:13142   */\n      0x1f\n        /* \"#utility.yul\":13128:13138   */\n      dup5\n        /* \"#utility.yul\":13124:13143   */\n      add\n        /* \"#utility.yul\":13121:13122   */\n      0x05\n        /* \"#utility.yul\":13117:13144   */\n      shr\n        /* \"#utility.yul\":13111:13115   */\n      dup2\n        /* \"#utility.yul\":13107:13145   */\n      add\n        /* \"#utility.yul\":13176:13180   */\n      0x20\n        /* \"#utility.yul\":13164:13174   */\n      dup6\n        /* \"#utility.yul\":13161:13181   */\n      lt\n        /* \"#utility.yul\":13158:13205   */\n      iszero\n      tag_347\n      jumpi\n      pop\n        /* \"#utility.yul\":13199:13203   */\n      dup1\n        /* \"#utility.yul\":13158:13205   */\n    tag_347:\n        /* \"#utility.yul\":13254:13256   */\n      0x1f\n        /* \"#utility.yul\":13249:13252   */\n      dup5\n        /* \"#utility.yul\":13245:13257   */\n      add\n        /* \"#utility.yul\":13242:13243   */\n      0x05\n        /* \"#utility.yul\":13238:13258   */\n      shr\n        /* \"#utility.yul\":13232:13236   */\n      dup3\n        /* \"#utility.yul\":13228:13259   */\n      add\n        /* \"#utility.yul\":13218:13259   */\n      swap2\n      pop\n        /* \"#utility.yul\":13309:13390   */\n    tag_348:\n        /* \"#utility.yul\":13327:13329   */\n      dup2\n        /* \"#utility.yul\":13320:13325   */\n      dup2\n        /* \"#utility.yul\":13317:13330   */\n      lt\n        /* \"#utility.yul\":13309:13390   */\n      iszero\n      tag_350\n      jumpi\n        /* \"#utility.yul\":13386:13387   */\n      0x00\n        /* \"#utility.yul\":13372:13388   */\n      dup2\n      sstore\n        /* \"#utility.yul\":13353:13354   */\n      0x01\n        /* \"#utility.yul\":13342:13355   */\n      add\n        /* \"#utility.yul\":13309:13390   */\n      jump(tag_348)\n    tag_350:\n        /* \"#utility.yul\":13313:13316   */\n      pop\n      pop\n        /* \"#utility.yul\":12979:13400   */\n    tag_346:\n        /* \"#utility.yul\":12888:13406   */\n      pop\n      pop\n      pop\n      jump\t// out\n        /* \"#utility.yul\":13582:14881   */\n    tag_194:\n        /* \"#utility.yul\":13708:13711   */\n      dup2\n        /* \"#utility.yul\":13702:13712   */\n      mload\n        /* \"#utility.yul\":13735:13753   */\n      0xffffffffffffffff\n        /* \"#utility.yul\":13727:13733   */\n      dup2\n        /* \"#utility.yul\":13724:13754   */\n      gt\n        /* \"#utility.yul\":13721:13777   */\n      iszero\n      tag_354\n      jumpi\n        /* \"#utility.yul\":13757:13775   */\n      tag_354\n      tag_226\n      jump\t// in\n    tag_354:\n        /* \"#utility.yul\":13786:13883   */\n      tag_355\n        /* \"#utility.yul\":13876:13882   */\n      dup2\n        /* \"#utility.yul\":13836:13874   */\n      tag_356\n        /* \"#utility.yul\":13868:13872   */\n      dup5\n        /* \"#utility.yul\":13862:13873   */\n      sload\n        /* \"#utility.yul\":13836:13874   */\n      tag_76\n      jump\t// in\n    tag_356:\n        /* \"#utility.yul\":13830:13834   */\n      dup5\n        /* \"#utility.yul\":13786:13883   */\n      tag_259\n      jump\t// in\n    tag_355:\n        /* \"#utility.yul\":13932:13936   */\n      0x20\n        /* \"#utility.yul\":13963:13965   */\n      0x1f\n        /* \"#utility.yul\":13952:13966   */\n      dup3\n      gt\n        /* \"#utility.yul\":13980:13981   */\n      0x01\n        /* \"#utility.yul\":13975:14624   */\n      dup2\n      eq\n      tag_358\n      jumpi\n        /* \"#utility.yul\":14668:14669   */\n      0x00\n        /* \"#utility.yul\":14685:14691   */\n      dup4\n        /* \"#utility.yul\":14682:14771   */\n      iszero\n      tag_359\n      jumpi\n      pop\n        /* \"#utility.yul\":14737:14756   */\n      dup5\n      dup3\n      add\n        /* \"#utility.yul\":14731:14757   */\n      mload\n        /* \"#utility.yul\":14682:14771   */\n    tag_359:\n      not(0x00)\n        /* \"#utility.yul\":13539:13540   */\n      0x03\n        /* \"#utility.yul\":13535:13546   */\n      dup6\n      swap1\n      shl\n        /* \"#utility.yul\":13531:13555   */\n      shr\n        /* \"#utility.yul\":13527:13556   */\n      not\n        /* \"#utility.yul\":13517:13557   */\n      and\n        /* \"#utility.yul\":13563:13564   */\n      0x01\n        /* \"#utility.yul\":13559:13570   */\n      dup5\n      swap1\n      shl\n        /* \"#utility.yul\":13514:13571   */\n      or\n        /* \"#utility.yul\":14784:14865   */\n      dup5\n      sstore\n        /* \"#utility.yul\":13945:14875   */\n      jump(tag_350)\n        /* \"#utility.yul\":13975:14624   */\n    tag_358:\n        /* \"#utility.yul\":12835:12836   */\n      0x00\n        /* \"#utility.yul\":12828:12842   */\n      dup5\n      dup2\n      mstore\n        /* \"#utility.yul\":12872:12876   */\n      0x20\n        /* \"#utility.yul\":12859:12877   */\n      dup2\n      keccak256\n      not(0x1f)\n        /* \"#utility.yul\":14011:14031   */\n      dup6\n      and\n      swap2\n        /* \"#utility.yul\":14129:14351   */\n    tag_362:\n        /* \"#utility.yul\":14143:14150   */\n      dup3\n        /* \"#utility.yul\":14140:14141   */\n      dup2\n        /* \"#utility.yul\":14137:14151   */\n      lt\n        /* \"#utility.yul\":14129:14351   */\n      iszero\n      tag_364\n      jumpi\n        /* \"#utility.yul\":14225:14244   */\n      dup8\n      dup6\n      add\n        /* \"#utility.yul\":14219:14245   */\n      mload\n        /* \"#utility.yul\":14204:14246   */\n      dup3\n      sstore\n        /* \"#utility.yul\":14332:14336   */\n      0x20\n        /* \"#utility.yul\":14317:14337   */\n      swap5\n      dup6\n      add\n      swap5\n        /* \"#utility.yul\":14285:14286   */\n      0x01\n        /* \"#utility.yul\":14273:14287   */\n      swap1\n      swap3\n      add\n      swap2\n        /* \"#utility.yul\":14159:14171   */\n      add\n        /* \"#utility.yul\":14129:14351   */\n      jump(tag_362)\n    tag_364:\n        /* \"#utility.yul\":14133:14136   */\n      pop\n        /* \"#utility.yul\":14379:14385   */\n      dup5\n        /* \"#utility.yul\":14370:14377   */\n      dup3\n        /* \"#utility.yul\":14367:14386   */\n      lt\n        /* \"#utility.yul\":14364:14565   */\n      iszero\n      tag_365\n      jumpi\n        /* \"#utility.yul\":14440:14459   */\n      dup7\n      dup5\n      add\n        /* \"#utility.yul\":14434:14460   */\n      mload\n      not(0x00)\n        /* \"#utility.yul\":14523:14524   */\n      0x03\n        /* \"#utility.yul\":14519:14533   */\n      dup8\n      swap1\n      shl\n        /* \"#utility.yul\":14535:14538   */\n      0xf8\n        /* \"#utility.yul\":14515:14539   */\n      and\n        /* \"#utility.yul\":14511:14548   */\n      shr\n        /* \"#utility.yul\":14507:14549   */\n      not\n        /* \"#utility.yul\":14492:14550   */\n      and\n        /* \"#utility.yul\":14477:14551   */\n      dup2\n      sstore\n        /* \"#utility.yul\":14364:14565   */\n    tag_365:\n      pop\n      pop\n      pop\n      pop\n        /* \"#utility.yul\":14611:14612   */\n      0x01\n        /* \"#utility.yul\":14595:14609   */\n      swap1\n      dup2\n      shl\n        /* \"#utility.yul\":14591:14613   */\n      add\n        /* \"#utility.yul\":14578:14614   */\n      swap1\n      sstore\n      pop\n        /* \"#utility.yul\":13582:14881   */\n      jump\t// out\n        /* \"#utility.yul\":14886:15269   */\n    tag_203:\n        /* \"#utility.yul\":15083:15085   */\n      0x40\n        /* \"#utility.yul\":15072:15081   */\n      dup2\n        /* \"#utility.yul\":15065:15086   */\n      mstore\n        /* \"#utility.yul\":15046:15050   */\n      0x00\n        /* \"#utility.yul\":15109:15154   */\n      tag_367\n        /* \"#utility.yul\":15150:15152   */\n      0x40\n        /* \"#utility.yul\":15139:15148   */\n      dup4\n        /* \"#utility.yul\":15135:15153   */\n      add\n        /* \"#utility.yul\":15127:15133   */\n      dup6\n        /* \"#utility.yul\":15109:15154   */\n      tag_250\n      jump\t// in\n    tag_367:\n        /* \"#utility.yul\":15202:15211   */\n      dup3\n        /* \"#utility.yul\":15194:15200   */\n      dup2\n        /* \"#utility.yul\":15190:15212   */\n      sub\n        /* \"#utility.yul\":15185:15187   */\n      0x20\n        /* \"#utility.yul\":15174:15183   */\n      dup5\n        /* \"#utility.yul\":15170:15188   */\n      add\n        /* \"#utility.yul\":15163:15213   */\n      mstore\n        /* \"#utility.yul\":15230:15263   */\n      tag_368\n        /* \"#utility.yul\":15256:15262   */\n      dup2\n        /* \"#utility.yul\":15248:15254   */\n      dup6\n        /* \"#utility.yul\":15230:15263   */\n      tag_250\n      jump\t// in\n    tag_368:\n        /* \"#utility.yul\":15222:15263   */\n      swap6\n        /* \"#utility.yul\":14886:15269   */\n      swap5\n      pop\n      pop\n      pop\n      pop\n      pop\n      jump\t// out\n        /* \"#utility.yul\":15631:15759   */\n    tag_234:\n        /* \"#utility.yul\":15698:15707   */\n      dup2\n      dup2\n      sub\n        /* \"#utility.yul\":15719:15730   */\n      dup2\n      dup2\n      gt\n        /* \"#utility.yul\":15716:15753   */\n      iszero\n      tag_372\n      jumpi\n        /* \"#utility.yul\":15733:15751   */\n      tag_372\n      tag_257\n      jump\t// in\n    tag_372:\n        /* \"#utility.yul\":15631:15759   */\n      swap3\n      swap2\n      pop\n      pop\n      jump\t// out\n        /* \"#utility.yul\":15764:15899   */\n    tag_240:\n        /* \"#utility.yul\":15803:15806   */\n      0x00\n        /* \"#utility.yul\":15824:15841   */\n      0x01\n      dup3\n      add\n        /* \"#utility.yul\":15821:15864   */\n      tag_375\n      jumpi\n        /* \"#utility.yul\":15844:15862   */\n      tag_375\n      tag_257\n      jump\t// in\n    tag_375:\n      pop\n        /* \"#utility.yul\":15891:15892   */\n      0x01\n        /* \"#utility.yul\":15880:15893   */\n      add\n      swap1\n        /* \"#utility.yul\":15764:15899   */\n      jump\t// out\n\n    auxdata: 0xa2646970667358221220832e3edd2da0c00b5e091fdcc822dd1b3639879f887d6645abc52a8f5914cf0364736f6c634300081e0033\n}\n",
				"bytecode": {
					"linkReferences": {},
					"object": "60a0604052348015600e575f5ffd5b5033608052608051611a2e6100325f395f818161013c01526109590152611a2e5ff3fe608060405234801561000f575f5ffd5b50600436106100a6575f3560e01c80639754a3a81161006e5780639754a3a814610176578063abf653bd1461018b578063c477ecab1461019e578063e35309ea146101be578063e792dd8a146101d1578063ed39a17d146101f7575f5ffd5b80632da78c2d146100aa5780634526f690146100c557806374d0a676146100e55780637d9e10f5146100fa5780638da5cb5b14610137575b5f5ffd5b6100b25f5481565b6040519081526020015b60405180910390f35b6100d86100d3366004611342565b61020a565b6040516100bc919061147b565b6100f86100f33660046114af565b61048e565b005b6101276101083660046114af565b600260209081525f928352604080842090915290825290205460ff1681565b60405190151581526020016100bc565b61015e7f000000000000000000000000000000000000000000000000000000000000000081565b6040516001600160a01b0390911681526020016100bc565b61017e610700565b6040516100bc91906114d9565b6100f86101993660046115db565b61092b565b6101b16101ac366004611342565b610b44565b6040516100bc919061161f565b6100f86101cc36600461166a565b610beb565b6101e46101df366004611342565b610e24565b6040516100bc97969594939291906116d7565b6100f8610205366004611737565b610f92565b610261604051806101000160405280606081526020015f6001600160a01b031681526020015f6001600160a01b031681526020015f81526020015f815260200160608152602001606081526020015f151581525090565b6001548290811061028d5760405162461bcd60e51b815260040161028490611795565b60405180910390fd5b600183815481106102a0576102a06117cc565b905f5260205f209060080201604051806101000160405290815f820180546102c7906117e0565b80601f01602080910402602001604051908101604052809291908181526020018280546102f3906117e0565b801561033e5780601f106103155761010080835404028352916020019161033e565b820191905f5260205f20905b81548152906001019060200180831161032157829003601f168201915b505050918352505060018201546001600160a01b039081166020808401919091526002840154909116604080840191909152600384015460608401526004840154608084015260058401805482518185028101850190935280835260a09094019391929091908301828280156103db57602002820191905f5260205f20905b81546001600160a01b031681526001909101906020018083116103bd575b505050505081526020016006820180546103f4906117e0565b80601f0160208091040260200160405190810160405280929190818152602001828054610420906117e0565b801561046b5780601f106104425761010080835404028352916020019161046b565b820191905f5260205f20905b81548152906001019060200180831161044e57829003601f168201915b50505091835250506007919091015460ff16151560209091015291505b50919050565b600154829081106104b15760405162461bcd60e51b815260040161028490611795565b82600181815481106104c5576104c56117cc565b5f9182526020909120600890910201600201546001600160a01b031633146104ff5760405162461bcd60e51b815260040161028490611812565b8360018181548110610513576105136117cc565b5f91825260209091206007600890920201015460ff166105705760405162461bcd60e51b81526020600482015260186024820152774f7267616e697a6174696f6e20697320696e61637469766560401b6044820152606401610284565b6001600160a01b0384166105bf5760405162461bcd60e51b8152602060048201526016602482015275496e76616c6964206d656d626572206164647265737360501b6044820152606401610284565b5f8581526002602090815260408083206001600160a01b038816845290915290205460ff16156106295760405162461bcd60e51b81526020600482015260156024820152744d656d62657220616c72656164792065786973747360581b6044820152606401610284565b6001858154811061063c5761063c6117cc565b5f91825260208083206008929092029091016005018054600180820183559184528284200180546001600160a01b0319166001600160a01b03891690811790915588845260028352604080852091855292529120805460ff1916821790558054429190879081106106af576106af6117cc565b905f5260205f20906008020160040181905550836001600160a01b0316857ff328ac0f8bcae00933fe87ba0aa2d0d505c1df94bc9c1aa05b8441c28b74032c60405160405180910390a35050505050565b60606001805480602002602001604051908101604052809291908181526020015f905b82821015610922578382905f5260205f209060080201604051806101000160405290815f82018054610754906117e0565b80601f0160208091040260200160405190810160405280929190818152602001828054610780906117e0565b80156107cb5780601f106107a2576101008083540402835291602001916107cb565b820191905f5260205f20905b8154815290600101906020018083116107ae57829003601f168201915b505050918352505060018201546001600160a01b039081166020808401919091526002840154909116604080840191909152600384015460608401526004840154608084015260058401805482518185028101850190935280835260a090940193919290919083018282801561086857602002820191905f5260205f20905b81546001600160a01b0316815260019091019060200180831161084a575b50505050508152602001600682018054610881906117e0565b80601f01602080910402602001604051908101604052809291908181526020018280546108ad906117e0565b80156108f85780601f106108cf576101008083540402835291602001916108f8565b820191905f5260205f20905b8154815290600101906020018083116108db57829003601f168201915b50505091835250506007919091015460ff1615156020918201529082526001929092019101610723565b50505050905090565b6001548290811061094e5760405162461bcd60e51b815260040161028490611795565b336001600160a01b037f000000000000000000000000000000000000000000000000000000000000000016146109ec5760405162461bcd60e51b815260206004820152603760248201527f4f6e6c792074686520636f6e7472616374206f776e65722063616e206465616360448201527f74697661746520746865206f7267616e697a6174696f6e0000000000000000006064820152608401610284565b600183815481106109ff576109ff6117cc565b5f91825260209091206007600890920201015460ff16610a615760405162461bcd60e51b815260206004820152601d60248201527f4f7267616e697a6174696f6e20616c726561647920696e6163746976650000006044820152606401610284565b5f60018481548110610a7557610a756117cc565b905f5260205f2090600802016007015f6101000a81548160ff0219169083151502179055504260018481548110610aae57610aae6117cc565b905f5260205f209060080201600401819055505f5f8154610ace9061186c565b909155506040515f815283907f1f5eef396f0126db889cd46f4ca63a15cc149b1eb0539888878f748a762977119060200160405180910390a2827fb65f432ba3873bcffa1712074c16990dda95cbe52fbe3f0889e9233243ba889183604051610b379190611881565b60405180910390a2505050565b60015460609082908110610b6a5760405162461bcd60e51b815260040161028490611795565b60018381548110610b7d57610b7d6117cc565b905f5260205f209060080201600501805480602002602001604051908101604052809291908181526020018280548015610bde57602002820191905f5260205f20905b81546001600160a01b03168152600190910190602001808311610bc0575b5050505050915050919050565b60015483908110610c0e5760405162461bcd60e51b815260040161028490611795565b8360018181548110610c2257610c226117cc565b5f9182526020909120600890910201600201546001600160a01b03163314610c5c5760405162461bcd60e51b815260040161028490611812565b8460018181548110610c7057610c706117cc565b5f91825260209091206007600890920201015460ff16610ccd5760405162461bcd60e51b81526020600482015260186024820152774f7267616e697a6174696f6e20697320696e61637469766560401b6044820152606401610284565b5f855111610d105760405162461bcd60e51b815260206004820152601060248201526f13985b59481a5cc81c995c5d5a5c995960821b6044820152606401610284565b5f845111610d5c5760405162461bcd60e51b8152602060048201526019602482015278115b98dc9e5c1d195908155493081a5cc81c995c5d5a5c9959603a1b6044820152606401610284565b8460018781548110610d7057610d706117cc565b905f5260205f2090600802015f019081610d8a91906118df565b508360018781548110610d9f57610d9f6117cc565b905f5260205f2090600802016006019081610dba91906118df565b504260018781548110610dcf57610dcf6117cc565b905f5260205f20906008020160040181905550857fda238709a4ad4d2d617aa517f02cffdd5b443bc1173fed5aa4bfcc0aa37122938686604051610e1492919061199a565b60405180910390a2505050505050565b60018181548110610e33575f80fd5b905f5260205f2090600802015f91509050805f018054610e52906117e0565b80601f0160208091040260200160405190810160405280929190818152602001828054610e7e906117e0565b8015610ec95780601f10610ea057610100808354040283529160200191610ec9565b820191905f5260205f20905b815481529060010190602001808311610eac57829003601f168201915b505050600184015460028501546003860154600487015460068801805497986001600160a01b03958616989490951696509194509291610f08906117e0565b80601f0160208091040260200160405190810160405280929190818152602001828054610f34906117e0565b8015610f7f5780601f10610f5657610100808354040283529160200191610f7f565b820191905f5260205f20905b815481529060010190602001808311610f6257829003601f168201915b5050506007909301549192505060ff1687565b5f835111610fd55760405162461bcd60e51b815260206004820152601060248201526f13985b59481a5cc81c995c5d5a5c995960821b6044820152606401610284565b6001600160a01b03821661102b5760405162461bcd60e51b815260206004820152601c60248201527f496e76616c6964206f7267616e697a6174696f6e2061646472657373000000006044820152606401610284565b5f8151116110775760405162461bcd60e51b8152602060048201526019602482015278115b98dc9e5c1d195908155493081a5cc81c995c5d5a5c9959603a1b6044820152606401610284565b6001604051806101000160405280858152602001846001600160a01b03168152602001336001600160a01b031681526020014281526020014281526020015f67ffffffffffffffff8111156110ce576110ce61153c565b6040519080825280602002602001820160405280156110f7578160200160208202803683370190505b508152602080820185905260016040909201829052835491820184555f938452909220815191926008020190819061112f90826118df565b506020828101516001830180546001600160a01b039283166001600160a01b0319918216179091556040850151600285018054919093169116179055606083015160038301556080830151600483015560a0830151805161119692600585019201906112cb565b5060c082015160068201906111ab90826118df565b5060e091909101516007909101805460ff1916911515919091179055600180545f916111d6916119c7565b9050600181815481106111eb576111eb6117cc565b5f91825260208083206005600890930201919091018054600181810183559184528284200180546001600160a01b031916339081179091558484526002835260408085209185529252908220805460ff191690911790558054819061124f906119e0565b90915550604051339082907f738a6c19c1f9d0875478754c8c4811baa12949f287f2385e1092efef86be9f7990611287908890611881565b60405180910390a36040516001815281907f1f5eef396f0126db889cd46f4ca63a15cc149b1eb0539888878f748a762977119060200160405180910390a250505050565b828054828255905f5260205f2090810192821561131e579160200282015b8281111561131e57825182546001600160a01b0319166001600160a01b039091161782556020909201916001909101906112e9565b5061132a92915061132e565b5090565b5b8082111561132a575f815560010161132f565b5f60208284031215611352575f5ffd5b5035919050565b5f81518084528060208401602086015e5f602082860101526020601f19601f83011685010191505092915050565b5f8151808452602084019350602083015f5b828110156113c05781516001600160a01b0316865260209586019590910190600101611399565b5093949350505050565b5f815161010084526113e0610100850182611359565b905060208301516113fc60208601826001600160a01b03169052565b50604083015161141760408601826001600160a01b03169052565b50606083015160608501526080830151608085015260a083015184820360a08601526114438282611387565b91505060c083015184820360c086015261145d8282611359565b91505060e083015161147360e086018215159052565b509392505050565b602081525f61148d60208301846113ca565b9392505050565b80356001600160a01b03811681146114aa575f5ffd5b919050565b5f5f604083850312156114c0575f5ffd5b823591506114d060208401611494565b90509250929050565b5f602082016020835280845180835260408501915060408160051b8601019250602086015f5b8281101561153057603f1987860301845261151b8583516113ca565b945060209384019391909101906001016114ff565b50929695505050505050565b634e487b7160e01b5f52604160045260245ffd5b5f82601f83011261155f575f5ffd5b813567ffffffffffffffff8111156115795761157961153c565b604051601f8201601f19908116603f0116810167ffffffffffffffff811182821017156115a8576115a861153c565b6040528181528382016020018510156115bf575f5ffd5b816020850160208301375f918101602001919091529392505050565b5f5f604083850312156115ec575f5ffd5b82359150602083013567ffffffffffffffff811115611609575f5ffd5b61161585828601611550565b9150509250929050565b602080825282518282018190525f918401906040840190835b8181101561165f5783516001600160a01b0316835260209384019390920191600101611638565b509095945050505050565b5f5f5f6060848603121561167c575f5ffd5b83359250602084013567ffffffffffffffff811115611699575f5ffd5b6116a586828701611550565b925050604084013567ffffffffffffffff8111156116c1575f5ffd5b6116cd86828701611550565b9150509250925092565b60e081525f6116e960e083018a611359565b6001600160a01b03898116602085015288166040840152606083018790526080830186905282810360a08401526117208186611359565b91505082151560c083015298975050505050505050565b5f5f5f60608486031215611749575f5ffd5b833567ffffffffffffffff81111561175f575f5ffd5b61176b86828701611550565b93505061177a60208501611494565b9150604084013567ffffffffffffffff8111156116c1575f5ffd5b60208082526017908201527f496e76616c6964206f7267616e697a6174696f6e206964000000000000000000604082015260600190565b634e487b7160e01b5f52603260045260245ffd5b600181811c908216806117f457607f821691505b60208210810361048857634e487b7160e01b5f52602260045260245ffd5b60208082526026908201527f4f6e6c79207468652061646d696e2063616e20706572666f726d20746869732060408201526530b1ba34b7b760d11b606082015260800190565b634e487b7160e01b5f52601160045260245ffd5b5f8161187a5761187a611858565b505f190190565b602081525f61148d6020830184611359565b601f8211156118da57805f5260205f20601f840160051c810160208510156118b85750805b601f840160051c820191505b818110156118d7575f81556001016118c4565b50505b505050565b815167ffffffffffffffff8111156118f9576118f961153c565b61190d8161190784546117e0565b84611893565b6020601f82116001811461193f575f83156119285750848201515b5f19600385901b1c1916600184901b1784556118d7565b5f84815260208120601f198516915b8281101561196e578785015182556020948501946001909201910161194e565b508482101561198b57868401515f19600387901b60f8161c191681555b50505050600190811b01905550565b604081525f6119ac6040830185611359565b82810360208401526119be8185611359565b95945050505050565b818103818111156119da576119da611858565b92915050565b5f600182016119f1576119f1611858565b506001019056fea2646970667358221220832e3edd2da0c00b5e091fdcc822dd1b3639879f887d6645abc52a8f5914cf0364736f6c634300081e0033",
					"opcodes": "PUSH1 0xA0 PUSH1 0x40 MSTORE CALLVALUE DUP1 ISZERO PUSH1 0xE JUMPI PUSH0 PUSH0 REVERT JUMPDEST POP CALLER PUSH1 0x80 MSTORE PUSH1 0x80 MLOAD PUSH2 0x1A2E PUSH2 0x32 PUSH0 CODECOPY PUSH0 DUP2 DUP2 PUSH2 0x13C ADD MSTORE PUSH2 0x959 ADD MSTORE PUSH2 0x1A2E PUSH0 RETURN INVALID PUSH1 0x80 PUSH1 0x40 MSTORE CALLVALUE DUP1 ISZERO PUSH2 0xF JUMPI PUSH0 PUSH0 REVERT JUMPDEST POP PUSH1 0x4 CALLDATASIZE LT PUSH2 0xA6 JUMPI PUSH0 CALLDATALOAD PUSH1 0xE0 SHR DUP1 PUSH4 0x9754A3A8 GT PUSH2 0x6E JUMPI DUP1 PUSH4 0x9754A3A8 EQ PUSH2 0x176 JUMPI DUP1 PUSH4 0xABF653BD EQ PUSH2 0x18B JUMPI DUP1 PUSH4 0xC477ECAB EQ PUSH2 0x19E JUMPI DUP1 PUSH4 0xE35309EA EQ PUSH2 0x1BE JUMPI DUP1 PUSH4 0xE792DD8A EQ PUSH2 0x1D1 JUMPI DUP1 PUSH4 0xED39A17D EQ PUSH2 0x1F7 JUMPI PUSH0 PUSH0 REVERT JUMPDEST DUP1 PUSH4 0x2DA78C2D EQ PUSH2 0xAA JUMPI DUP1 PUSH4 0x4526F690 EQ PUSH2 0xC5 JUMPI DUP1 PUSH4 0x74D0A676 EQ PUSH2 0xE5 JUMPI DUP1 PUSH4 0x7D9E10F5 EQ PUSH2 0xFA JUMPI DUP1 PUSH4 0x8DA5CB5B EQ PUSH2 0x137 JUMPI JUMPDEST PUSH0 PUSH0 REVERT JUMPDEST PUSH2 0xB2 PUSH0 SLOAD DUP2 JUMP JUMPDEST PUSH1 0x40 MLOAD SWAP1 DUP2 MSTORE PUSH1 0x20 ADD JUMPDEST PUSH1 0x40 MLOAD DUP1 SWAP2 SUB SWAP1 RETURN JUMPDEST PUSH2 0xD8 PUSH2 0xD3 CALLDATASIZE PUSH1 0x4 PUSH2 0x1342 JUMP JUMPDEST PUSH2 0x20A JUMP JUMPDEST PUSH1 0x40 MLOAD PUSH2 0xBC SWAP2 SWAP1 PUSH2 0x147B JUMP JUMPDEST PUSH2 0xF8 PUSH2 0xF3 CALLDATASIZE PUSH1 0x4 PUSH2 0x14AF JUMP JUMPDEST PUSH2 0x48E JUMP JUMPDEST STOP JUMPDEST PUSH2 0x127 PUSH2 0x108 CALLDATASIZE PUSH1 0x4 PUSH2 0x14AF JUMP JUMPDEST PUSH1 0x2 PUSH1 0x20 SWAP1 DUP2 MSTORE PUSH0 SWAP3 DUP4 MSTORE PUSH1 0x40 DUP1 DUP5 KECCAK256 SWAP1 SWAP2 MSTORE SWAP1 DUP3 MSTORE SWAP1 KECCAK256 SLOAD PUSH1 0xFF AND DUP2 JUMP JUMPDEST PUSH1 0x40 MLOAD SWAP1 ISZERO ISZERO DUP2 MSTORE PUSH1 0x20 ADD PUSH2 0xBC JUMP JUMPDEST PUSH2 0x15E PUSH32 0x0 DUP2 JUMP JUMPDEST PUSH1 0x40 MLOAD PUSH1 0x1 PUSH1 0x1 PUSH1 0xA0 SHL SUB SWAP1 SWAP2 AND DUP2 MSTORE PUSH1 0x20 ADD PUSH2 0xBC JUMP JUMPDEST PUSH2 0x17E PUSH2 0x700 JUMP JUMPDEST PUSH1 0x40 MLOAD PUSH2 0xBC SWAP2 SWAP1 PUSH2 0x14D9 JUMP JUMPDEST PUSH2 0xF8 PUSH2 0x199 CALLDATASIZE PUSH1 0x4 PUSH2 0x15DB JUMP JUMPDEST PUSH2 0x92B JUMP JUMPDEST PUSH2 0x1B1 PUSH2 0x1AC CALLDATASIZE PUSH1 0x4 PUSH2 0x1342 JUMP JUMPDEST PUSH2 0xB44 JUMP JUMPDEST PUSH1 0x40 MLOAD PUSH2 0xBC SWAP2 SWAP1 PUSH2 0x161F JUMP JUMPDEST PUSH2 0xF8 PUSH2 0x1CC CALLDATASIZE PUSH1 0x4 PUSH2 0x166A JUMP JUMPDEST PUSH2 0xBEB JUMP JUMPDEST PUSH2 0x1E4 PUSH2 0x1DF CALLDATASIZE PUSH1 0x4 PUSH2 0x1342 JUMP JUMPDEST PUSH2 0xE24 JUMP JUMPDEST PUSH1 0x40 MLOAD PUSH2 0xBC SWAP8 SWAP7 SWAP6 SWAP5 SWAP4 SWAP3 SWAP2 SWAP1 PUSH2 0x16D7 JUMP JUMPDEST PUSH2 0xF8 PUSH2 0x205 CALLDATASIZE PUSH1 0x4 PUSH2 0x1737 JUMP JUMPDEST PUSH2 0xF92 JUMP JUMPDEST PUSH2 0x261 PUSH1 0x40 MLOAD DUP1 PUSH2 0x100 ADD PUSH1 0x40 MSTORE DUP1 PUSH1 0x60 DUP2 MSTORE PUSH1 0x20 ADD PUSH0 PUSH1 0x1 PUSH1 0x1 PUSH1 0xA0 SHL SUB AND DUP2 MSTORE PUSH1 0x20 ADD PUSH0 PUSH1 0x1 PUSH1 0x1 PUSH1 0xA0 SHL SUB AND DUP2 MSTORE PUSH1 0x20 ADD PUSH0 DUP2 MSTORE PUSH1 0x20 ADD PUSH0 DUP2 MSTORE PUSH1 0x20 ADD PUSH1 0x60 DUP2 MSTORE PUSH1 0x20 ADD PUSH1 0x60 DUP2 MSTORE PUSH1 0x20 ADD PUSH0 ISZERO ISZERO DUP2 MSTORE POP SWAP1 JUMP JUMPDEST PUSH1 0x1 SLOAD DUP3 SWAP1 DUP2 LT PUSH2 0x28D JUMPI PUSH1 0x40 MLOAD PUSH3 0x461BCD PUSH1 0xE5 SHL DUP2 MSTORE PUSH1 0x4 ADD PUSH2 0x284 SWAP1 PUSH2 0x1795 JUMP JUMPDEST PUSH1 0x40 MLOAD DUP1 SWAP2 SUB SWAP1 REVERT JUMPDEST PUSH1 0x1 DUP4 DUP2 SLOAD DUP2 LT PUSH2 0x2A0 JUMPI PUSH2 0x2A0 PUSH2 0x17CC JUMP JUMPDEST SWAP1 PUSH0 MSTORE PUSH1 0x20 PUSH0 KECCAK256 SWAP1 PUSH1 0x8 MUL ADD PUSH1 0x40 MLOAD DUP1 PUSH2 0x100 ADD PUSH1 0x40 MSTORE SWAP1 DUP2 PUSH0 DUP3 ADD DUP1 SLOAD PUSH2 0x2C7 SWAP1 PUSH2 0x17E0 JUMP JUMPDEST DUP1 PUSH1 0x1F ADD PUSH1 0x20 DUP1 SWAP2 DIV MUL PUSH1 0x20 ADD PUSH1 0x40 MLOAD SWAP1 DUP2 ADD PUSH1 0x40 MSTORE DUP1 SWAP3 SWAP2 SWAP1 DUP2 DUP2 MSTORE PUSH1 0x20 ADD DUP3 DUP1 SLOAD PUSH2 0x2F3 SWAP1 PUSH2 0x17E0 JUMP JUMPDEST DUP1 ISZERO PUSH2 0x33E JUMPI DUP1 PUSH1 0x1F LT PUSH2 0x315 JUMPI PUSH2 0x100 DUP1 DUP4 SLOAD DIV MUL DUP4 MSTORE SWAP2 PUSH1 0x20 ADD SWAP2 PUSH2 0x33E JUMP JUMPDEST DUP3 ADD SWAP2 SWAP1 PUSH0 MSTORE PUSH1 0x20 PUSH0 KECCAK256 SWAP1 JUMPDEST DUP2 SLOAD DUP2 MSTORE SWAP1 PUSH1 0x1 ADD SWAP1 PUSH1 0x20 ADD DUP1 DUP4 GT PUSH2 0x321 JUMPI DUP3 SWAP1 SUB PUSH1 0x1F AND DUP3 ADD SWAP2 JUMPDEST POP POP POP SWAP2 DUP4 MSTORE POP POP PUSH1 0x1 DUP3 ADD SLOAD PUSH1 0x1 PUSH1 0x1 PUSH1 0xA0 SHL SUB SWAP1 DUP2 AND PUSH1 0x20 DUP1 DUP5 ADD SWAP2 SWAP1 SWAP2 MSTORE PUSH1 0x2 DUP5 ADD SLOAD SWAP1 SWAP2 AND PUSH1 0x40 DUP1 DUP5 ADD SWAP2 SWAP1 SWAP2 MSTORE PUSH1 0x3 DUP5 ADD SLOAD PUSH1 0x60 DUP5 ADD MSTORE PUSH1 0x4 DUP5 ADD SLOAD PUSH1 0x80 DUP5 ADD MSTORE PUSH1 0x5 DUP5 ADD DUP1 SLOAD DUP3 MLOAD DUP2 DUP6 MUL DUP2 ADD DUP6 ADD SWAP1 SWAP4 MSTORE DUP1 DUP4 MSTORE PUSH1 0xA0 SWAP1 SWAP5 ADD SWAP4 SWAP2 SWAP3 SWAP1 SWAP2 SWAP1 DUP4 ADD DUP3 DUP3 DUP1 ISZERO PUSH2 0x3DB JUMPI PUSH1 0x20 MUL DUP3 ADD SWAP2 SWAP1 PUSH0 MSTORE PUSH1 0x20 PUSH0 KECCAK256 SWAP1 JUMPDEST DUP2 SLOAD PUSH1 0x1 PUSH1 0x1 PUSH1 0xA0 SHL SUB AND DUP2 MSTORE PUSH1 0x1 SWAP1 SWAP2 ADD SWAP1 PUSH1 0x20 ADD DUP1 DUP4 GT PUSH2 0x3BD JUMPI JUMPDEST POP POP POP POP POP DUP2 MSTORE PUSH1 0x20 ADD PUSH1 0x6 DUP3 ADD DUP1 SLOAD PUSH2 0x3F4 SWAP1 PUSH2 0x17E0 JUMP JUMPDEST DUP1 PUSH1 0x1F ADD PUSH1 0x20 DUP1 SWAP2 DIV MUL PUSH1 0x20 ADD PUSH1 0x40 MLOAD SWAP1 DUP2 ADD PUSH1 0x40 MSTORE DUP1 SWAP3 SWAP2 SWAP1 DUP2 DUP2 MSTORE PUSH1 0x20 ADD DUP3 DUP1 SLOAD PUSH2 0x420 SWAP1 PUSH2 0x17E0 JUMP JUMPDEST DUP1 ISZERO PUSH2 0x46B JUMPI DUP1 PUSH1 0x1F LT PUSH2 0x442 JUMPI PUSH2 0x100 DUP1 DUP4 SLOAD DIV MUL DUP4 MSTORE SWAP2 PUSH1 0x20 ADD SWAP2 PUSH2 0x46B JUMP JUMPDEST DUP3 ADD SWAP2 SWAP1 PUSH0 MSTORE PUSH1 0x20 PUSH0 KECCAK256 SWAP1 JUMPDEST DUP2 SLOAD DUP2 MSTORE SWAP1 PUSH1 0x1 ADD SWAP1 PUSH1 0x20 ADD DUP1 DUP4 GT PUSH2 0x44E JUMPI DUP3 SWAP1 SUB PUSH1 0x1F AND DUP3 ADD SWAP2 JUMPDEST POP POP POP SWAP2 DUP4 MSTORE POP POP PUSH1 0x7 SWAP2 SWAP1 SWAP2 ADD SLOAD PUSH1 0xFF AND ISZERO ISZERO PUSH1 0x20 SWAP1 SWAP2 ADD MSTORE SWAP2 POP JUMPDEST POP SWAP2 SWAP1 POP JUMP JUMPDEST PUSH1 0x1 SLOAD DUP3 SWAP1 DUP2 LT PUSH2 0x4B1 JUMPI PUSH1 0x40 MLOAD PUSH3 0x461BCD PUSH1 0xE5 SHL DUP2 MSTORE PUSH1 0x4 ADD PUSH2 0x284 SWAP1 PUSH2 0x1795 JUMP JUMPDEST DUP3 PUSH1 0x1 DUP2 DUP2 SLOAD DUP2 LT PUSH2 0x4C5 JUMPI PUSH2 0x4C5 PUSH2 0x17CC JUMP JUMPDEST PUSH0 SWAP2 DUP3 MSTORE PUSH1 0x20 SWAP1 SWAP2 KECCAK256 PUSH1 0x8 SWAP1 SWAP2 MUL ADD PUSH1 0x2 ADD SLOAD PUSH1 0x1 PUSH1 0x1 PUSH1 0xA0 SHL SUB AND CALLER EQ PUSH2 0x4FF JUMPI PUSH1 0x40 MLOAD PUSH3 0x461BCD PUSH1 0xE5 SHL DUP2 MSTORE PUSH1 0x4 ADD PUSH2 0x284 SWAP1 PUSH2 0x1812 JUMP JUMPDEST DUP4 PUSH1 0x1 DUP2 DUP2 SLOAD DUP2 LT PUSH2 0x513 JUMPI PUSH2 0x513 PUSH2 0x17CC JUMP JUMPDEST PUSH0 SWAP2 DUP3 MSTORE PUSH1 0x20 SWAP1 SWAP2 KECCAK256 PUSH1 0x7 PUSH1 0x8 SWAP1 SWAP3 MUL ADD ADD SLOAD PUSH1 0xFF AND PUSH2 0x570 JUMPI PUSH1 0x40 MLOAD PUSH3 0x461BCD PUSH1 0xE5 SHL DUP2 MSTORE PUSH1 0x20 PUSH1 0x4 DUP3 ADD MSTORE PUSH1 0x18 PUSH1 0x24 DUP3 ADD MSTORE PUSH24 0x4F7267616E697A6174696F6E20697320696E616374697665 PUSH1 0x40 SHL PUSH1 0x44 DUP3 ADD MSTORE PUSH1 0x64 ADD PUSH2 0x284 JUMP JUMPDEST PUSH1 0x1 PUSH1 0x1 PUSH1 0xA0 SHL SUB DUP5 AND PUSH2 0x5BF JUMPI PUSH1 0x40 MLOAD PUSH3 0x461BCD PUSH1 0xE5 SHL DUP2 MSTORE PUSH1 0x20 PUSH1 0x4 DUP3 ADD MSTORE PUSH1 0x16 PUSH1 0x24 DUP3 ADD MSTORE PUSH22 0x496E76616C6964206D656D6265722061646472657373 PUSH1 0x50 SHL PUSH1 0x44 DUP3 ADD MSTORE PUSH1 0x64 ADD PUSH2 0x284 JUMP JUMPDEST PUSH0 DUP6 DUP2 MSTORE PUSH1 0x2 PUSH1 0x20 SWAP1 DUP2 MSTORE PUSH1 0x40 DUP1 DUP4 KECCAK256 PUSH1 0x1 PUSH1 0x1 PUSH1 0xA0 SHL SUB DUP9 AND DUP5 MSTORE SWAP1 SWAP2 MSTORE SWAP1 KECCAK256 SLOAD PUSH1 0xFF AND ISZERO PUSH2 0x629 JUMPI PUSH1 0x40 MLOAD PUSH3 0x461BCD PUSH1 0xE5 SHL DUP2 MSTORE PUSH1 0x20 PUSH1 0x4 DUP3 ADD MSTORE PUSH1 0x15 PUSH1 0x24 DUP3 ADD MSTORE PUSH21 0x4D656D62657220616C726561647920657869737473 PUSH1 0x58 SHL PUSH1 0x44 DUP3 ADD MSTORE PUSH1 0x64 ADD PUSH2 0x284 JUMP JUMPDEST PUSH1 0x1 DUP6 DUP2 SLOAD DUP2 LT PUSH2 0x63C JUMPI PUSH2 0x63C PUSH2 0x17CC JUMP JUMPDEST PUSH0 SWAP2 DUP3 MSTORE PUSH1 0x20 DUP1 DUP4 KECCAK256 PUSH1 0x8 SWAP3 SWAP1 SWAP3 MUL SWAP1 SWAP2 ADD PUSH1 0x5 ADD DUP1 SLOAD PUSH1 0x1 DUP1 DUP3 ADD DUP4 SSTORE SWAP2 DUP5 MSTORE DUP3 DUP5 KECCAK256 ADD DUP1 SLOAD PUSH1 0x1 PUSH1 0x1 PUSH1 0xA0 SHL SUB NOT AND PUSH1 0x1 PUSH1 0x1 PUSH1 0xA0 SHL SUB DUP10 AND SWAP1 DUP2 OR SWAP1 SWAP2 SSTORE DUP9 DUP5 MSTORE PUSH1 0x2 DUP4 MSTORE PUSH1 0x40 DUP1 DUP6 KECCAK256 SWAP2 DUP6 MSTORE SWAP3 MSTORE SWAP2 KECCAK256 DUP1 SLOAD PUSH1 0xFF NOT AND DUP3 OR SWAP1 SSTORE DUP1 SLOAD TIMESTAMP SWAP2 SWAP1 DUP8 SWAP1 DUP2 LT PUSH2 0x6AF JUMPI PUSH2 0x6AF PUSH2 0x17CC JUMP JUMPDEST SWAP1 PUSH0 MSTORE PUSH1 0x20 PUSH0 KECCAK256 SWAP1 PUSH1 0x8 MUL ADD PUSH1 0x4 ADD DUP2 SWAP1 SSTORE POP DUP4 PUSH1 0x1 PUSH1 0x1 PUSH1 0xA0 SHL SUB AND DUP6 PUSH32 0xF328AC0F8BCAE00933FE87BA0AA2D0D505C1DF94BC9C1AA05B8441C28B74032C PUSH1 0x40 MLOAD PUSH1 0x40 MLOAD DUP1 SWAP2 SUB SWAP1 LOG3 POP POP POP POP POP JUMP JUMPDEST PUSH1 0x60 PUSH1 0x1 DUP1 SLOAD DUP1 PUSH1 0x20 MUL PUSH1 0x20 ADD PUSH1 0x40 MLOAD SWAP1 DUP2 ADD PUSH1 0x40 MSTORE DUP1 SWAP3 SWAP2 SWAP1 DUP2 DUP2 MSTORE PUSH1 0x20 ADD PUSH0 SWAP1 JUMPDEST DUP3 DUP3 LT ISZERO PUSH2 0x922 JUMPI DUP4 DUP3 SWAP1 PUSH0 MSTORE PUSH1 0x20 PUSH0 KECCAK256 SWAP1 PUSH1 0x8 MUL ADD PUSH1 0x40 MLOAD DUP1 PUSH2 0x100 ADD PUSH1 0x40 MSTORE SWAP1 DUP2 PUSH0 DUP3 ADD DUP1 SLOAD PUSH2 0x754 SWAP1 PUSH2 0x17E0 JUMP JUMPDEST DUP1 PUSH1 0x1F ADD PUSH1 0x20 DUP1 SWAP2 DIV MUL PUSH1 0x20 ADD PUSH1 0x40 MLOAD SWAP1 DUP2 ADD PUSH1 0x40 MSTORE DUP1 SWAP3 SWAP2 SWAP1 DUP2 DUP2 MSTORE PUSH1 0x20 ADD DUP3 DUP1 SLOAD PUSH2 0x780 SWAP1 PUSH2 0x17E0 JUMP JUMPDEST DUP1 ISZERO PUSH2 0x7CB JUMPI DUP1 PUSH1 0x1F LT PUSH2 0x7A2 JUMPI PUSH2 0x100 DUP1 DUP4 SLOAD DIV MUL DUP4 MSTORE SWAP2 PUSH1 0x20 ADD SWAP2 PUSH2 0x7CB JUMP JUMPDEST DUP3 ADD SWAP2 SWAP1 PUSH0 MSTORE PUSH1 0x20 PUSH0 KECCAK256 SWAP1 JUMPDEST DUP2 SLOAD DUP2 MSTORE SWAP1 PUSH1 0x1 ADD SWAP1 PUSH1 0x20 ADD DUP1 DUP4 GT PUSH2 0x7AE JUMPI DUP3 SWAP1 SUB PUSH1 0x1F AND DUP3 ADD SWAP2 JUMPDEST POP POP POP SWAP2 DUP4 MSTORE POP POP PUSH1 0x1 DUP3 ADD SLOAD PUSH1 0x1 PUSH1 0x1 PUSH1 0xA0 SHL SUB SWAP1 DUP2 AND PUSH1 0x20 DUP1 DUP5 ADD SWAP2 SWAP1 SWAP2 MSTORE PUSH1 0x2 DUP5 ADD SLOAD SWAP1 SWAP2 AND PUSH1 0x40 DUP1 DUP5 ADD SWAP2 SWAP1 SWAP2 MSTORE PUSH1 0x3 DUP5 ADD SLOAD PUSH1 0x60 DUP5 ADD MSTORE PUSH1 0x4 DUP5 ADD SLOAD PUSH1 0x80 DUP5 ADD MSTORE PUSH1 0x5 DUP5 ADD DUP1 SLOAD DUP3 MLOAD DUP2 DUP6 MUL DUP2 ADD DUP6 ADD SWAP1 SWAP4 MSTORE DUP1 DUP4 MSTORE PUSH1 0xA0 SWAP1 SWAP5 ADD SWAP4 SWAP2 SWAP3 SWAP1 SWAP2 SWAP1 DUP4 ADD DUP3 DUP3 DUP1 ISZERO PUSH2 0x868 JUMPI PUSH1 0x20 MUL DUP3 ADD SWAP2 SWAP1 PUSH0 MSTORE PUSH1 0x20 PUSH0 KECCAK256 SWAP1 JUMPDEST DUP2 SLOAD PUSH1 0x1 PUSH1 0x1 PUSH1 0xA0 SHL SUB AND DUP2 MSTORE PUSH1 0x1 SWAP1 SWAP2 ADD SWAP1 PUSH1 0x20 ADD DUP1 DUP4 GT PUSH2 0x84A JUMPI JUMPDEST POP POP POP POP POP DUP2 MSTORE PUSH1 0x20 ADD PUSH1 0x6 DUP3 ADD DUP1 SLOAD PUSH2 0x881 SWAP1 PUSH2 0x17E0 JUMP JUMPDEST DUP1 PUSH1 0x1F ADD PUSH1 0x20 DUP1 SWAP2 DIV MUL PUSH1 0x20 ADD PUSH1 0x40 MLOAD SWAP1 DUP2 ADD PUSH1 0x40 MSTORE DUP1 SWAP3 SWAP2 SWAP1 DUP2 DUP2 MSTORE PUSH1 0x20 ADD DUP3 DUP1 SLOAD PUSH2 0x8AD SWAP1 PUSH2 0x17E0 JUMP JUMPDEST DUP1 ISZERO PUSH2 0x8F8 JUMPI DUP1 PUSH1 0x1F LT PUSH2 0x8CF JUMPI PUSH2 0x100 DUP1 DUP4 SLOAD DIV MUL DUP4 MSTORE SWAP2 PUSH1 0x20 ADD SWAP2 PUSH2 0x8F8 JUMP JUMPDEST DUP3 ADD SWAP2 SWAP1 PUSH0 MSTORE PUSH1 0x20 PUSH0 KECCAK256 SWAP1 JUMPDEST DUP2 SLOAD DUP2 MSTORE SWAP1 PUSH1 0x1 ADD SWAP1 PUSH1 0x20 ADD DUP1 DUP4 GT PUSH2 0x8DB JUMPI DUP3 SWAP1 SUB PUSH1 0x1F AND DUP3 ADD SWAP2 JUMPDEST POP POP POP SWAP2 DUP4 MSTORE POP POP PUSH1 0x7 SWAP2 SWAP1 SWAP2 ADD SLOAD PUSH1 0xFF AND ISZERO ISZERO PUSH1 0x20 SWAP2 DUP3 ADD MSTORE SWAP1 DUP3 MSTORE PUSH1 0x1 SWAP3 SWAP1 SWAP3 ADD SWAP2 ADD PUSH2 0x723 JUMP JUMPDEST POP POP POP POP SWAP1 POP SWAP1 JUMP JUMPDEST PUSH1 0x1 SLOAD DUP3 SWAP1 DUP2 LT PUSH2 0x94E JUMPI PUSH1 0x40 MLOAD PUSH3 0x461BCD PUSH1 0xE5 SHL DUP2 MSTORE PUSH1 0x4 ADD PUSH2 0x284 SWAP1 PUSH2 0x1795 JUMP JUMPDEST CALLER PUSH1 0x1 PUSH1 0x1 PUSH1 0xA0 SHL SUB PUSH32 0x0 AND EQ PUSH2 0x9EC JUMPI PUSH1 0x40 MLOAD PUSH3 0x461BCD PUSH1 0xE5 SHL DUP2 MSTORE PUSH1 0x20 PUSH1 0x4 DUP3 ADD MSTORE PUSH1 0x37 PUSH1 0x24 DUP3 ADD MSTORE PUSH32 0x4F6E6C792074686520636F6E7472616374206F776E65722063616E2064656163 PUSH1 0x44 DUP3 ADD MSTORE PUSH32 0x74697661746520746865206F7267616E697A6174696F6E000000000000000000 PUSH1 0x64 DUP3 ADD MSTORE PUSH1 0x84 ADD PUSH2 0x284 JUMP JUMPDEST PUSH1 0x1 DUP4 DUP2 SLOAD DUP2 LT PUSH2 0x9FF JUMPI PUSH2 0x9FF PUSH2 0x17CC JUMP JUMPDEST PUSH0 SWAP2 DUP3 MSTORE PUSH1 0x20 SWAP1 SWAP2 KECCAK256 PUSH1 0x7 PUSH1 0x8 SWAP1 SWAP3 MUL ADD ADD SLOAD PUSH1 0xFF AND PUSH2 0xA61 JUMPI PUSH1 0x40 MLOAD PUSH3 0x461BCD PUSH1 0xE5 SHL DUP2 MSTORE PUSH1 0x20 PUSH1 0x4 DUP3 ADD MSTORE PUSH1 0x1D PUSH1 0x24 DUP3 ADD MSTORE PUSH32 0x4F7267616E697A6174696F6E20616C726561647920696E616374697665000000 PUSH1 0x44 DUP3 ADD MSTORE PUSH1 0x64 ADD PUSH2 0x284 JUMP JUMPDEST PUSH0 PUSH1 0x1 DUP5 DUP2 SLOAD DUP2 LT PUSH2 0xA75 JUMPI PUSH2 0xA75 PUSH2 0x17CC JUMP JUMPDEST SWAP1 PUSH0 MSTORE PUSH1 0x20 PUSH0 KECCAK256 SWAP1 PUSH1 0x8 MUL ADD PUSH1 0x7 ADD PUSH0 PUSH2 0x100 EXP DUP2 SLOAD DUP2 PUSH1 0xFF MUL NOT AND SWAP1 DUP4 ISZERO ISZERO MUL OR SWAP1 SSTORE POP TIMESTAMP PUSH1 0x1 DUP5 DUP2 SLOAD DUP2 LT PUSH2 0xAAE JUMPI PUSH2 0xAAE PUSH2 0x17CC JUMP JUMPDEST SWAP1 PUSH0 MSTORE PUSH1 0x20 PUSH0 KECCAK256 SWAP1 PUSH1 0x8 MUL ADD PUSH1 0x4 ADD DUP2 SWAP1 SSTORE POP PUSH0 PUSH0 DUP2 SLOAD PUSH2 0xACE SWAP1 PUSH2 0x186C JUMP JUMPDEST SWAP1 SWAP2 SSTORE POP PUSH1 0x40 MLOAD PUSH0 DUP2 MSTORE DUP4 SWAP1 PUSH32 0x1F5EEF396F0126DB889CD46F4CA63A15CC149B1EB0539888878F748A76297711 SWAP1 PUSH1 0x20 ADD PUSH1 0x40 MLOAD DUP1 SWAP2 SUB SWAP1 LOG2 DUP3 PUSH32 0xB65F432BA3873BCFFA1712074C16990DDA95CBE52FBE3F0889E9233243BA8891 DUP4 PUSH1 0x40 MLOAD PUSH2 0xB37 SWAP2 SWAP1 PUSH2 0x1881 JUMP JUMPDEST PUSH1 0x40 MLOAD DUP1 SWAP2 SUB SWAP1 LOG2 POP POP POP JUMP JUMPDEST PUSH1 0x1 SLOAD PUSH1 0x60 SWAP1 DUP3 SWAP1 DUP2 LT PUSH2 0xB6A JUMPI PUSH1 0x40 MLOAD PUSH3 0x461BCD PUSH1 0xE5 SHL DUP2 MSTORE PUSH1 0x4 ADD PUSH2 0x284 SWAP1 PUSH2 0x1795 JUMP JUMPDEST PUSH1 0x1 DUP4 DUP2 SLOAD DUP2 LT PUSH2 0xB7D JUMPI PUSH2 0xB7D PUSH2 0x17CC JUMP JUMPDEST SWAP1 PUSH0 MSTORE PUSH1 0x20 PUSH0 KECCAK256 SWAP1 PUSH1 0x8 MUL ADD PUSH1 0x5 ADD DUP1 SLOAD DUP1 PUSH1 0x20 MUL PUSH1 0x20 ADD PUSH1 0x40 MLOAD SWAP1 DUP2 ADD PUSH1 0x40 MSTORE DUP1 SWAP3 SWAP2 SWAP1 DUP2 DUP2 MSTORE PUSH1 0x20 ADD DUP3 DUP1 SLOAD DUP1 ISZERO PUSH2 0xBDE JUMPI PUSH1 0x20 MUL DUP3 ADD SWAP2 SWAP1 PUSH0 MSTORE PUSH1 0x20 PUSH0 KECCAK256 SWAP1 JUMPDEST DUP2 SLOAD PUSH1 0x1 PUSH1 0x1 PUSH1 0xA0 SHL SUB AND DUP2 MSTORE PUSH1 0x1 SWAP1 SWAP2 ADD SWAP1 PUSH1 0x20 ADD DUP1 DUP4 GT PUSH2 0xBC0 JUMPI JUMPDEST POP POP POP POP POP SWAP2 POP POP SWAP2 SWAP1 POP JUMP JUMPDEST PUSH1 0x1 SLOAD DUP4 SWAP1 DUP2 LT PUSH2 0xC0E JUMPI PUSH1 0x40 MLOAD PUSH3 0x461BCD PUSH1 0xE5 SHL DUP2 MSTORE PUSH1 0x4 ADD PUSH2 0x284 SWAP1 PUSH2 0x1795 JUMP JUMPDEST DUP4 PUSH1 0x1 DUP2 DUP2 SLOAD DUP2 LT PUSH2 0xC22 JUMPI PUSH2 0xC22 PUSH2 0x17CC JUMP JUMPDEST PUSH0 SWAP2 DUP3 MSTORE PUSH1 0x20 SWAP1 SWAP2 KECCAK256 PUSH1 0x8 SWAP1 SWAP2 MUL ADD PUSH1 0x2 ADD SLOAD PUSH1 0x1 PUSH1 0x1 PUSH1 0xA0 SHL SUB AND CALLER EQ PUSH2 0xC5C JUMPI PUSH1 0x40 MLOAD PUSH3 0x461BCD PUSH1 0xE5 SHL DUP2 MSTORE PUSH1 0x4 ADD PUSH2 0x284 SWAP1 PUSH2 0x1812 JUMP JUMPDEST DUP5 PUSH1 0x1 DUP2 DUP2 SLOAD DUP2 LT PUSH2 0xC70 JUMPI PUSH2 0xC70 PUSH2 0x17CC JUMP JUMPDEST PUSH0 SWAP2 DUP3 MSTORE PUSH1 0x20 SWAP1 SWAP2 KECCAK256 PUSH1 0x7 PUSH1 0x8 SWAP1 SWAP3 MUL ADD ADD SLOAD PUSH1 0xFF AND PUSH2 0xCCD JUMPI PUSH1 0x40 MLOAD PUSH3 0x461BCD PUSH1 0xE5 SHL DUP2 MSTORE PUSH1 0x20 PUSH1 0x4 DUP3 ADD MSTORE PUSH1 0x18 PUSH1 0x24 DUP3 ADD MSTORE PUSH24 0x4F7267616E697A6174696F6E20697320696E616374697665 PUSH1 0x40 SHL PUSH1 0x44 DUP3 ADD MSTORE PUSH1 0x64 ADD PUSH2 0x284 JUMP JUMPDEST PUSH0 DUP6 MLOAD GT PUSH2 0xD10 JUMPI PUSH1 0x40 MLOAD PUSH3 0x461BCD PUSH1 0xE5 SHL DUP2 MSTORE PUSH1 0x20 PUSH1 0x4 DUP3 ADD MSTORE PUSH1 0x10 PUSH1 0x24 DUP3 ADD MSTORE PUSH16 0x13985B59481A5CC81C995C5D5A5C9959 PUSH1 0x82 SHL PUSH1 0x44 DUP3 ADD MSTORE PUSH1 0x64 ADD PUSH2 0x284 JUMP JUMPDEST PUSH0 DUP5 MLOAD GT PUSH2 0xD5C JUMPI PUSH1 0x40 MLOAD PUSH3 0x461BCD PUSH1 0xE5 SHL DUP2 MSTORE PUSH1 0x20 PUSH1 0x4 DUP3 ADD MSTORE PUSH1 0x19 PUSH1 0x24 DUP3 ADD MSTORE PUSH25 0x115B98DC9E5C1D195908155493081A5CC81C995C5D5A5C9959 PUSH1 0x3A SHL PUSH1 0x44 DUP3 ADD MSTORE PUSH1 0x64 ADD PUSH2 0x284 JUMP JUMPDEST DUP5 PUSH1 0x1 DUP8 DUP2 SLOAD DUP2 LT PUSH2 0xD70 JUMPI PUSH2 0xD70 PUSH2 0x17CC JUMP JUMPDEST SWAP1 PUSH0 MSTORE PUSH1 0x20 PUSH0 KECCAK256 SWAP1 PUSH1 0x8 MUL ADD PUSH0 ADD SWAP1 DUP2 PUSH2 0xD8A SWAP2 SWAP1 PUSH2 0x18DF JUMP JUMPDEST POP DUP4 PUSH1 0x1 DUP8 DUP2 SLOAD DUP2 LT PUSH2 0xD9F JUMPI PUSH2 0xD9F PUSH2 0x17CC JUMP JUMPDEST SWAP1 PUSH0 MSTORE PUSH1 0x20 PUSH0 KECCAK256 SWAP1 PUSH1 0x8 MUL ADD PUSH1 0x6 ADD SWAP1 DUP2 PUSH2 0xDBA SWAP2 SWAP1 PUSH2 0x18DF JUMP JUMPDEST POP TIMESTAMP PUSH1 0x1 DUP8 DUP2 SLOAD DUP2 LT PUSH2 0xDCF JUMPI PUSH2 0xDCF PUSH2 0x17CC JUMP JUMPDEST SWAP1 PUSH0 MSTORE PUSH1 0x20 PUSH0 KECCAK256 SWAP1 PUSH1 0x8 MUL ADD PUSH1 0x4 ADD DUP2 SWAP1 SSTORE POP DUP6 PUSH32 0xDA238709A4AD4D2D617AA517F02CFFDD5B443BC1173FED5AA4BFCC0AA3712293 DUP7 DUP7 PUSH1 0x40 MLOAD PUSH2 0xE14 SWAP3 SWAP2 SWAP1 PUSH2 0x199A JUMP JUMPDEST PUSH1 0x40 MLOAD DUP1 SWAP2 SUB SWAP1 LOG2 POP POP POP POP POP POP JUMP JUMPDEST PUSH1 0x1 DUP2 DUP2 SLOAD DUP2 LT PUSH2 0xE33 JUMPI PUSH0 DUP1 REVERT JUMPDEST SWAP1 PUSH0 MSTORE PUSH1 0x20 PUSH0 KECCAK256 SWAP1 PUSH1 0x8 MUL ADD PUSH0 SWAP2 POP SWAP1 POP DUP1 PUSH0 ADD DUP1 SLOAD PUSH2 0xE52 SWAP1 PUSH2 0x17E0 JUMP JUMPDEST DUP1 PUSH1 0x1F ADD PUSH1 0x20 DUP1 SWAP2 DIV MUL PUSH1 0x20 ADD PUSH1 0x40 MLOAD SWAP1 DUP2 ADD PUSH1 0x40 MSTORE DUP1 SWAP3 SWAP2 SWAP1 DUP2 DUP2 MSTORE PUSH1 0x20 ADD DUP3 DUP1 SLOAD PUSH2 0xE7E SWAP1 PUSH2 0x17E0 JUMP JUMPDEST DUP1 ISZERO PUSH2 0xEC9 JUMPI DUP1 PUSH1 0x1F LT PUSH2 0xEA0 JUMPI PUSH2 0x100 DUP1 DUP4 SLOAD DIV MUL DUP4 MSTORE SWAP2 PUSH1 0x20 ADD SWAP2 PUSH2 0xEC9 JUMP JUMPDEST DUP3 ADD SWAP2 SWAP1 PUSH0 MSTORE PUSH1 0x20 PUSH0 KECCAK256 SWAP1 JUMPDEST DUP2 SLOAD DUP2 MSTORE SWAP1 PUSH1 0x1 ADD SWAP1 PUSH1 0x20 ADD DUP1 DUP4 GT PUSH2 0xEAC JUMPI DUP3 SWAP1 SUB PUSH1 0x1F AND DUP3 ADD SWAP2 JUMPDEST POP POP POP PUSH1 0x1 DUP5 ADD SLOAD PUSH1 0x2 DUP6 ADD SLOAD PUSH1 0x3 DUP7 ADD SLOAD PUSH1 0x4 DUP8 ADD SLOAD PUSH1 0x6 DUP9 ADD DUP1 SLOAD SWAP8 SWAP9 PUSH1 0x1 PUSH1 0x1 PUSH1 0xA0 SHL SUB SWAP6 DUP7 AND SWAP9 SWAP5 SWAP1 SWAP6 AND SWAP7 POP SWAP2 SWAP5 POP SWAP3 SWAP2 PUSH2 0xF08 SWAP1 PUSH2 0x17E0 JUMP JUMPDEST DUP1 PUSH1 0x1F ADD PUSH1 0x20 DUP1 SWAP2 DIV MUL PUSH1 0x20 ADD PUSH1 0x40 MLOAD SWAP1 DUP2 ADD PUSH1 0x40 MSTORE DUP1 SWAP3 SWAP2 SWAP1 DUP2 DUP2 MSTORE PUSH1 0x20 ADD DUP3 DUP1 SLOAD PUSH2 0xF34 SWAP1 PUSH2 0x17E0 JUMP JUMPDEST DUP1 ISZERO PUSH2 0xF7F JUMPI DUP1 PUSH1 0x1F LT PUSH2 0xF56 JUMPI PUSH2 0x100 DUP1 DUP4 SLOAD DIV MUL DUP4 MSTORE SWAP2 PUSH1 0x20 ADD SWAP2 PUSH2 0xF7F JUMP JUMPDEST DUP3 ADD SWAP2 SWAP1 PUSH0 MSTORE PUSH1 0x20 PUSH0 KECCAK256 SWAP1 JUMPDEST DUP2 SLOAD DUP2 MSTORE SWAP1 PUSH1 0x1 ADD SWAP1 PUSH1 0x20 ADD DUP1 DUP4 GT PUSH2 0xF62 JUMPI DUP3 SWAP1 SUB PUSH1 0x1F AND DUP3 ADD SWAP2 JUMPDEST POP POP POP PUSH1 0x7 SWAP1 SWAP4 ADD SLOAD SWAP2 SWAP3 POP POP PUSH1 0xFF AND DUP8 JUMP JUMPDEST PUSH0 DUP4 MLOAD GT PUSH2 0xFD5 JUMPI PUSH1 0x40 MLOAD PUSH3 0x461BCD PUSH1 0xE5 SHL DUP2 MSTORE PUSH1 0x20 PUSH1 0x4 DUP3 ADD MSTORE PUSH1 0x10 PUSH1 0x24 DUP3 ADD MSTORE PUSH16 0x13985B59481A5CC81C995C5D5A5C9959 PUSH1 0x82 SHL PUSH1 0x44 DUP3 ADD MSTORE PUSH1 0x64 ADD PUSH2 0x284 JUMP JUMPDEST PUSH1 0x1 PUSH1 0x1 PUSH1 0xA0 SHL SUB DUP3 AND PUSH2 0x102B JUMPI PUSH1 0x40 MLOAD PUSH3 0x461BCD PUSH1 0xE5 SHL DUP2 MSTORE PUSH1 0x20 PUSH1 0x4 DUP3 ADD MSTORE PUSH1 0x1C PUSH1 0x24 DUP3 ADD MSTORE PUSH32 0x496E76616C6964206F7267616E697A6174696F6E206164647265737300000000 PUSH1 0x44 DUP3 ADD MSTORE PUSH1 0x64 ADD PUSH2 0x284 JUMP JUMPDEST PUSH0 DUP2 MLOAD GT PUSH2 0x1077 JUMPI PUSH1 0x40 MLOAD PUSH3 0x461BCD PUSH1 0xE5 SHL DUP2 MSTORE PUSH1 0x20 PUSH1 0x4 DUP3 ADD MSTORE PUSH1 0x19 PUSH1 0x24 DUP3 ADD MSTORE PUSH25 0x115B98DC9E5C1D195908155493081A5CC81C995C5D5A5C9959 PUSH1 0x3A SHL PUSH1 0x44 DUP3 ADD MSTORE PUSH1 0x64 ADD PUSH2 0x284 JUMP JUMPDEST PUSH1 0x1 PUSH1 0x40 MLOAD DUP1 PUSH2 0x100 ADD PUSH1 0x40 MSTORE DUP1 DUP6 DUP2 MSTORE PUSH1 0x20 ADD DUP5 PUSH1 0x1 PUSH1 0x1 PUSH1 0xA0 SHL SUB AND DUP2 MSTORE PUSH1 0x20 ADD CALLER PUSH1 0x1 PUSH1 0x1 PUSH1 0xA0 SHL SUB AND DUP2 MSTORE PUSH1 0x20 ADD TIMESTAMP DUP2 MSTORE PUSH1 0x20 ADD TIMESTAMP DUP2 MSTORE PUSH1 0x20 ADD PUSH0 PUSH8 0xFFFFFFFFFFFFFFFF DUP2 GT ISZERO PUSH2 0x10CE JUMPI PUSH2 0x10CE PUSH2 0x153C JUMP JUMPDEST PUSH1 0x40 MLOAD SWAP1 DUP1 DUP3 MSTORE DUP1 PUSH1 0x20 MUL PUSH1 0x20 ADD DUP3 ADD PUSH1 0x40 MSTORE DUP1 ISZERO PUSH2 0x10F7 JUMPI DUP2 PUSH1 0x20 ADD PUSH1 0x20 DUP3 MUL DUP1 CALLDATASIZE DUP4 CALLDATACOPY ADD SWAP1 POP JUMPDEST POP DUP2 MSTORE PUSH1 0x20 DUP1 DUP3 ADD DUP6 SWAP1 MSTORE PUSH1 0x1 PUSH1 0x40 SWAP1 SWAP3 ADD DUP3 SWAP1 MSTORE DUP4 SLOAD SWAP2 DUP3 ADD DUP5 SSTORE PUSH0 SWAP4 DUP5 MSTORE SWAP1 SWAP3 KECCAK256 DUP2 MLOAD SWAP2 SWAP3 PUSH1 0x8 MUL ADD SWAP1 DUP2 SWAP1 PUSH2 0x112F SWAP1 DUP3 PUSH2 0x18DF JUMP JUMPDEST POP PUSH1 0x20 DUP3 DUP2 ADD MLOAD PUSH1 0x1 DUP4 ADD DUP1 SLOAD PUSH1 0x1 PUSH1 0x1 PUSH1 0xA0 SHL SUB SWAP3 DUP4 AND PUSH1 0x1 PUSH1 0x1 PUSH1 0xA0 SHL SUB NOT SWAP2 DUP3 AND OR SWAP1 SWAP2 SSTORE PUSH1 0x40 DUP6 ADD MLOAD PUSH1 0x2 DUP6 ADD DUP1 SLOAD SWAP2 SWAP1 SWAP4 AND SWAP2 AND OR SWAP1 SSTORE PUSH1 0x60 DUP4 ADD MLOAD PUSH1 0x3 DUP4 ADD SSTORE PUSH1 0x80 DUP4 ADD MLOAD PUSH1 0x4 DUP4 ADD SSTORE PUSH1 0xA0 DUP4 ADD MLOAD DUP1 MLOAD PUSH2 0x1196 SWAP3 PUSH1 0x5 DUP6 ADD SWAP3 ADD SWAP1 PUSH2 0x12CB JUMP JUMPDEST POP PUSH1 0xC0 DUP3 ADD MLOAD PUSH1 0x6 DUP3 ADD SWAP1 PUSH2 0x11AB SWAP1 DUP3 PUSH2 0x18DF JUMP JUMPDEST POP PUSH1 0xE0 SWAP2 SWAP1 SWAP2 ADD MLOAD PUSH1 0x7 SWAP1 SWAP2 ADD DUP1 SLOAD PUSH1 0xFF NOT AND SWAP2 ISZERO ISZERO SWAP2 SWAP1 SWAP2 OR SWAP1 SSTORE PUSH1 0x1 DUP1 SLOAD PUSH0 SWAP2 PUSH2 0x11D6 SWAP2 PUSH2 0x19C7 JUMP JUMPDEST SWAP1 POP PUSH1 0x1 DUP2 DUP2 SLOAD DUP2 LT PUSH2 0x11EB JUMPI PUSH2 0x11EB PUSH2 0x17CC JUMP JUMPDEST PUSH0 SWAP2 DUP3 MSTORE PUSH1 0x20 DUP1 DUP4 KECCAK256 PUSH1 0x5 PUSH1 0x8 SWAP1 SWAP4 MUL ADD SWAP2 SWAP1 SWAP2 ADD DUP1 SLOAD PUSH1 0x1 DUP2 DUP2 ADD DUP4 SSTORE SWAP2 DUP5 MSTORE DUP3 DUP5 KECCAK256 ADD DUP1 SLOAD PUSH1 0x1 PUSH1 0x1 PUSH1 0xA0 SHL SUB NOT AND CALLER SWAP1 DUP2 OR SWAP1 SWAP2 SSTORE DUP5 DUP5 MSTORE PUSH1 0x2 DUP4 MSTORE PUSH1 0x40 DUP1 DUP6 KECCAK256 SWAP2 DUP6 MSTORE SWAP3 MSTORE SWAP1 DUP3 KECCAK256 DUP1 SLOAD PUSH1 0xFF NOT AND SWAP1 SWAP2 OR SWAP1 SSTORE DUP1 SLOAD DUP2 SWAP1 PUSH2 0x124F SWAP1 PUSH2 0x19E0 JUMP JUMPDEST SWAP1 SWAP2 SSTORE POP PUSH1 0x40 MLOAD CALLER SWAP1 DUP3 SWAP1 PUSH32 0x738A6C19C1F9D0875478754C8C4811BAA12949F287F2385E1092EFEF86BE9F79 SWAP1 PUSH2 0x1287 SWAP1 DUP9 SWAP1 PUSH2 0x1881 JUMP JUMPDEST PUSH1 0x40 MLOAD DUP1 SWAP2 SUB SWAP1 LOG3 PUSH1 0x40 MLOAD PUSH1 0x1 DUP2 MSTORE DUP2 SWAP1 PUSH32 0x1F5EEF396F0126DB889CD46F4CA63A15CC149B1EB0539888878F748A76297711 SWAP1 PUSH1 0x20 ADD PUSH1 0x40 MLOAD DUP1 SWAP2 SUB SWAP1 LOG2 POP POP POP POP JUMP JUMPDEST DUP3 DUP1 SLOAD DUP3 DUP3 SSTORE SWAP1 PUSH0 MSTORE PUSH1 0x20 PUSH0 KECCAK256 SWAP1 DUP2 ADD SWAP3 DUP3 ISZERO PUSH2 0x131E JUMPI SWAP2 PUSH1 0x20 MUL DUP3 ADD JUMPDEST DUP3 DUP2 GT ISZERO PUSH2 0x131E JUMPI DUP3 MLOAD DUP3 SLOAD PUSH1 0x1 PUSH1 0x1 PUSH1 0xA0 SHL SUB NOT AND PUSH1 0x1 PUSH1 0x1 PUSH1 0xA0 SHL SUB SWAP1 SWAP2 AND OR DUP3 SSTORE PUSH1 0x20 SWAP1 SWAP3 ADD SWAP2 PUSH1 0x1 SWAP1 SWAP2 ADD SWAP1 PUSH2 0x12E9 JUMP JUMPDEST POP PUSH2 0x132A SWAP3 SWAP2 POP PUSH2 0x132E JUMP JUMPDEST POP SWAP1 JUMP JUMPDEST JUMPDEST DUP1 DUP3 GT ISZERO PUSH2 0x132A JUMPI PUSH0 DUP2 SSTORE PUSH1 0x1 ADD PUSH2 0x132F JUMP JUMPDEST PUSH0 PUSH1 0x20 DUP3 DUP5 SUB SLT ISZERO PUSH2 0x1352 JUMPI PUSH0 PUSH0 REVERT JUMPDEST POP CALLDATALOAD SWAP2 SWAP1 POP JUMP JUMPDEST PUSH0 DUP2 MLOAD DUP1 DUP5 MSTORE DUP1 PUSH1 0x20 DUP5 ADD PUSH1 0x20 DUP7 ADD MCOPY PUSH0 PUSH1 0x20 DUP3 DUP7 ADD ADD MSTORE PUSH1 0x20 PUSH1 0x1F NOT PUSH1 0x1F DUP4 ADD AND DUP6 ADD ADD SWAP2 POP POP SWAP3 SWAP2 POP POP JUMP JUMPDEST PUSH0 DUP2 MLOAD DUP1 DUP5 MSTORE PUSH1 0x20 DUP5 ADD SWAP4 POP PUSH1 0x20 DUP4 ADD PUSH0 JUMPDEST DUP3 DUP2 LT ISZERO PUSH2 0x13C0 JUMPI DUP2 MLOAD PUSH1 0x1 PUSH1 0x1 PUSH1 0xA0 SHL SUB AND DUP7 MSTORE PUSH1 0x20 SWAP6 DUP7 ADD SWAP6 SWAP1 SWAP2 ADD SWAP1 PUSH1 0x1 ADD PUSH2 0x1399 JUMP JUMPDEST POP SWAP4 SWAP5 SWAP4 POP POP POP POP JUMP JUMPDEST PUSH0 DUP2 MLOAD PUSH2 0x100 DUP5 MSTORE PUSH2 0x13E0 PUSH2 0x100 DUP6 ADD DUP3 PUSH2 0x1359 JUMP JUMPDEST SWAP1 POP PUSH1 0x20 DUP4 ADD MLOAD PUSH2 0x13FC PUSH1 0x20 DUP7 ADD DUP3 PUSH1 0x1 PUSH1 0x1 PUSH1 0xA0 SHL SUB AND SWAP1 MSTORE JUMP JUMPDEST POP PUSH1 0x40 DUP4 ADD MLOAD PUSH2 0x1417 PUSH1 0x40 DUP7 ADD DUP3 PUSH1 0x1 PUSH1 0x1 PUSH1 0xA0 SHL SUB AND SWAP1 MSTORE JUMP JUMPDEST POP PUSH1 0x60 DUP4 ADD MLOAD PUSH1 0x60 DUP6 ADD MSTORE PUSH1 0x80 DUP4 ADD MLOAD PUSH1 0x80 DUP6 ADD MSTORE PUSH1 0xA0 DUP4 ADD MLOAD DUP5 DUP3 SUB PUSH1 0xA0 DUP7 ADD MSTORE PUSH2 0x1443 DUP3 DUP3 PUSH2 0x1387 JUMP JUMPDEST SWAP2 POP POP PUSH1 0xC0 DUP4 ADD MLOAD DUP5 DUP3 SUB PUSH1 0xC0 DUP7 ADD MSTORE PUSH2 0x145D DUP3 DUP3 PUSH2 0x1359 JUMP JUMPDEST SWAP2 POP POP PUSH1 0xE0 DUP4 ADD MLOAD PUSH2 0x1473 PUSH1 0xE0 DUP7 ADD DUP3 ISZERO ISZERO SWAP1 MSTORE JUMP JUMPDEST POP SWAP4 SWAP3 POP POP POP JUMP JUMPDEST PUSH1 0x20 DUP2 MSTORE PUSH0 PUSH2 0x148D PUSH1 0x20 DUP4 ADD DUP5 PUSH2 0x13CA JUMP JUMPDEST SWAP4 SWAP3 POP POP POP JUMP JUMPDEST DUP1 CALLDATALOAD PUSH1 0x1 PUSH1 0x1 PUSH1 0xA0 SHL SUB DUP2 AND DUP2 EQ PUSH2 0x14AA JUMPI PUSH0 PUSH0 REVERT JUMPDEST SWAP2 SWAP1 POP JUMP JUMPDEST PUSH0 PUSH0 PUSH1 0x40 DUP4 DUP6 SUB SLT ISZERO PUSH2 0x14C0 JUMPI PUSH0 PUSH0 REVERT JUMPDEST DUP3 CALLDATALOAD SWAP2 POP PUSH2 0x14D0 PUSH1 0x20 DUP5 ADD PUSH2 0x1494 JUMP JUMPDEST SWAP1 POP SWAP3 POP SWAP3 SWAP1 POP JUMP JUMPDEST PUSH0 PUSH1 0x20 DUP3 ADD PUSH1 0x20 DUP4 MSTORE DUP1 DUP5 MLOAD DUP1 DUP4 MSTORE PUSH1 0x40 DUP6 ADD SWAP2 POP PUSH1 0x40 DUP2 PUSH1 0x5 SHL DUP7 ADD ADD SWAP3 POP PUSH1 0x20 DUP7 ADD PUSH0 JUMPDEST DUP3 DUP2 LT ISZERO PUSH2 0x1530 JUMPI PUSH1 0x3F NOT DUP8 DUP7 SUB ADD DUP5 MSTORE PUSH2 0x151B DUP6 DUP4 MLOAD PUSH2 0x13CA JUMP JUMPDEST SWAP5 POP PUSH1 0x20 SWAP4 DUP5 ADD SWAP4 SWAP2 SWAP1 SWAP2 ADD SWAP1 PUSH1 0x1 ADD PUSH2 0x14FF JUMP JUMPDEST POP SWAP3 SWAP7 SWAP6 POP POP POP POP POP POP JUMP JUMPDEST PUSH4 0x4E487B71 PUSH1 0xE0 SHL PUSH0 MSTORE PUSH1 0x41 PUSH1 0x4 MSTORE PUSH1 0x24 PUSH0 REVERT JUMPDEST PUSH0 DUP3 PUSH1 0x1F DUP4 ADD SLT PUSH2 0x155F JUMPI PUSH0 PUSH0 REVERT JUMPDEST DUP2 CALLDATALOAD PUSH8 0xFFFFFFFFFFFFFFFF DUP2 GT ISZERO PUSH2 0x1579 JUMPI PUSH2 0x1579 PUSH2 0x153C JUMP JUMPDEST PUSH1 0x40 MLOAD PUSH1 0x1F DUP3 ADD PUSH1 0x1F NOT SWAP1 DUP2 AND PUSH1 0x3F ADD AND DUP2 ADD PUSH8 0xFFFFFFFFFFFFFFFF DUP2 GT DUP3 DUP3 LT OR ISZERO PUSH2 0x15A8 JUMPI PUSH2 0x15A8 PUSH2 0x153C JUMP JUMPDEST PUSH1 0x40 MSTORE DUP2 DUP2 MSTORE DUP4 DUP3 ADD PUSH1 0x20 ADD DUP6 LT ISZERO PUSH2 0x15BF JUMPI PUSH0 PUSH0 REVERT JUMPDEST DUP2 PUSH1 0x20 DUP6 ADD PUSH1 0x20 DUP4 ADD CALLDATACOPY PUSH0 SWAP2 DUP2 ADD PUSH1 0x20 ADD SWAP2 SWAP1 SWAP2 MSTORE SWAP4 SWAP3 POP POP POP JUMP JUMPDEST PUSH0 PUSH0 PUSH1 0x40 DUP4 DUP6 SUB SLT ISZERO PUSH2 0x15EC JUMPI PUSH0 PUSH0 REVERT JUMPDEST DUP3 CALLDATALOAD SWAP2 POP PUSH1 0x20 DUP4 ADD CALLDATALOAD PUSH8 0xFFFFFFFFFFFFFFFF DUP2 GT ISZERO PUSH2 0x1609 JUMPI PUSH0 PUSH0 REVERT JUMPDEST PUSH2 0x1615 DUP6 DUP3 DUP7 ADD PUSH2 0x1550 JUMP JUMPDEST SWAP2 POP POP SWAP3 POP SWAP3 SWAP1 POP JUMP JUMPDEST PUSH1 0x20 DUP1 DUP3 MSTORE DUP3 MLOAD DUP3 DUP3 ADD DUP2 SWAP1 MSTORE PUSH0 SWAP2 DUP5 ADD SWAP1 PUSH1 0x40 DUP5 ADD SWAP1 DUP4 JUMPDEST DUP2 DUP2 LT ISZERO PUSH2 0x165F JUMPI DUP4 MLOAD PUSH1 0x1 PUSH1 0x1 PUSH1 0xA0 SHL SUB AND DUP4 MSTORE PUSH1 0x20 SWAP4 DUP5 ADD SWAP4 SWAP1 SWAP3 ADD SWAP2 PUSH1 0x1 ADD PUSH2 0x1638 JUMP JUMPDEST POP SWAP1 SWAP6 SWAP5 POP POP POP POP POP JUMP JUMPDEST PUSH0 PUSH0 PUSH0 PUSH1 0x60 DUP5 DUP7 SUB SLT ISZERO PUSH2 0x167C JUMPI PUSH0 PUSH0 REVERT JUMPDEST DUP4 CALLDATALOAD SWAP3 POP PUSH1 0x20 DUP5 ADD CALLDATALOAD PUSH8 0xFFFFFFFFFFFFFFFF DUP2 GT ISZERO PUSH2 0x1699 JUMPI PUSH0 PUSH0 REVERT JUMPDEST PUSH2 0x16A5 DUP7 DUP3 DUP8 ADD PUSH2 0x1550 JUMP JUMPDEST SWAP3 POP POP PUSH1 0x40 DUP5 ADD CALLDATALOAD PUSH8 0xFFFFFFFFFFFFFFFF DUP2 GT ISZERO PUSH2 0x16C1 JUMPI PUSH0 PUSH0 REVERT JUMPDEST PUSH2 0x16CD DUP7 DUP3 DUP8 ADD PUSH2 0x1550 JUMP JUMPDEST SWAP2 POP POP SWAP3 POP SWAP3 POP SWAP3 JUMP JUMPDEST PUSH1 0xE0 DUP2 MSTORE PUSH0 PUSH2 0x16E9 PUSH1 0xE0 DUP4 ADD DUP11 PUSH2 0x1359 JUMP JUMPDEST PUSH1 0x1 PUSH1 0x1 PUSH1 0xA0 SHL SUB DUP10 DUP2 AND PUSH1 0x20 DUP6 ADD MSTORE DUP9 AND PUSH1 0x40 DUP5 ADD MSTORE PUSH1 0x60 DUP4 ADD DUP8 SWAP1 MSTORE PUSH1 0x80 DUP4 ADD DUP7 SWAP1 MSTORE DUP3 DUP2 SUB PUSH1 0xA0 DUP5 ADD MSTORE PUSH2 0x1720 DUP2 DUP7 PUSH2 0x1359 JUMP JUMPDEST SWAP2 POP POP DUP3 ISZERO ISZERO PUSH1 0xC0 DUP4 ADD MSTORE SWAP9 SWAP8 POP POP POP POP POP POP POP POP JUMP JUMPDEST PUSH0 PUSH0 PUSH0 PUSH1 0x60 DUP5 DUP7 SUB SLT ISZERO PUSH2 0x1749 JUMPI PUSH0 PUSH0 REVERT JUMPDEST DUP4 CALLDATALOAD PUSH8 0xFFFFFFFFFFFFFFFF DUP2 GT ISZERO PUSH2 0x175F JUMPI PUSH0 PUSH0 REVERT JUMPDEST PUSH2 0x176B DUP7 DUP3 DUP8 ADD PUSH2 0x1550 JUMP JUMPDEST SWAP4 POP POP PUSH2 0x177A PUSH1 0x20 DUP6 ADD PUSH2 0x1494 JUMP JUMPDEST SWAP2 POP PUSH1 0x40 DUP5 ADD CALLDATALOAD PUSH8 0xFFFFFFFFFFFFFFFF DUP2 GT ISZERO PUSH2 0x16C1 JUMPI PUSH0 PUSH0 REVERT JUMPDEST PUSH1 0x20 DUP1 DUP3 MSTORE PUSH1 0x17 SWAP1 DUP3 ADD MSTORE PUSH32 0x496E76616C6964206F7267616E697A6174696F6E206964000000000000000000 PUSH1 0x40 DUP3 ADD MSTORE PUSH1 0x60 ADD SWAP1 JUMP JUMPDEST PUSH4 0x4E487B71 PUSH1 0xE0 SHL PUSH0 MSTORE PUSH1 0x32 PUSH1 0x4 MSTORE PUSH1 0x24 PUSH0 REVERT JUMPDEST PUSH1 0x1 DUP2 DUP2 SHR SWAP1 DUP3 AND DUP1 PUSH2 0x17F4 JUMPI PUSH1 0x7F DUP3 AND SWAP2 POP JUMPDEST PUSH1 0x20 DUP3 LT DUP2 SUB PUSH2 0x488 JUMPI PUSH4 0x4E487B71 PUSH1 0xE0 SHL PUSH0 MSTORE PUSH1 0x22 PUSH1 0x4 MSTORE PUSH1 0x24 PUSH0 REVERT JUMPDEST PUSH1 0x20 DUP1 DUP3 MSTORE PUSH1 0x26 SWAP1 DUP3 ADD MSTORE PUSH32 0x4F6E6C79207468652061646D696E2063616E20706572666F726D207468697320 PUSH1 0x40 DUP3 ADD MSTORE PUSH6 0x30B1BA34B7B7 PUSH1 0xD1 SHL PUSH1 0x60 DUP3 ADD MSTORE PUSH1 0x80 ADD SWAP1 JUMP JUMPDEST PUSH4 0x4E487B71 PUSH1 0xE0 SHL PUSH0 MSTORE PUSH1 0x11 PUSH1 0x4 MSTORE PUSH1 0x24 PUSH0 REVERT JUMPDEST PUSH0 DUP2 PUSH2 0x187A JUMPI PUSH2 0x187A PUSH2 0x1858 JUMP JUMPDEST POP PUSH0 NOT ADD SWAP1 JUMP JUMPDEST PUSH1 0x20 DUP2 MSTORE PUSH0 PUSH2 0x148D PUSH1 0x20 DUP4 ADD DUP5 PUSH2 0x1359 JUMP JUMPDEST PUSH1 0x1F DUP3 GT ISZERO PUSH2 0x18DA JUMPI DUP1 PUSH0 MSTORE PUSH1 0x20 PUSH0 KECCAK256 PUSH1 0x1F DUP5 ADD PUSH1 0x5 SHR DUP2 ADD PUSH1 0x20 DUP6 LT ISZERO PUSH2 0x18B8 JUMPI POP DUP1 JUMPDEST PUSH1 0x1F DUP5 ADD PUSH1 0x5 SHR DUP3 ADD SWAP2 POP JUMPDEST DUP2 DUP2 LT ISZERO PUSH2 0x18D7 JUMPI PUSH0 DUP2 SSTORE PUSH1 0x1 ADD PUSH2 0x18C4 JUMP JUMPDEST POP POP JUMPDEST POP POP POP JUMP JUMPDEST DUP2 MLOAD PUSH8 0xFFFFFFFFFFFFFFFF DUP2 GT ISZERO PUSH2 0x18F9 JUMPI PUSH2 0x18F9 PUSH2 0x153C JUMP JUMPDEST PUSH2 0x190D DUP2 PUSH2 0x1907 DUP5 SLOAD PUSH2 0x17E0 JUMP JUMPDEST DUP5 PUSH2 0x1893 JUMP JUMPDEST PUSH1 0x20 PUSH1 0x1F DUP3 GT PUSH1 0x1 DUP2 EQ PUSH2 0x193F JUMPI PUSH0 DUP4 ISZERO PUSH2 0x1928 JUMPI POP DUP5 DUP3 ADD MLOAD JUMPDEST PUSH0 NOT PUSH1 0x3 DUP6 SWAP1 SHL SHR NOT AND PUSH1 0x1 DUP5 SWAP1 SHL OR DUP5 SSTORE PUSH2 0x18D7 JUMP JUMPDEST PUSH0 DUP5 DUP2 MSTORE PUSH1 0x20 DUP2 KECCAK256 PUSH1 0x1F NOT DUP6 AND SWAP2 JUMPDEST DUP3 DUP2 LT ISZERO PUSH2 0x196E JUMPI DUP8 DUP6 ADD MLOAD DUP3 SSTORE PUSH1 0x20 SWAP5 DUP6 ADD SWAP5 PUSH1 0x1 SWAP1 SWAP3 ADD SWAP2 ADD PUSH2 0x194E JUMP JUMPDEST POP DUP5 DUP3 LT ISZERO PUSH2 0x198B JUMPI DUP7 DUP5 ADD MLOAD PUSH0 NOT PUSH1 0x3 DUP8 SWAP1 SHL PUSH1 0xF8 AND SHR NOT AND DUP2 SSTORE JUMPDEST POP POP POP POP PUSH1 0x1 SWAP1 DUP2 SHL ADD SWAP1 SSTORE POP JUMP JUMPDEST PUSH1 0x40 DUP2 MSTORE PUSH0 PUSH2 0x19AC PUSH1 0x40 DUP4 ADD DUP6 PUSH2 0x1359 JUMP JUMPDEST DUP3 DUP2 SUB PUSH1 0x20 DUP5 ADD MSTORE PUSH2 0x19BE DUP2 DUP6 PUSH2 0x1359 JUMP JUMPDEST SWAP6 SWAP5 POP POP POP POP POP JUMP JUMPDEST DUP2 DUP2 SUB DUP2 DUP2 GT ISZERO PUSH2 0x19DA JUMPI PUSH2 0x19DA PUSH2 0x1858 JUMP JUMPDEST SWAP3 SWAP2 POP POP JUMP JUMPDEST PUSH0 PUSH1 0x1 DUP3 ADD PUSH2 0x19F1 JUMPI PUSH2 0x19F1 PUSH2 0x1858 JUMP JUMPDEST POP PUSH1 0x1 ADD SWAP1 JUMP INVALID LOG2 PUSH5 0x6970667358 0x22 SLT KECCAK256 DUP4 0x2E RETURNDATACOPY 0xDD 0x2D LOG0 0xC0 SIGNEXTEND MCOPY MULMOD 0x1F 0xDC 0xC8 0x22 0xDD SHL CALLDATASIZE CODECOPY DUP8 SWAP16 DUP9 PUSH30 0x6645ABC52A8F5914CF0364736F6C634300081E0033000000000000000000 "
				},
				"gasEstimates": {
					"creation": {
						"codeDepositCost": "1340400",
						"executionCost": "infinite",
						"totalCost": "infinite"
					},
					"external": {
						"activeOrganizationsCount()": "2283",
						"addMember(uint256,address)": "114468",
						"createOrganization(string,address,string)": "infinite",
						"deactivateOrganization(uint256,string)": "infinite",
						"getMembers(uint256)": "infinite",
						"getOrganization(uint256)": "infinite",
						"getOrganizations()": "infinite",
						"isMember(uint256,address)": "2692",
						"organizations(uint256)": "infinite",
						"owner()": "infinite",
						"updateOrganization(uint256,string,string)": "infinite"
					}
				},
				"methodIdentifiers": {
					"activeOrganizationsCount()": "2da78c2d",
					"addMember(uint256,address)": "74d0a676",
					"createOrganization(string,address,string)": "ed39a17d",
					"deactivateOrganization(uint256,string)": "abf653bd",
					"getMembers(uint256)": "c477ecab",
					"getOrganization(uint256)": "4526f690",
					"getOrganizations()": "9754a3a8",
					"isMember(uint256,address)": "7d9e10f5",
					"organizations(uint256)": "e792dd8a",
					"owner()": "8da5cb5b",
					"updateOrganization(uint256,string,string)": "e35309ea"
				}
			},
			"storageLayout": {
				"storage": [
					{
						"astId": 23,
						"contract": "contracts/Organization.sol:Organization",
						"label": "activeOrganizationsCount",
						"offset": 0,
						"slot": "0",
						"type": "t_uint256"
					},
					{
						"astId": 27,
						"contract": "contracts/Organization.sol:Organization",
						"label": "organizations",
						"offset": 0,
						"slot": "1",
						"type": "t_array(t_struct(OrganizationData)19_storage)dyn_storage"
					},
					{
						"astId": 33,
						"contract": "contracts/Organization.sol:Organization",
						"label": "isMember",
						"offset": 0,
						"slot": "2",
						"type": "t_mapping(t_uint256,t_mapping(t_address,t_bool))"
					}
				],
				"types": {
					"t_address": {
						"encoding": "inplace",
						"label": "address",
						"numberOfBytes": "20"
					},
					"t_array(t_address)dyn_storage": {
						"base": "t_address",
						"encoding": "dynamic_array",
						"label": "address[]",
						"numberOfBytes": "32"
					},
					"t_array(t_struct(OrganizationData)19_storage)dyn_storage": {
						"base": "t_struct(OrganizationData)19_storage",
						"encoding": "dynamic_array",
						"label": "struct Organization.OrganizationData[]",
						"numberOfBytes": "32"
					},
					"t_bool": {
						"encoding": "inplace",
						"label": "bool",
						"numberOfBytes": "1"
					},
					"t_mapping(t_address,t_bool)": {
						"encoding": "mapping",
						"key": "t_address",
						"label": "mapping(address => bool)",
						"numberOfBytes": "32",
						"value": "t_bool"
					},
					"t_mapping(t_uint256,t_mapping(t_address,t_bool))": {
						"encoding": "mapping",
						"key": "t_uint256",
						"label": "mapping(uint256 => mapping(address => bool))",
						"numberOfBytes": "32",
						"value": "t_mapping(t_address,t_bool)"
					},
					"t_string_storage": {
						"encoding": "bytes",
						"label": "string",
						"numberOfBytes": "32"
					},
					"t_struct(OrganizationData)19_storage": {
						"encoding": "inplace",
						"label": "struct Organization.OrganizationData",
						"members": [
							{
								"astId": 3,
								"contract": "contracts/Organization.sol:Organization",
								"label": "name",
								"offset": 0,
								"slot": "0",
								"type": "t_string_storage"
							},
							{
								"astId": 5,
								"contract": "contracts/Organization.sol:Organization",
								"label": "organization",
								"offset": 0,
								"slot": "1",
								"type": "t_address"
							},
							{
								"astId": 7,
								"contract": "contracts/Organization.sol:Organization",
								"label": "admin",
								"offset": 0,
								"slot": "2",
								"type": "t_address"
							},
							{
								"astId": 9,
								"contract": "contracts/Organization.sol:Organization",
								"label": "createdAt",
								"offset": 0,
								"slot": "3",
								"type": "t_uint256"
							},
							{
								"astId": 11,
								"contract": "contracts/Organization.sol:Organization",
								"label": "updatedAt",
								"offset": 0,
								"slot": "4",
								"type": "t_uint256"
							},
							{
								"astId": 14,
								"contract": "contracts/Organization.sol:Organization",
								"label": "members",
								"offset": 0,
								"slot": "5",
								"type": "t_array(t_address)dyn_storage"
							},
							{
								"astId": 16,
								"contract": "contracts/Organization.sol:Organization",
								"label": "encryptedUrl",
								"offset": 0,
								"slot": "6",
								"type": "t_string_storage"
							},
							{
								"astId": 18,
								"contract": "contracts/Organization.sol:Organization",
								"label": "isActive",
								"offset": 0,
								"slot": "7",
								"type": "t_bool"
							}
						],
						"numberOfBytes": "256"
					},
					"t_uint256": {
						"encoding": "inplace",
						"label": "uint256",
						"numberOfBytes": "32"
					}
				}
			},
			"userdoc": {
				"kind": "user",
				"methods": {},
				"version": 1
			}
		}
	}
}