{
	"data": {
		"bytecode": {
			"linkReferences": {},
			"object": "608060405234801561000f575f5ffd5b506040516123b13803806123b1833981810160405281019061003191906102a6565b805f73ffffffffffffffffffffffffffffffffffffffff168173ffffffffffffffffffffffffffffffffffffffff16036100a2575f6040517f1e4fbdf700000000000000000000000000000000000000000000000000000000815260040161009991906102f3565b60405180910390fd5b6100b18161018760201b60201c565b505f5f60146101000a81548160ff021916908315150217905550600180819055505f73ffffffffffffffffffffffffffffffffffffffff168273ffffffffffffffffffffffffffffffffffffffff1603610140576040517f08c379a000000000000000000000000000000000000000000000000000000000815260040161013790610366565b60405180910390fd5b8160025f6101000a81548173ffffffffffffffffffffffffffffffffffffffff021916908373ffffffffffffffffffffffffffffffffffffffff1602179055505050610384565b5f5f5f9054906101000a900473ffffffffffffffffffffffffffffffffffffffff169050815f5f6101000a81548173ffffffffffffffffffffffffffffffffffffffff021916908373ffffffffffffffffffffffffffffffffffffffff1602179055508173ffffffffffffffffffffffffffffffffffffffff168173ffffffffffffffffffffffffffffffffffffffff167f8be0079c531659141344cd1fd0a4f28419497f9722a3daafe3b4186f6b6457e060405160405180910390a35050565b5f5ffd5b5f73ffffffffffffffffffffffffffffffffffffffff82169050919050565b5f6102758261024c565b9050919050565b6102858161026b565b811461028f575f5ffd5b50565b5f815190506102a08161027c565b92915050565b5f5f604083850312156102bc576102bb610248565b5b5f6102c985828601610292565b92505060206102da85828601610292565b9150509250929050565b6102ed8161026b565b82525050565b5f6020820190506103065f8301846102e4565b92915050565b5f82825260208201905092915050565b7f496e76616c6964205445452061646472657373000000000000000000000000005f82015250565b5f61035060138361030c565b915061035b8261031c565b602082019050919050565b5f6020820190508181035f83015261037d81610344565b9050919050565b612020806103915f395ff3fe608060405234801561000f575f5ffd5b50600436106100cd575f3560e01c806380a9aed01161008a578063d5a1780b11610064578063d5a1780b1461019d578063eaaf77e6146101cd578063f2fde38b14610202578063f577a5001461021e576100cd565b806380a9aed0146101595780638456cb59146101755780638da5cb5b1461017f576100cd565b806303cc4e1a146100d15780633f4ba83a146100ed5780635c975abb146100f7578063715018a6146101155780637a8481151461011f5780637ff2f9f21461013d575b5f5ffd5b6100eb60048036038101906100e69190611347565b61024e565b005b6100f56105fc565b005b6100ff61060e565b60405161010c919061145e565b60405180910390f35b61011d610623565b005b610127610636565b60405161013491906114b6565b60405180910390f35b610157600480360381019061015291906114f9565b61065b565b005b610173600480360381019061016e9190611524565b610794565b005b61017d61089f565b005b6101876108b1565b60405161019491906114b6565b60405180910390f35b6101b760048036038101906101b2919061154f565b6108d8565b6040516101c4919061145e565b60405180910390f35b6101e760048036038101906101e29190611524565b6108f5565b6040516101f996959493929190611608565b60405180910390f35b61021c600480360381019061021791906114f9565b610a45565b005b61023860048036038101906102339190611524565b610ac9565b604051610245919061145e565b60405180910390f35b610256610c5e565b61025e610ca8565b5f60035f8c81526020019081526020015f2060040154146102b4576040517f08c379a00000000000000000000000000000000000000000000000000000000081526004016102ab906116bf565b60405180910390fd5b5f8a8a8a8a8a8a8a8a6040516020016102d4989796959493929190611761565b60405160208183030381529060405280519060200120905060045f8281526020019081526020015f205f9054906101000a900460ff161561034a576040517f08c379a00000000000000000000000000000000000000000000000000000000081526004016103419061182f565b60405180910390fd5b600160045f8381526020019081526020015f205f6101000a81548160ff0219169083151502179055505f8160405160200161038591906118c1565b6040516020818303038152906040528051906020012090505f6103eb8286868080601f0160208091040260200160405190810160405280939291908181526020018383808284375f81840152601f19601f82011690508083019250505050505050610cf7565b905060025f9054906101000a900473ffffffffffffffffffffffffffffffffffffffff1673ffffffffffffffffffffffffffffffffffffffff168173ffffffffffffffffffffffffffffffffffffffff161461047c576040517f08c379a000000000000000000000000000000000000000000000000000000000815260040161047390611930565b60405180910390fd5b6040518060c001604052808d81526020018c81526020018b8b8080601f0160208091040260200160405190810160405280939291908181526020018383808284375f81840152601f19601f82011690508083019250505050505050815260200189898080601f0160208091040260200160405190810160405280939291908181526020018383808284375f81840152601f19601f8201169050808301925050505050505081526020014281526020015f151581525060035f8f81526020019081526020015f205f820151815f01556020820151816001015560408201518160020190816105699190611b78565b50606082015181600301908161057f9190611b78565b506080820151816004015560a0820151816005015f6101000a81548160ff0219169083151502179055509050508b8d7ffce38e6d53b8f7ae4c9d14e37aa45aaf580ba53ed347090e3d1772143b577db0426040516105dd9190611c91565b60405180910390a35050506105f0610d21565b50505050505050505050565b610604610d2a565b61060c610db1565b565b5f5f60149054906101000a900460ff16905090565b61062b610d2a565b6106345f610e12565b565b60025f9054906101000a900473ffffffffffffffffffffffffffffffffffffffff1681565b610663610d2a565b5f73ffffffffffffffffffffffffffffffffffffffff168173ffffffffffffffffffffffffffffffffffffffff16036106d1576040517f08c379a00000000000000000000000000000000000000000000000000000000081526004016106c890611d07565b60405180910390fd5b5f60025f9054906101000a900473ffffffffffffffffffffffffffffffffffffffff1690508160025f6101000a81548173ffffffffffffffffffffffffffffffffffffffff021916908373ffffffffffffffffffffffffffffffffffffffff1602179055508173ffffffffffffffffffffffffffffffffffffffff168173ffffffffffffffffffffffffffffffffffffffff167f0c10c5549853a453e9dbf9b2db0e4d610ce0d45518449e280a600682a430f6d860405160405180910390a35050565b61079c610d2a565b5f60035f8381526020019081526020015f2090505f8160040154036107f6576040517f08c379a00000000000000000000000000000000000000000000000000000000081526004016107ed90611d6f565b60405180910390fd5b806005015f9054906101000a900460ff1615610847576040517f08c379a000000000000000000000000000000000000000000000000000000000815260040161083e90611dd7565b60405180910390fd5b6001816005015f6101000a81548160ff021916908315150217905550817f3220e3be6208c507de3e7cf8af68898ea3adac71e07443e7237dc895f86fb9b7426040516108939190611df5565b60405180910390a25050565b6108a7610d2a565b6108af610ed3565b565b5f5f5f9054906101000a900473ffffffffffffffffffffffffffffffffffffffff16905090565b6004602052805f5260405f205f915054906101000a900460ff1681565b6003602052805f5260405f205f91509050805f015490806001015490806002018054610920906119a8565b80601f016020809104026020016040519081016040528092919081815260200182805461094c906119a8565b80156109975780601f1061096e57610100808354040283529160200191610997565b820191905f5260205f20905b81548152906001019060200180831161097a57829003601f168201915b5050505050908060030180546109ac906119a8565b80601f01602080910402602001604051908101604052809291908181526020018280546109d8906119a8565b8015610a235780601f106109fa57610100808354040283529160200191610a23565b820191905f5260205f20905b815481529060010190602001808311610a0657829003601f168201915b505050505090806004015490806005015f9054906101000a900460ff16905086565b610a4d610d2a565b5f73ffffffffffffffffffffffffffffffffffffffff168173ffffffffffffffffffffffffffffffffffffffff1603610abd575f6040517f1e4fbdf7000000000000000000000000000000000000000000000000000000008152600401610ab491906114b6565b60405180910390fd5b610ac681610e12565b50565b5f5f60035f8481526020019081526020015f206040518060c00160405290815f820154815260200160018201548152602001600282018054610b0a906119a8565b80601f0160208091040260200160405190810160405280929190818152602001828054610b36906119a8565b8015610b815780601f10610b5857610100808354040283529160200191610b81565b820191905f5260205f20905b815481529060010190602001808311610b6457829003601f168201915b50505050508152602001600382018054610b9a906119a8565b80601f0160208091040260200160405190810160405280929190818152602001828054610bc6906119a8565b8015610c115780601f10610be857610100808354040283529160200191610c11565b820191905f5260205f20905b815481529060010190602001808311610bf457829003601f168201915b5050505050815260200160048201548152602001600582015f9054906101000a900460ff16151515158152505090505f816080015114158015610c5657508060a00151155b915050919050565b610c6661060e565b15610ca6576040517f08c379a0000000000000000000000000000000000000000000000000000000008152600401610c9d90611e58565b60405180910390fd5b565b600260015403610ced576040517f08c379a0000000000000000000000000000000000000000000000000000000008152600401610ce490611ec0565b60405180910390fd5b6002600181905550565b5f5f5f5f610d058686610f35565b925092509250610d158282610f8a565b82935050505092915050565b60018081905550565b610d326110ec565b73ffffffffffffffffffffffffffffffffffffffff16610d506108b1565b73ffffffffffffffffffffffffffffffffffffffff1614610daf57610d736110ec565b6040517f118cdaa7000000000000000000000000000000000000000000000000000000008152600401610da691906114b6565b60405180910390fd5b565b610db96110f3565b5f5f60146101000a81548160ff0219169083151502179055507f5db9ee0a495bf2e6ff9c91a7834c1ba4fdd244a5e8aa4e537bd38aeae4b073aa610dfb6110ec565b604051610e0891906114b6565b60405180910390a1565b5f5f5f9054906101000a900473ffffffffffffffffffffffffffffffffffffffff169050815f5f6101000a81548173ffffffffffffffffffffffffffffffffffffffff021916908373ffffffffffffffffffffffffffffffffffffffff1602179055508173ffffffffffffffffffffffffffffffffffffffff168173ffffffffffffffffffffffffffffffffffffffff167f8be0079c531659141344cd1fd0a4f28419497f9722a3daafe3b4186f6b6457e060405160405180910390a35050565b610edb610c5e565b60015f60146101000a81548160ff0219169083151502179055507f62e78cea01bee320cd4e420270b5ea74000d11b0c9f74754ebdbfc544b05a258610f1e6110ec565b604051610f2b91906114b6565b60405180910390a1565b5f5f5f6041845103610f75575f5f5f602087015192506040870151915060608701515f1a9050610f678882858561113c565b955095509550505050610f83565b5f600285515f1b9250925092505b9250925092565b5f6003811115610f9d57610f9c611ede565b5b826003811115610fb057610faf611ede565b5b03156110e85760016003811115610fca57610fc9611ede565b5b826003811115610fdd57610fdc611ede565b5b03611014576040517ff645eedf00000000000000000000000000000000000000000000000000000000815260040160405180910390fd5b6002600381111561102857611027611ede565b5b82600381111561103b5761103a611ede565b5b0361107f57805f1c6040517ffce698f70000000000000000000000000000000000000000000000000000000081526004016110769190611df5565b60405180910390fd5b60038081111561109257611091611ede565b5b8260038111156110a5576110a4611ede565b5b036110e757806040517fd78bce0c0000000000000000000000000000000000000000000000000000000081526004016110de9190611f0b565b60405180910390fd5b5b5050565b5f33905090565b6110fb61060e565b61113a576040517f08c379a000000000000000000000000000000000000000000000000000000000815260040161113190611f6e565b60405180910390fd5b565b5f5f5f7f7fffffffffffffffffffffffffffffff5d576e7357a4501ddfe92f46681b20a0845f1c1115611178575f600385925092509250611219565b5f6001888888886040515f815260200160405260405161119b9493929190611fa7565b6020604051602081039080840390855afa1580156111bb573d5f5f3e3d5ffd5b5050506020604051035190505f73ffffffffffffffffffffffffffffffffffffffff168173ffffffffffffffffffffffffffffffffffffffff160361120c575f60015f5f1b93509350935050611219565b805f5f5f1b935093509350505b9450945094915050565b5f5ffd5b5f5ffd5b5f819050919050565b61123d8161122b565b8114611247575f5ffd5b50565b5f8135905061125881611234565b92915050565b5f819050919050565b6112708161125e565b811461127a575f5ffd5b50565b5f8135905061128b81611267565b92915050565b5f5ffd5b5f5ffd5b5f5ffd5b5f5f83601f8401126112b2576112b1611291565b5b8235905067ffffffffffffffff8111156112cf576112ce611295565b5b6020830191508360018202830111156112eb576112ea611299565b5b9250929050565b5f5f83601f84011261130757611306611291565b5b8235905067ffffffffffffffff81111561132457611323611295565b5b6020830191508360018202830111156113405761133f611299565b5b9250929050565b5f5f5f5f5f5f5f5f5f5f60e08b8d03121561136557611364611223565b5b5f6113728d828e0161124a565b9a505060206113838d828e0161127d565b99505060406113948d828e0161127d565b98505060608b013567ffffffffffffffff8111156113b5576113b4611227565b5b6113c18d828e0161129d565b975097505060808b013567ffffffffffffffff8111156113e4576113e3611227565b5b6113f08d828e0161129d565b955095505060a06114038d828e0161124a565b93505060c08b013567ffffffffffffffff81111561142457611423611227565b5b6114308d828e016112f2565b92509250509295989b9194979a5092959850565b5f8115159050919050565b61145881611444565b82525050565b5f6020820190506114715f83018461144f565b92915050565b5f73ffffffffffffffffffffffffffffffffffffffff82169050919050565b5f6114a082611477565b9050919050565b6114b081611496565b82525050565b5f6020820190506114c95f8301846114a7565b92915050565b6114d881611496565b81146114e2575f5ffd5b50565b5f813590506114f3816114cf565b92915050565b5f6020828403121561150e5761150d611223565b5b5f61151b848285016114e5565b91505092915050565b5f6020828403121561153957611538611223565b5b5f6115468482850161124a565b91505092915050565b5f6020828403121561156457611563611223565b5b5f6115718482850161127d565b91505092915050565b6115838161125e565b82525050565b5f81519050919050565b5f82825260208201905092915050565b8281835e5f83830152505050565b5f601f19601f8301169050919050565b5f6115cb82611589565b6115d58185611593565b93506115e58185602086016115a3565b6115ee816115b1565b840191505092915050565b6116028161122b565b82525050565b5f60c08201905061161b5f83018961157a565b611628602083018861157a565b818103604083015261163a81876115c1565b9050818103606083015261164e81866115c1565b905061165d60808301856115f9565b61166a60a083018461144f565b979650505050505050565b7f4964656e7469747920616c7265616479206578697374730000000000000000005f82015250565b5f6116a9601783611593565b91506116b482611675565b602082019050919050565b5f6020820190508181035f8301526116d68161169d565b9050919050565b7f49535355455f4944454e544954590000000000000000000000000000000000005f82015250565b5f611711600e83611593565b915061171c826116dd565b602082019050919050565b828183375f83830152505050565b5f6117408385611593565b935061174d838584611727565b611756836115b1565b840190509392505050565b5f60e0820190508181035f83015261177881611705565b9050611787602083018b6115f9565b611794604083018a61157a565b6117a1606083018961157a565b81810360808301526117b4818789611735565b905081810360a08301526117c9818587611735565b90506117d860c08301846115f9565b9998505050505050505050565b7f417574686f72697a6174696f6e20616c726561647920757365640000000000005f82015250565b5f611819601a83611593565b9150611824826117e5565b602082019050919050565b5f6020820190508181035f8301526118468161180d565b9050919050565b5f81905092915050565b7f19457468657265756d205369676e6564204d6573736167653a0a3332000000005f82015250565b5f61188b601c8361184d565b915061189682611857565b601c82019050919050565b5f819050919050565b6118bb6118b68261125e565b6118a1565b82525050565b5f6118cb8261187f565b91506118d782846118aa565b60208201915081905092915050565b7f496e76616c696420544545207369676e617475726500000000000000000000005f82015250565b5f61191a601583611593565b9150611925826118e6565b602082019050919050565b5f6020820190508181035f8301526119478161190e565b9050919050565b7f4e487b71000000000000000000000000000000000000000000000000000000005f52604160045260245ffd5b7f4e487b71000000000000000000000000000000000000000000000000000000005f52602260045260245ffd5b5f60028204905060018216806119bf57607f821691505b6020821081036119d2576119d161197b565b5b50919050565b5f819050815f5260205f209050919050565b5f6020601f8301049050919050565b5f82821b905092915050565b5f60088302611a347fffffffffffffffffffffffffffffffffffffffffffffffffffffffffffffffff826119f9565b611a3e86836119f9565b95508019841693508086168417925050509392505050565b5f819050919050565b5f611a79611a74611a6f8461122b565b611a56565b61122b565b9050919050565b5f819050919050565b611a9283611a5f565b611aa6611a9e82611a80565b848454611a05565b825550505050565b5f5f905090565b611abd611aae565b611ac8818484611a89565b505050565b5b81811015611aeb57611ae05f82611ab5565b600181019050611ace565b5050565b601f821115611b3057611b01816119d8565b611b0a846119ea565b81016020851015611b19578190505b611b2d611b25856119ea565b830182611acd565b50505b505050565b5f82821c905092915050565b5f611b505f1984600802611b35565b1980831691505092915050565b5f611b688383611b41565b9150826002028217905092915050565b611b8182611589565b67ffffffffffffffff811115611b9a57611b9961194e565b5b611ba482546119a8565b611baf828285611aef565b5f60209050601f831160018114611be0575f8415611bce578287015190505b611bd88582611b5d565b865550611c3f565b601f198416611bee866119d8565b5f5b82811015611c1557848901518255600182019150602085019450602081019050611bf0565b86831015611c325784890151611c2e601f891682611b41565b8355505b6001600288020188555050505b505050505050565b7f4964656e746964616420637265616461000000000000000000000000000000005f82015250565b5f611c7b601083611593565b9150611c8682611c47565b602082019050919050565b5f604082019050611ca45f8301846115f9565b8181036020830152611cb581611c6f565b905092915050565b7f496e76616c6964205445452061646472657373000000000000000000000000005f82015250565b5f611cf1601383611593565b9150611cfc82611cbd565b602082019050919050565b5f6020820190508181035f830152611d1e81611ce5565b9050919050565b7f4964656e7469747920646f6573206e6f742065786973740000000000000000005f82015250565b5f611d59601783611593565b9150611d6482611d25565b602082019050919050565b5f6020820190508181035f830152611d8681611d4d565b9050919050565b7f416c7265616479207265766f6b656400000000000000000000000000000000005f82015250565b5f611dc1600f83611593565b9150611dcc82611d8d565b602082019050919050565b5f6020820190508181035f830152611dee81611db5565b9050919050565b5f602082019050611e085f8301846115f9565b92915050565b7f5061757361626c653a20706175736564000000000000000000000000000000005f82015250565b5f611e42601083611593565b9150611e4d82611e0e565b602082019050919050565b5f6020820190508181035f830152611e6f81611e36565b9050919050565b7f5265656e7472616e637947756172643a207265656e7472616e742063616c6c005f82015250565b5f611eaa601f83611593565b9150611eb582611e76565b602082019050919050565b5f6020820190508181035f830152611ed781611e9e565b9050919050565b7f4e487b71000000000000000000000000000000000000000000000000000000005f52602160045260245ffd5b5f602082019050611f1e5f83018461157a565b92915050565b7f5061757361626c653a206e6f74207061757365640000000000000000000000005f82015250565b5f611f58601483611593565b9150611f6382611f24565b602082019050919050565b5f6020820190508181035f830152611f8581611f4c565b9050919050565b5f60ff82169050919050565b611fa181611f8c565b82525050565b5f608082019050611fba5f83018761157a565b611fc76020830186611f98565b611fd4604083018561157a565b611fe1606083018461157a565b9594505050505056fea26469706673582212206453980dee69716636ca46f265c92006794819f2da02418e0f3e8a3584f2029464736f6c634300081e0033",
			"opcodes": "PUSH1 0x80 PUSH1 0x40 MSTORE CALLVALUE DUP1 ISZERO PUSH2 0xF JUMPI PUSH0 PUSH0 REVERT JUMPDEST POP PUSH1 0x40 MLOAD PUSH2 0x23B1 CODESIZE SUB DUP1 PUSH2 0x23B1 DUP4 CODECOPY DUP2 DUP2 ADD PUSH1 0x40 MSTORE DUP2 ADD SWAP1 PUSH2 0x31 SWAP2 SWAP1 PUSH2 0x2A6 JUMP JUMPDEST DUP1 PUSH0 PUSH20 0xFFFFFFFFFFFFFFFFFFFFFFFFFFFFFFFFFFFFFFFF AND DUP2 PUSH20 0xFFFFFFFFFFFFFFFFFFFFFFFFFFFFFFFFFFFFFFFF AND SUB PUSH2 0xA2 JUMPI PUSH0 PUSH1 0x40 MLOAD PUSH32 0x1E4FBDF700000000000000000000000000000000000000000000000000000000 DUP2 MSTORE PUSH1 0x4 ADD PUSH2 0x99 SWAP2 SWAP1 PUSH2 0x2F3 JUMP JUMPDEST PUSH1 0x40 MLOAD DUP1 SWAP2 SUB SWAP1 REVERT JUMPDEST PUSH2 0xB1 DUP2 PUSH2 0x187 PUSH1 0x20 SHL PUSH1 0x20 SHR JUMP JUMPDEST POP PUSH0 PUSH0 PUSH1 0x14 PUSH2 0x100 EXP DUP2 SLOAD DUP2 PUSH1 0xFF MUL NOT AND SWAP1 DUP4 ISZERO ISZERO MUL OR SWAP1 SSTORE POP PUSH1 0x1 DUP1 DUP2 SWAP1 SSTORE POP PUSH0 PUSH20 0xFFFFFFFFFFFFFFFFFFFFFFFFFFFFFFFFFFFFFFFF AND DUP3 PUSH20 0xFFFFFFFFFFFFFFFFFFFFFFFFFFFFFFFFFFFFFFFF AND SUB PUSH2 0x140 JUMPI PUSH1 0x40 MLOAD PUSH32 0x8C379A000000000000000000000000000000000000000000000000000000000 DUP2 MSTORE PUSH1 0x4 ADD PUSH2 0x137 SWAP1 PUSH2 0x366 JUMP JUMPDEST PUSH1 0x40 MLOAD DUP1 SWAP2 SUB SWAP1 REVERT JUMPDEST DUP2 PUSH1 0x2 PUSH0 PUSH2 0x100 EXP DUP2 SLOAD DUP2 PUSH20 0xFFFFFFFFFFFFFFFFFFFFFFFFFFFFFFFFFFFFFFFF MUL NOT AND SWAP1 DUP4 PUSH20 0xFFFFFFFFFFFFFFFFFFFFFFFFFFFFFFFFFFFFFFFF AND MUL OR SWAP1 SSTORE POP POP POP PUSH2 0x384 JUMP JUMPDEST PUSH0 PUSH0 PUSH0 SWAP1 SLOAD SWAP1 PUSH2 0x100 EXP SWAP1 DIV PUSH20 0xFFFFFFFFFFFFFFFFFFFFFFFFFFFFFFFFFFFFFFFF AND SWAP1 POP DUP2 PUSH0 PUSH0 PUSH2 0x100 EXP DUP2 SLOAD DUP2 PUSH20 0xFFFFFFFFFFFFFFFFFFFFFFFFFFFFFFFFFFFFFFFF MUL NOT AND SWAP1 DUP4 PUSH20 0xFFFFFFFFFFFFFFFFFFFFFFFFFFFFFFFFFFFFFFFF AND MUL OR SWAP1 SSTORE POP DUP2 PUSH20 0xFFFFFFFFFFFFFFFFFFFFFFFFFFFFFFFFFFFFFFFF AND DUP2 PUSH20 0xFFFFFFFFFFFFFFFFFFFFFFFFFFFFFFFFFFFFFFFF AND PUSH32 0x8BE0079C531659141344CD1FD0A4F28419497F9722A3DAAFE3B4186F6B6457E0 PUSH1 0x40 MLOAD PUSH1 0x40 MLOAD DUP1 SWAP2 SUB SWAP1 LOG3 POP POP JUMP JUMPDEST PUSH0 PUSH0 REVERT JUMPDEST PUSH0 PUSH20 0xFFFFFFFFFFFFFFFFFFFFFFFFFFFFFFFFFFFFFFFF DUP3 AND SWAP1 POP SWAP2 SWAP1 POP JUMP JUMPDEST PUSH0 PUSH2 0x275 DUP3 PUSH2 0x24C JUMP JUMPDEST SWAP1 POP SWAP2 SWAP1 POP JUMP JUMPDEST PUSH2 0x285 DUP2 PUSH2 0x26B JUMP JUMPDEST DUP2 EQ PUSH2 0x28F JUMPI PUSH0 PUSH0 REVERT JUMPDEST POP JUMP JUMPDEST PUSH0 DUP2 MLOAD SWAP1 POP PUSH2 0x2A0 DUP2 PUSH2 0x27C JUMP JUMPDEST SWAP3 SWAP2 POP POP JUMP JUMPDEST PUSH0 PUSH0 PUSH1 0x40 DUP4 DUP6 SUB SLT ISZERO PUSH2 0x2BC JUMPI PUSH2 0x2BB PUSH2 0x248 JUMP JUMPDEST JUMPDEST PUSH0 PUSH2 0x2C9 DUP6 DUP3 DUP7 ADD PUSH2 0x292 JUMP JUMPDEST SWAP3 POP POP PUSH1 0x20 PUSH2 0x2DA DUP6 DUP3 DUP7 ADD PUSH2 0x292 JUMP JUMPDEST SWAP2 POP POP SWAP3 POP SWAP3 SWAP1 POP JUMP JUMPDEST PUSH2 0x2ED DUP2 PUSH2 0x26B JUMP JUMPDEST DUP3 MSTORE POP POP JUMP JUMPDEST PUSH0 PUSH1 0x20 DUP3 ADD SWAP1 POP PUSH2 0x306 PUSH0 DUP4 ADD DUP5 PUSH2 0x2E4 JUMP JUMPDEST SWAP3 SWAP2 POP POP JUMP JUMPDEST PUSH0 DUP3 DUP3 MSTORE PUSH1 0x20 DUP3 ADD SWAP1 POP SWAP3 SWAP2 POP POP JUMP JUMPDEST PUSH32 0x496E76616C696420544545206164647265737300000000000000000000000000 PUSH0 DUP3 ADD MSTORE POP JUMP JUMPDEST PUSH0 PUSH2 0x350 PUSH1 0x13 DUP4 PUSH2 0x30C JUMP JUMPDEST SWAP2 POP PUSH2 0x35B DUP3 PUSH2 0x31C JUMP JUMPDEST PUSH1 0x20 DUP3 ADD SWAP1 POP SWAP2 SWAP1 POP JUMP JUMPDEST PUSH0 PUSH1 0x20 DUP3 ADD SWAP1 POP DUP2 DUP2 SUB PUSH0 DUP4 ADD MSTORE PUSH2 0x37D DUP2 PUSH2 0x344 JUMP JUMPDEST SWAP1 POP SWAP2 SWAP1 POP JUMP JUMPDEST PUSH2 0x2020 DUP1 PUSH2 0x391 PUSH0 CODECOPY PUSH0 RETURN INVALID PUSH1 0x80 PUSH1 0x40 MSTORE CALLVALUE DUP1 ISZERO PUSH2 0xF JUMPI PUSH0 PUSH0 REVERT JUMPDEST POP PUSH1 0x4 CALLDATASIZE LT PUSH2 0xCD JUMPI PUSH0 CALLDATALOAD PUSH1 0xE0 SHR DUP1 PUSH4 0x80A9AED0 GT PUSH2 0x8A JUMPI DUP1 PUSH4 0xD5A1780B GT PUSH2 0x64 JUMPI DUP1 PUSH4 0xD5A1780B EQ PUSH2 0x19D JUMPI DUP1 PUSH4 0xEAAF77E6 EQ PUSH2 0x1CD JUMPI DUP1 PUSH4 0xF2FDE38B EQ PUSH2 0x202 JUMPI DUP1 PUSH4 0xF577A500 EQ PUSH2 0x21E JUMPI PUSH2 0xCD JUMP JUMPDEST DUP1 PUSH4 0x80A9AED0 EQ PUSH2 0x159 JUMPI DUP1 PUSH4 0x8456CB59 EQ PUSH2 0x175 JUMPI DUP1 PUSH4 0x8DA5CB5B EQ PUSH2 0x17F JUMPI PUSH2 0xCD JUMP JUMPDEST DUP1 PUSH4 0x3CC4E1A EQ PUSH2 0xD1 JUMPI DUP1 PUSH4 0x3F4BA83A EQ PUSH2 0xED JUMPI DUP1 PUSH4 0x5C975ABB EQ PUSH2 0xF7 JUMPI DUP1 PUSH4 0x715018A6 EQ PUSH2 0x115 JUMPI DUP1 PUSH4 0x7A848115 EQ PUSH2 0x11F JUMPI DUP1 PUSH4 0x7FF2F9F2 EQ PUSH2 0x13D JUMPI JUMPDEST PUSH0 PUSH0 REVERT JUMPDEST PUSH2 0xEB PUSH1 0x4 DUP1 CALLDATASIZE SUB DUP2 ADD SWAP1 PUSH2 0xE6 SWAP2 SWAP1 PUSH2 0x1347 JUMP JUMPDEST PUSH2 0x24E JUMP JUMPDEST STOP JUMPDEST PUSH2 0xF5 PUSH2 0x5FC JUMP JUMPDEST STOP JUMPDEST PUSH2 0xFF PUSH2 0x60E JUMP JUMPDEST PUSH1 0x40 MLOAD PUSH2 0x10C SWAP2 SWAP1 PUSH2 0x145E JUMP JUMPDEST PUSH1 0x40 MLOAD DUP1 SWAP2 SUB SWAP1 RETURN JUMPDEST PUSH2 0x11D PUSH2 0x623 JUMP JUMPDEST STOP JUMPDEST PUSH2 0x127 PUSH2 0x636 JUMP JUMPDEST PUSH1 0x40 MLOAD PUSH2 0x134 SWAP2 SWAP1 PUSH2 0x14B6 JUMP JUMPDEST PUSH1 0x40 MLOAD DUP1 SWAP2 SUB SWAP1 RETURN JUMPDEST PUSH2 0x157 PUSH1 0x4 DUP1 CALLDATASIZE SUB DUP2 ADD SWAP1 PUSH2 0x152 SWAP2 SWAP1 PUSH2 0x14F9 JUMP JUMPDEST PUSH2 0x65B JUMP JUMPDEST STOP JUMPDEST PUSH2 0x173 PUSH1 0x4 DUP1 CALLDATASIZE SUB DUP2 ADD SWAP1 PUSH2 0x16E SWAP2 SWAP1 PUSH2 0x1524 JUMP JUMPDEST PUSH2 0x794 JUMP JUMPDEST STOP JUMPDEST PUSH2 0x17D PUSH2 0x89F JUMP JUMPDEST STOP JUMPDEST PUSH2 0x187 PUSH2 0x8B1 JUMP JUMPDEST PUSH1 0x40 MLOAD PUSH2 0x194 SWAP2 SWAP1 PUSH2 0x14B6 JUMP JUMPDEST PUSH1 0x40 MLOAD DUP1 SWAP2 SUB SWAP1 RETURN JUMPDEST PUSH2 0x1B7 PUSH1 0x4 DUP1 CALLDATASIZE SUB DUP2 ADD SWAP1 PUSH2 0x1B2 SWAP2 SWAP1 PUSH2 0x154F JUMP JUMPDEST PUSH2 0x8D8 JUMP JUMPDEST PUSH1 0x40 MLOAD PUSH2 0x1C4 SWAP2 SWAP1 PUSH2 0x145E JUMP JUMPDEST PUSH1 0x40 MLOAD DUP1 SWAP2 SUB SWAP1 RETURN JUMPDEST PUSH2 0x1E7 PUSH1 0x4 DUP1 CALLDATASIZE SUB DUP2 ADD SWAP1 PUSH2 0x1E2 SWAP2 SWAP1 PUSH2 0x1524 JUMP JUMPDEST PUSH2 0x8F5 JUMP JUMPDEST PUSH1 0x40 MLOAD PUSH2 0x1F9 SWAP7 SWAP6 SWAP5 SWAP4 SWAP3 SWAP2 SWAP1 PUSH2 0x1608 JUMP JUMPDEST PUSH1 0x40 MLOAD DUP1 SWAP2 SUB SWAP1 RETURN JUMPDEST PUSH2 0x21C PUSH1 0x4 DUP1 CALLDATASIZE SUB DUP2 ADD SWAP1 PUSH2 0x217 SWAP2 SWAP1 PUSH2 0x14F9 JUMP JUMPDEST PUSH2 0xA45 JUMP JUMPDEST STOP JUMPDEST PUSH2 0x238 PUSH1 0x4 DUP1 CALLDATASIZE SUB DUP2 ADD SWAP1 PUSH2 0x233 SWAP2 SWAP1 PUSH2 0x1524 JUMP JUMPDEST PUSH2 0xAC9 JUMP JUMPDEST PUSH1 0x40 MLOAD PUSH2 0x245 SWAP2 SWAP1 PUSH2 0x145E JUMP JUMPDEST PUSH1 0x40 MLOAD DUP1 SWAP2 SUB SWAP1 RETURN JUMPDEST PUSH2 0x256 PUSH2 0xC5E JUMP JUMPDEST PUSH2 0x25E PUSH2 0xCA8 JUMP JUMPDEST PUSH0 PUSH1 0x3 PUSH0 DUP13 DUP2 MSTORE PUSH1 0x20 ADD SWAP1 DUP2 MSTORE PUSH1 0x20 ADD PUSH0 KECCAK256 PUSH1 0x4 ADD SLOAD EQ PUSH2 0x2B4 JUMPI PUSH1 0x40 MLOAD PUSH32 0x8C379A000000000000000000000000000000000000000000000000000000000 DUP2 MSTORE PUSH1 0x4 ADD PUSH2 0x2AB SWAP1 PUSH2 0x16BF JUMP JUMPDEST PUSH1 0x40 MLOAD DUP1 SWAP2 SUB SWAP1 REVERT JUMPDEST PUSH0 DUP11 DUP11 DUP11 DUP11 DUP11 DUP11 DUP11 DUP11 PUSH1 0x40 MLOAD PUSH1 0x20 ADD PUSH2 0x2D4 SWAP9 SWAP8 SWAP7 SWAP6 SWAP5 SWAP4 SWAP3 SWAP2 SWAP1 PUSH2 0x1761 JUMP JUMPDEST PUSH1 0x40 MLOAD PUSH1 0x20 DUP2 DUP4 SUB SUB DUP2 MSTORE SWAP1 PUSH1 0x40 MSTORE DUP1 MLOAD SWAP1 PUSH1 0x20 ADD KECCAK256 SWAP1 POP PUSH1 0x4 PUSH0 DUP3 DUP2 MSTORE PUSH1 0x20 ADD SWAP1 DUP2 MSTORE PUSH1 0x20 ADD PUSH0 KECCAK256 PUSH0 SWAP1 SLOAD SWAP1 PUSH2 0x100 EXP SWAP1 DIV PUSH1 0xFF AND ISZERO PUSH2 0x34A JUMPI PUSH1 0x40 MLOAD PUSH32 0x8C379A000000000000000000000000000000000000000000000000000000000 DUP2 MSTORE PUSH1 0x4 ADD PUSH2 0x341 SWAP1 PUSH2 0x182F JUMP JUMPDEST PUSH1 0x40 MLOAD DUP1 SWAP2 SUB SWAP1 REVERT JUMPDEST PUSH1 0x1 PUSH1 0x4 PUSH0 DUP4 DUP2 MSTORE PUSH1 0x20 ADD SWAP1 DUP2 MSTORE PUSH1 0x20 ADD PUSH0 KECCAK256 PUSH0 PUSH2 0x100 EXP DUP2 SLOAD DUP2 PUSH1 0xFF MUL NOT AND SWAP1 DUP4 ISZERO ISZERO MUL OR SWAP1 SSTORE POP PUSH0 DUP2 PUSH1 0x40 MLOAD PUSH1 0x20 ADD PUSH2 0x385 SWAP2 SWAP1 PUSH2 0x18C1 JUMP JUMPDEST PUSH1 0x40 MLOAD PUSH1 0x20 DUP2 DUP4 SUB SUB DUP2 MSTORE SWAP1 PUSH1 0x40 MSTORE DUP1 MLOAD SWAP1 PUSH1 0x20 ADD KECCAK256 SWAP1 POP PUSH0 PUSH2 0x3EB DUP3 DUP7 DUP7 DUP1 DUP1 PUSH1 0x1F ADD PUSH1 0x20 DUP1 SWAP2 DIV MUL PUSH1 0x20 ADD PUSH1 0x40 MLOAD SWAP1 DUP2 ADD PUSH1 0x40 MSTORE DUP1 SWAP4 SWAP3 SWAP2 SWAP1 DUP2 DUP2 MSTORE PUSH1 0x20 ADD DUP4 DUP4 DUP1 DUP3 DUP5 CALLDATACOPY PUSH0 DUP2 DUP5 ADD MSTORE PUSH1 0x1F NOT PUSH1 0x1F DUP3 ADD AND SWAP1 POP DUP1 DUP4 ADD SWAP3 POP POP POP POP POP POP POP PUSH2 0xCF7 JUMP JUMPDEST SWAP1 POP PUSH1 0x2 PUSH0 SWAP1 SLOAD SWAP1 PUSH2 0x100 EXP SWAP1 DIV PUSH20 0xFFFFFFFFFFFFFFFFFFFFFFFFFFFFFFFFFFFFFFFF AND PUSH20 0xFFFFFFFFFFFFFFFFFFFFFFFFFFFFFFFFFFFFFFFF AND DUP2 PUSH20 0xFFFFFFFFFFFFFFFFFFFFFFFFFFFFFFFFFFFFFFFF AND EQ PUSH2 0x47C JUMPI PUSH1 0x40 MLOAD PUSH32 0x8C379A000000000000000000000000000000000000000000000000000000000 DUP2 MSTORE PUSH1 0x4 ADD PUSH2 0x473 SWAP1 PUSH2 0x1930 JUMP JUMPDEST PUSH1 0x40 MLOAD DUP1 SWAP2 SUB SWAP1 REVERT JUMPDEST PUSH1 0x40 MLOAD DUP1 PUSH1 0xC0 ADD PUSH1 0x40 MSTORE DUP1 DUP14 DUP2 MSTORE PUSH1 0x20 ADD DUP13 DUP2 MSTORE PUSH1 0x20 ADD DUP12 DUP12 DUP1 DUP1 PUSH1 0x1F ADD PUSH1 0x20 DUP1 SWAP2 DIV MUL PUSH1 0x20 ADD PUSH1 0x40 MLOAD SWAP1 DUP2 ADD PUSH1 0x40 MSTORE DUP1 SWAP4 SWAP3 SWAP2 SWAP1 DUP2 DUP2 MSTORE PUSH1 0x20 ADD DUP4 DUP4 DUP1 DUP3 DUP5 CALLDATACOPY PUSH0 DUP2 DUP5 ADD MSTORE PUSH1 0x1F NOT PUSH1 0x1F DUP3 ADD AND SWAP1 POP DUP1 DUP4 ADD SWAP3 POP POP POP POP POP POP POP DUP2 MSTORE PUSH1 0x20 ADD DUP10 DUP10 DUP1 DUP1 PUSH1 0x1F ADD PUSH1 0x20 DUP1 SWAP2 DIV MUL PUSH1 0x20 ADD PUSH1 0x40 MLOAD SWAP1 DUP2 ADD PUSH1 0x40 MSTORE DUP1 SWAP4 SWAP3 SWAP2 SWAP1 DUP2 DUP2 MSTORE PUSH1 0x20 ADD DUP4 DUP4 DUP1 DUP3 DUP5 CALLDATACOPY PUSH0 DUP2 DUP5 ADD MSTORE PUSH1 0x1F NOT PUSH1 0x1F DUP3 ADD AND SWAP1 POP DUP1 DUP4 ADD SWAP3 POP POP POP POP POP POP POP DUP2 MSTORE PUSH1 0x20 ADD TIMESTAMP DUP2 MSTORE PUSH1 0x20 ADD PUSH0 ISZERO ISZERO DUP2 MSTORE POP PUSH1 0x3 PUSH0 DUP16 DUP2 MSTORE PUSH1 0x20 ADD SWAP1 DUP2 MSTORE PUSH1 0x20 ADD PUSH0 KECCAK256 PUSH0 DUP3 ADD MLOAD DUP2 PUSH0 ADD SSTORE PUSH1 0x20 DUP3 ADD MLOAD DUP2 PUSH1 0x1 ADD SSTORE PUSH1 0x40 DUP3 ADD MLOAD DUP2 PUSH1 0x2 ADD SWAP1 DUP2 PUSH2 0x569 SWAP2 SWAP1 PUSH2 0x1B78 JUMP JUMPDEST POP PUSH1 0x60 DUP3 ADD MLOAD DUP2 PUSH1 0x3 ADD SWAP1 DUP2 PUSH2 0x57F SWAP2 SWAP1 PUSH2 0x1B78 JUMP JUMPDEST POP PUSH1 0x80 DUP3 ADD MLOAD DUP2 PUSH1 0x4 ADD SSTORE PUSH1 0xA0 DUP3 ADD MLOAD DUP2 PUSH1 0x5 ADD PUSH0 PUSH2 0x100 EXP DUP2 SLOAD DUP2 PUSH1 0xFF MUL NOT AND SWAP1 DUP4 ISZERO ISZERO MUL OR SWAP1 SSTORE POP SWAP1 POP POP DUP12 DUP14 PUSH32 0xFCE38E6D53B8F7AE4C9D14E37AA45AAF580BA53ED347090E3D1772143B577DB0 TIMESTAMP PUSH1 0x40 MLOAD PUSH2 0x5DD SWAP2 SWAP1 PUSH2 0x1C91 JUMP JUMPDEST PUSH1 0x40 MLOAD DUP1 SWAP2 SUB SWAP1 LOG3 POP POP POP PUSH2 0x5F0 PUSH2 0xD21 JUMP JUMPDEST POP POP POP POP POP POP POP POP POP POP JUMP JUMPDEST PUSH2 0x604 PUSH2 0xD2A JUMP JUMPDEST PUSH2 0x60C PUSH2 0xDB1 JUMP JUMPDEST JUMP JUMPDEST PUSH0 PUSH0 PUSH1 0x14 SWAP1 SLOAD SWAP1 PUSH2 0x100 EXP SWAP1 DIV PUSH1 0xFF AND SWAP1 POP SWAP1 JUMP JUMPDEST PUSH2 0x62B PUSH2 0xD2A JUMP JUMPDEST PUSH2 0x634 PUSH0 PUSH2 0xE12 JUMP JUMPDEST JUMP JUMPDEST PUSH1 0x2 PUSH0 SWAP1 SLOAD SWAP1 PUSH2 0x100 EXP SWAP1 DIV PUSH20 0xFFFFFFFFFFFFFFFFFFFFFFFFFFFFFFFFFFFFFFFF AND DUP2 JUMP JUMPDEST PUSH2 0x663 PUSH2 0xD2A JUMP JUMPDEST PUSH0 PUSH20 0xFFFFFFFFFFFFFFFFFFFFFFFFFFFFFFFFFFFFFFFF AND DUP2 PUSH20 0xFFFFFFFFFFFFFFFFFFFFFFFFFFFFFFFFFFFFFFFF AND SUB PUSH2 0x6D1 JUMPI PUSH1 0x40 MLOAD PUSH32 0x8C379A000000000000000000000000000000000000000000000000000000000 DUP2 MSTORE PUSH1 0x4 ADD PUSH2 0x6C8 SWAP1 PUSH2 0x1D07 JUMP JUMPDEST PUSH1 0x40 MLOAD DUP1 SWAP2 SUB SWAP1 REVERT JUMPDEST PUSH0 PUSH1 0x2 PUSH0 SWAP1 SLOAD SWAP1 PUSH2 0x100 EXP SWAP1 DIV PUSH20 0xFFFFFFFFFFFFFFFFFFFFFFFFFFFFFFFFFFFFFFFF AND SWAP1 POP DUP2 PUSH1 0x2 PUSH0 PUSH2 0x100 EXP DUP2 SLOAD DUP2 PUSH20 0xFFFFFFFFFFFFFFFFFFFFFFFFFFFFFFFFFFFFFFFF MUL NOT AND SWAP1 DUP4 PUSH20 0xFFFFFFFFFFFFFFFFFFFFFFFFFFFFFFFFFFFFFFFF AND MUL OR SWAP1 SSTORE POP DUP2 PUSH20 0xFFFFFFFFFFFFFFFFFFFFFFFFFFFFFFFFFFFFFFFF AND DUP2 PUSH20 0xFFFFFFFFFFFFFFFFFFFFFFFFFFFFFFFFFFFFFFFF AND PUSH32 0xC10C5549853A453E9DBF9B2DB0E4D610CE0D45518449E280A600682A430F6D8 PUSH1 0x40 MLOAD PUSH1 0x40 MLOAD DUP1 SWAP2 SUB SWAP1 LOG3 POP POP JUMP JUMPDEST PUSH2 0x79C PUSH2 0xD2A JUMP JUMPDEST PUSH0 PUSH1 0x3 PUSH0 DUP4 DUP2 MSTORE PUSH1 0x20 ADD SWAP1 DUP2 MSTORE PUSH1 0x20 ADD PUSH0 KECCAK256 SWAP1 POP PUSH0 DUP2 PUSH1 0x4 ADD SLOAD SUB PUSH2 0x7F6 JUMPI PUSH1 0x40 MLOAD PUSH32 0x8C379A000000000000000000000000000000000000000000000000000000000 DUP2 MSTORE PUSH1 0x4 ADD PUSH2 0x7ED SWAP1 PUSH2 0x1D6F JUMP JUMPDEST PUSH1 0x40 MLOAD DUP1 SWAP2 SUB SWAP1 REVERT JUMPDEST DUP1 PUSH1 0x5 ADD PUSH0 SWAP1 SLOAD SWAP1 PUSH2 0x100 EXP SWAP1 DIV PUSH1 0xFF AND ISZERO PUSH2 0x847 JUMPI PUSH1 0x40 MLOAD PUSH32 0x8C379A000000000000000000000000000000000000000000000000000000000 DUP2 MSTORE PUSH1 0x4 ADD PUSH2 0x83E SWAP1 PUSH2 0x1DD7 JUMP JUMPDEST PUSH1 0x40 MLOAD DUP1 SWAP2 SUB SWAP1 REVERT JUMPDEST PUSH1 0x1 DUP2 PUSH1 0x5 ADD PUSH0 PUSH2 0x100 EXP DUP2 SLOAD DUP2 PUSH1 0xFF MUL NOT AND SWAP1 DUP4 ISZERO ISZERO MUL OR SWAP1 SSTORE POP DUP2 PUSH32 0x3220E3BE6208C507DE3E7CF8AF68898EA3ADAC71E07443E7237DC895F86FB9B7 TIMESTAMP PUSH1 0x40 MLOAD PUSH2 0x893 SWAP2 SWAP1 PUSH2 0x1DF5 JUMP JUMPDEST PUSH1 0x40 MLOAD DUP1 SWAP2 SUB SWAP1 LOG2 POP POP JUMP JUMPDEST PUSH2 0x8A7 PUSH2 0xD2A JUMP JUMPDEST PUSH2 0x8AF PUSH2 0xED3 JUMP JUMPDEST JUMP JUMPDEST PUSH0 PUSH0 PUSH0 SWAP1 SLOAD SWAP1 PUSH2 0x100 EXP SWAP1 DIV PUSH20 0xFFFFFFFFFFFFFFFFFFFFFFFFFFFFFFFFFFFFFFFF AND SWAP1 POP SWAP1 JUMP JUMPDEST PUSH1 0x4 PUSH1 0x20 MSTORE DUP1 PUSH0 MSTORE PUSH1 0x40 PUSH0 KECCAK256 PUSH0 SWAP2 POP SLOAD SWAP1 PUSH2 0x100 EXP SWAP1 DIV PUSH1 0xFF AND DUP2 JUMP JUMPDEST PUSH1 0x3 PUSH1 0x20 MSTORE DUP1 PUSH0 MSTORE PUSH1 0x40 PUSH0 KECCAK256 PUSH0 SWAP2 POP SWAP1 POP DUP1 PUSH0 ADD SLOAD SWAP1 DUP1 PUSH1 0x1 ADD SLOAD SWAP1 DUP1 PUSH1 0x2 ADD DUP1 SLOAD PUSH2 0x920 SWAP1 PUSH2 0x19A8 JUMP JUMPDEST DUP1 PUSH1 0x1F ADD PUSH1 0x20 DUP1 SWAP2 DIV MUL PUSH1 0x20 ADD PUSH1 0x40 MLOAD SWAP1 DUP2 ADD PUSH1 0x40 MSTORE DUP1 SWAP3 SWAP2 SWAP1 DUP2 DUP2 MSTORE PUSH1 0x20 ADD DUP3 DUP1 SLOAD PUSH2 0x94C SWAP1 PUSH2 0x19A8 JUMP JUMPDEST DUP1 ISZERO PUSH2 0x997 JUMPI DUP1 PUSH1 0x1F LT PUSH2 0x96E JUMPI PUSH2 0x100 DUP1 DUP4 SLOAD DIV MUL DUP4 MSTORE SWAP2 PUSH1 0x20 ADD SWAP2 PUSH2 0x997 JUMP JUMPDEST DUP3 ADD SWAP2 SWAP1 PUSH0 MSTORE PUSH1 0x20 PUSH0 KECCAK256 SWAP1 JUMPDEST DUP2 SLOAD DUP2 MSTORE SWAP1 PUSH1 0x1 ADD SWAP1 PUSH1 0x20 ADD DUP1 DUP4 GT PUSH2 0x97A JUMPI DUP3 SWAP1 SUB PUSH1 0x1F AND DUP3 ADD SWAP2 JUMPDEST POP POP POP POP POP SWAP1 DUP1 PUSH1 0x3 ADD DUP1 SLOAD PUSH2 0x9AC SWAP1 PUSH2 0x19A8 JUMP JUMPDEST DUP1 PUSH1 0x1F ADD PUSH1 0x20 DUP1 SWAP2 DIV MUL PUSH1 0x20 ADD PUSH1 0x40 MLOAD SWAP1 DUP2 ADD PUSH1 0x40 MSTORE DUP1 SWAP3 SWAP2 SWAP1 DUP2 DUP2 MSTORE PUSH1 0x20 ADD DUP3 DUP1 SLOAD PUSH2 0x9D8 SWAP1 PUSH2 0x19A8 JUMP JUMPDEST DUP1 ISZERO PUSH2 0xA23 JUMPI DUP1 PUSH1 0x1F LT PUSH2 0x9FA JUMPI PUSH2 0x100 DUP1 DUP4 SLOAD DIV MUL DUP4 MSTORE SWAP2 PUSH1 0x20 ADD SWAP2 PUSH2 0xA23 JUMP JUMPDEST DUP3 ADD SWAP2 SWAP1 PUSH0 MSTORE PUSH1 0x20 PUSH0 KECCAK256 SWAP1 JUMPDEST DUP2 SLOAD DUP2 MSTORE SWAP1 PUSH1 0x1 ADD SWAP1 PUSH1 0x20 ADD DUP1 DUP4 GT PUSH2 0xA06 JUMPI DUP3 SWAP1 SUB PUSH1 0x1F AND DUP3 ADD SWAP2 JUMPDEST POP POP POP POP POP SWAP1 DUP1 PUSH1 0x4 ADD SLOAD SWAP1 DUP1 PUSH1 0x5 ADD PUSH0 SWAP1 SLOAD SWAP1 PUSH2 0x100 EXP SWAP1 DIV PUSH1 0xFF AND SWAP1 POP DUP7 JUMP JUMPDEST PUSH2 0xA4D PUSH2 0xD2A JUMP JUMPDEST PUSH0 PUSH20 0xFFFFFFFFFFFFFFFFFFFFFFFFFFFFFFFFFFFFFFFF AND DUP2 PUSH20 0xFFFFFFFFFFFFFFFFFFFFFFFFFFFFFFFFFFFFFFFF AND SUB PUSH2 0xABD JUMPI PUSH0 PUSH1 0x40 MLOAD PUSH32 0x1E4FBDF700000000000000000000000000000000000000000000000000000000 DUP2 MSTORE PUSH1 0x4 ADD PUSH2 0xAB4 SWAP2 SWAP1 PUSH2 0x14B6 JUMP JUMPDEST PUSH1 0x40 MLOAD DUP1 SWAP2 SUB SWAP1 REVERT JUMPDEST PUSH2 0xAC6 DUP2 PUSH2 0xE12 JUMP JUMPDEST POP JUMP JUMPDEST PUSH0 PUSH0 PUSH1 0x3 PUSH0 DUP5 DUP2 MSTORE PUSH1 0x20 ADD SWAP1 DUP2 MSTORE PUSH1 0x20 ADD PUSH0 KECCAK256 PUSH1 0x40 MLOAD DUP1 PUSH1 0xC0 ADD PUSH1 0x40 MSTORE SWAP1 DUP2 PUSH0 DUP3 ADD SLOAD DUP2 MSTORE PUSH1 0x20 ADD PUSH1 0x1 DUP3 ADD SLOAD DUP2 MSTORE PUSH1 0x20 ADD PUSH1 0x2 DUP3 ADD DUP1 SLOAD PUSH2 0xB0A SWAP1 PUSH2 0x19A8 JUMP JUMPDEST DUP1 PUSH1 0x1F ADD PUSH1 0x20 DUP1 SWAP2 DIV MUL PUSH1 0x20 ADD PUSH1 0x40 MLOAD SWAP1 DUP2 ADD PUSH1 0x40 MSTORE DUP1 SWAP3 SWAP2 SWAP1 DUP2 DUP2 MSTORE PUSH1 0x20 ADD DUP3 DUP1 SLOAD PUSH2 0xB36 SWAP1 PUSH2 0x19A8 JUMP JUMPDEST DUP1 ISZERO PUSH2 0xB81 JUMPI DUP1 PUSH1 0x1F LT PUSH2 0xB58 JUMPI PUSH2 0x100 DUP1 DUP4 SLOAD DIV MUL DUP4 MSTORE SWAP2 PUSH1 0x20 ADD SWAP2 PUSH2 0xB81 JUMP JUMPDEST DUP3 ADD SWAP2 SWAP1 PUSH0 MSTORE PUSH1 0x20 PUSH0 KECCAK256 SWAP1 JUMPDEST DUP2 SLOAD DUP2 MSTORE SWAP1 PUSH1 0x1 ADD SWAP1 PUSH1 0x20 ADD DUP1 DUP4 GT PUSH2 0xB64 JUMPI DUP3 SWAP1 SUB PUSH1 0x1F AND DUP3 ADD SWAP2 JUMPDEST POP POP POP POP POP DUP2 MSTORE PUSH1 0x20 ADD PUSH1 0x3 DUP3 ADD DUP1 SLOAD PUSH2 0xB9A SWAP1 PUSH2 0x19A8 JUMP JUMPDEST DUP1 PUSH1 0x1F ADD PUSH1 0x20 DUP1 SWAP2 DIV MUL PUSH1 0x20 ADD PUSH1 0x40 MLOAD SWAP1 DUP2 ADD PUSH1 0x40 MSTORE DUP1 SWAP3 SWAP2 SWAP1 DUP2 DUP2 MSTORE PUSH1 0x20 ADD DUP3 DUP1 SLOAD PUSH2 0xBC6 SWAP1 PUSH2 0x19A8 JUMP JUMPDEST DUP1 ISZERO PUSH2 0xC11 JUMPI DUP1 PUSH1 0x1F LT PUSH2 0xBE8 JUMPI PUSH2 0x100 DUP1 DUP4 SLOAD DIV MUL DUP4 MSTORE SWAP2 PUSH1 0x20 ADD SWAP2 PUSH2 0xC11 JUMP JUMPDEST DUP3 ADD SWAP2 SWAP1 PUSH0 MSTORE PUSH1 0x20 PUSH0 KECCAK256 SWAP1 JUMPDEST DUP2 SLOAD DUP2 MSTORE SWAP1 PUSH1 0x1 ADD SWAP1 PUSH1 0x20 ADD DUP1 DUP4 GT PUSH2 0xBF4 JUMPI DUP3 SWAP1 SUB PUSH1 0x1F AND DUP3 ADD SWAP2 JUMPDEST POP POP POP POP POP DUP2 MSTORE PUSH1 0x20 ADD PUSH1 0x4 DUP3 ADD SLOAD DUP2 MSTORE PUSH1 0x20 ADD PUSH1 0x5 DUP3 ADD PUSH0 SWAP1 SLOAD SWAP1 PUSH2 0x100 EXP SWAP1 DIV PUSH1 0xFF AND ISZERO ISZERO ISZERO ISZERO DUP2 MSTORE POP POP SWAP1 POP PUSH0 DUP2 PUSH1 0x80 ADD MLOAD EQ ISZERO DUP1 ISZERO PUSH2 0xC56 JUMPI POP DUP1 PUSH1 0xA0 ADD MLOAD ISZERO JUMPDEST SWAP2 POP POP SWAP2 SWAP1 POP JUMP JUMPDEST PUSH2 0xC66 PUSH2 0x60E JUMP JUMPDEST ISZERO PUSH2 0xCA6 JUMPI PUSH1 0x40 MLOAD PUSH32 0x8C379A000000000000000000000000000000000000000000000000000000000 DUP2 MSTORE PUSH1 0x4 ADD PUSH2 0xC9D SWAP1 PUSH2 0x1E58 JUMP JUMPDEST PUSH1 0x40 MLOAD DUP1 SWAP2 SUB SWAP1 REVERT JUMPDEST JUMP JUMPDEST PUSH1 0x2 PUSH1 0x1 SLOAD SUB PUSH2 0xCED JUMPI PUSH1 0x40 MLOAD PUSH32 0x8C379A000000000000000000000000000000000000000000000000000000000 DUP2 MSTORE PUSH1 0x4 ADD PUSH2 0xCE4 SWAP1 PUSH2 0x1EC0 JUMP JUMPDEST PUSH1 0x40 MLOAD DUP1 SWAP2 SUB SWAP1 REVERT JUMPDEST PUSH1 0x2 PUSH1 0x1 DUP2 SWAP1 SSTORE POP JUMP JUMPDEST PUSH0 PUSH0 PUSH0 PUSH0 PUSH2 0xD05 DUP7 DUP7 PUSH2 0xF35 JUMP JUMPDEST SWAP3 POP SWAP3 POP SWAP3 POP PUSH2 0xD15 DUP3 DUP3 PUSH2 0xF8A JUMP JUMPDEST DUP3 SWAP4 POP POP POP POP SWAP3 SWAP2 POP POP JUMP JUMPDEST PUSH1 0x1 DUP1 DUP2 SWAP1 SSTORE POP JUMP JUMPDEST PUSH2 0xD32 PUSH2 0x10EC JUMP JUMPDEST PUSH20 0xFFFFFFFFFFFFFFFFFFFFFFFFFFFFFFFFFFFFFFFF AND PUSH2 0xD50 PUSH2 0x8B1 JUMP JUMPDEST PUSH20 0xFFFFFFFFFFFFFFFFFFFFFFFFFFFFFFFFFFFFFFFF AND EQ PUSH2 0xDAF JUMPI PUSH2 0xD73 PUSH2 0x10EC JUMP JUMPDEST PUSH1 0x40 MLOAD PUSH32 0x118CDAA700000000000000000000000000000000000000000000000000000000 DUP2 MSTORE PUSH1 0x4 ADD PUSH2 0xDA6 SWAP2 SWAP1 PUSH2 0x14B6 JUMP JUMPDEST PUSH1 0x40 MLOAD DUP1 SWAP2 SUB SWAP1 REVERT JUMPDEST JUMP JUMPDEST PUSH2 0xDB9 PUSH2 0x10F3 JUMP JUMPDEST PUSH0 PUSH0 PUSH1 0x14 PUSH2 0x100 EXP DUP2 SLOAD DUP2 PUSH1 0xFF MUL NOT AND SWAP1 DUP4 ISZERO ISZERO MUL OR SWAP1 SSTORE POP PUSH32 0x5DB9EE0A495BF2E6FF9C91A7834C1BA4FDD244A5E8AA4E537BD38AEAE4B073AA PUSH2 0xDFB PUSH2 0x10EC JUMP JUMPDEST PUSH1 0x40 MLOAD PUSH2 0xE08 SWAP2 SWAP1 PUSH2 0x14B6 JUMP JUMPDEST PUSH1 0x40 MLOAD DUP1 SWAP2 SUB SWAP1 LOG1 JUMP JUMPDEST PUSH0 PUSH0 PUSH0 SWAP1 SLOAD SWAP1 PUSH2 0x100 EXP SWAP1 DIV PUSH20 0xFFFFFFFFFFFFFFFFFFFFFFFFFFFFFFFFFFFFFFFF AND SWAP1 POP DUP2 PUSH0 PUSH0 PUSH2 0x100 EXP DUP2 SLOAD DUP2 PUSH20 0xFFFFFFFFFFFFFFFFFFFFFFFFFFFFFFFFFFFFFFFF MUL NOT AND SWAP1 DUP4 PUSH20 0xFFFFFFFFFFFFFFFFFFFFFFFFFFFFFFFFFFFFFFFF AND MUL OR SWAP1 SSTORE POP DUP2 PUSH20 0xFFFFFFFFFFFFFFFFFFFFFFFFFFFFFFFFFFFFFFFF AND DUP2 PUSH20 0xFFFFFFFFFFFFFFFFFFFFFFFFFFFFFFFFFFFFFFFF AND PUSH32 0x8BE0079C531659141344CD1FD0A4F28419497F9722A3DAAFE3B4186F6B6457E0 PUSH1 0x40 MLOAD PUSH1 0x40 MLOAD DUP1 SWAP2 SUB SWAP1 LOG3 POP POP JUMP JUMPDEST PUSH2 0xEDB PUSH2 0xC5E JUMP JUMPDEST PUSH1 0x1 PUSH0 PUSH1 0x14 PUSH2 0x100 EXP DUP2 SLOAD DUP2 PUSH1 0xFF MUL NOT AND SWAP1 DUP4 ISZERO ISZERO MUL OR SWAP1 SSTORE POP PUSH32 0x62E78CEA01BEE320CD4E420270B5EA74000D11B0C9F74754EBDBFC544B05A258 PUSH2 0xF1E PUSH2 0x10EC JUMP JUMPDEST PUSH1 0x40 MLOAD PUSH2 0xF2B SWAP2 SWAP1 PUSH2 0x14B6 JUMP JUMPDEST PUSH1 0x40 MLOAD DUP1 SWAP2 SUB SWAP1 LOG1 JUMP JUMPDEST PUSH0 PUSH0 PUSH0 PUSH1 0x41 DUP5 MLOAD SUB PUSH2 0xF75 JUMPI PUSH0 PUSH0 PUSH0 PUSH1 0x20 DUP8 ADD MLOAD SWAP3 POP PUSH1 0x40 DUP8 ADD MLOAD SWAP2 POP PUSH1 0x60 DUP8 ADD MLOAD PUSH0 BYTE SWAP1 POP PUSH2 0xF67 DUP9 DUP3 DUP6 DUP6 PUSH2 0x113C JUMP JUMPDEST SWAP6 POP SWAP6 POP SWAP6 POP POP POP POP PUSH2 0xF83 JUMP JUMPDEST PUSH0 PUSH1 0x2 DUP6 MLOAD PUSH0 SHL SWAP3 POP SWAP3 POP SWAP3 POP JUMPDEST SWAP3 POP SWAP3 POP SWAP3 JUMP JUMPDEST PUSH0 PUSH1 0x3 DUP2 GT ISZERO PUSH2 0xF9D JUMPI PUSH2 0xF9C PUSH2 0x1EDE JUMP JUMPDEST JUMPDEST DUP3 PUSH1 0x3 DUP2 GT ISZERO PUSH2 0xFB0 JUMPI PUSH2 0xFAF PUSH2 0x1EDE JUMP JUMPDEST JUMPDEST SUB ISZERO PUSH2 0x10E8 JUMPI PUSH1 0x1 PUSH1 0x3 DUP2 GT ISZERO PUSH2 0xFCA JUMPI PUSH2 0xFC9 PUSH2 0x1EDE JUMP JUMPDEST JUMPDEST DUP3 PUSH1 0x3 DUP2 GT ISZERO PUSH2 0xFDD JUMPI PUSH2 0xFDC PUSH2 0x1EDE JUMP JUMPDEST JUMPDEST SUB PUSH2 0x1014 JUMPI PUSH1 0x40 MLOAD PUSH32 0xF645EEDF00000000000000000000000000000000000000000000000000000000 DUP2 MSTORE PUSH1 0x4 ADD PUSH1 0x40 MLOAD DUP1 SWAP2 SUB SWAP1 REVERT JUMPDEST PUSH1 0x2 PUSH1 0x3 DUP2 GT ISZERO PUSH2 0x1028 JUMPI PUSH2 0x1027 PUSH2 0x1EDE JUMP JUMPDEST JUMPDEST DUP3 PUSH1 0x3 DUP2 GT ISZERO PUSH2 0x103B JUMPI PUSH2 0x103A PUSH2 0x1EDE JUMP JUMPDEST JUMPDEST SUB PUSH2 0x107F JUMPI DUP1 PUSH0 SHR PUSH1 0x40 MLOAD PUSH32 0xFCE698F700000000000000000000000000000000000000000000000000000000 DUP2 MSTORE PUSH1 0x4 ADD PUSH2 0x1076 SWAP2 SWAP1 PUSH2 0x1DF5 JUMP JUMPDEST PUSH1 0x40 MLOAD DUP1 SWAP2 SUB SWAP1 REVERT JUMPDEST PUSH1 0x3 DUP1 DUP2 GT ISZERO PUSH2 0x1092 JUMPI PUSH2 0x1091 PUSH2 0x1EDE JUMP JUMPDEST JUMPDEST DUP3 PUSH1 0x3 DUP2 GT ISZERO PUSH2 0x10A5 JUMPI PUSH2 0x10A4 PUSH2 0x1EDE JUMP JUMPDEST JUMPDEST SUB PUSH2 0x10E7 JUMPI DUP1 PUSH1 0x40 MLOAD PUSH32 0xD78BCE0C00000000000000000000000000000000000000000000000000000000 DUP2 MSTORE PUSH1 0x4 ADD PUSH2 0x10DE SWAP2 SWAP1 PUSH2 0x1F0B JUMP JUMPDEST PUSH1 0x40 MLOAD DUP1 SWAP2 SUB SWAP1 REVERT JUMPDEST JUMPDEST POP POP JUMP JUMPDEST PUSH0 CALLER SWAP1 POP SWAP1 JUMP JUMPDEST PUSH2 0x10FB PUSH2 0x60E JUMP JUMPDEST PUSH2 0x113A JUMPI PUSH1 0x40 MLOAD PUSH32 0x8C379A000000000000000000000000000000000000000000000000000000000 DUP2 MSTORE PUSH1 0x4 ADD PUSH2 0x1131 SWAP1 PUSH2 0x1F6E JUMP JUMPDEST PUSH1 0x40 MLOAD DUP1 SWAP2 SUB SWAP1 REVERT JUMPDEST JUMP JUMPDEST PUSH0 PUSH0 PUSH0 PUSH32 0x7FFFFFFFFFFFFFFFFFFFFFFFFFFFFFFF5D576E7357A4501DDFE92F46681B20A0 DUP5 PUSH0 SHR GT ISZERO PUSH2 0x1178 JUMPI PUSH0 PUSH1 0x3 DUP6 SWAP3 POP SWAP3 POP SWAP3 POP PUSH2 0x1219 JUMP JUMPDEST PUSH0 PUSH1 0x1 DUP9 DUP9 DUP9 DUP9 PUSH1 0x40 MLOAD PUSH0 DUP2 MSTORE PUSH1 0x20 ADD PUSH1 0x40 MSTORE PUSH1 0x40 MLOAD PUSH2 0x119B SWAP5 SWAP4 SWAP3 SWAP2 SWAP1 PUSH2 0x1FA7 JUMP JUMPDEST PUSH1 0x20 PUSH1 0x40 MLOAD PUSH1 0x20 DUP2 SUB SWAP1 DUP1 DUP5 SUB SWAP1 DUP6 GAS STATICCALL ISZERO DUP1 ISZERO PUSH2 0x11BB JUMPI RETURNDATASIZE PUSH0 PUSH0 RETURNDATACOPY RETURNDATASIZE PUSH0 REVERT JUMPDEST POP POP POP PUSH1 0x20 PUSH1 0x40 MLOAD SUB MLOAD SWAP1 POP PUSH0 PUSH20 0xFFFFFFFFFFFFFFFFFFFFFFFFFFFFFFFFFFFFFFFF AND DUP2 PUSH20 0xFFFFFFFFFFFFFFFFFFFFFFFFFFFFFFFFFFFFFFFF AND SUB PUSH2 0x120C JUMPI PUSH0 PUSH1 0x1 PUSH0 PUSH0 SHL SWAP4 POP SWAP4 POP SWAP4 POP POP PUSH2 0x1219 JUMP JUMPDEST DUP1 PUSH0 PUSH0 PUSH0 SHL SWAP4 POP SWAP4 POP SWAP4 POP POP JUMPDEST SWAP5 POP SWAP5 POP SWAP5 SWAP2 POP POP JUMP JUMPDEST PUSH0 PUSH0 REVERT JUMPDEST PUSH0 PUSH0 REVERT JUMPDEST PUSH0 DUP2 SWAP1 POP SWAP2 SWAP1 POP JUMP JUMPDEST PUSH2 0x123D DUP2 PUSH2 0x122B JUMP JUMPDEST DUP2 EQ PUSH2 0x1247 JUMPI PUSH0 PUSH0 REVERT JUMPDEST POP JUMP JUMPDEST PUSH0 DUP2 CALLDATALOAD SWAP1 POP PUSH2 0x1258 DUP2 PUSH2 0x1234 JUMP JUMPDEST SWAP3 SWAP2 POP POP JUMP JUMPDEST PUSH0 DUP2 SWAP1 POP SWAP2 SWAP1 POP JUMP JUMPDEST PUSH2 0x1270 DUP2 PUSH2 0x125E JUMP JUMPDEST DUP2 EQ PUSH2 0x127A JUMPI PUSH0 PUSH0 REVERT JUMPDEST POP JUMP JUMPDEST PUSH0 DUP2 CALLDATALOAD SWAP1 POP PUSH2 0x128B DUP2 PUSH2 0x1267 JUMP JUMPDEST SWAP3 SWAP2 POP POP JUMP JUMPDEST PUSH0 PUSH0 REVERT JUMPDEST PUSH0 PUSH0 REVERT JUMPDEST PUSH0 PUSH0 REVERT JUMPDEST PUSH0 PUSH0 DUP4 PUSH1 0x1F DUP5 ADD SLT PUSH2 0x12B2 JUMPI PUSH2 0x12B1 PUSH2 0x1291 JUMP JUMPDEST JUMPDEST DUP3 CALLDATALOAD SWAP1 POP PUSH8 0xFFFFFFFFFFFFFFFF DUP2 GT ISZERO PUSH2 0x12CF JUMPI PUSH2 0x12CE PUSH2 0x1295 JUMP JUMPDEST JUMPDEST PUSH1 0x20 DUP4 ADD SWAP2 POP DUP4 PUSH1 0x1 DUP3 MUL DUP4 ADD GT ISZERO PUSH2 0x12EB JUMPI PUSH2 0x12EA PUSH2 0x1299 JUMP JUMPDEST JUMPDEST SWAP3 POP SWAP3 SWAP1 POP JUMP JUMPDEST PUSH0 PUSH0 DUP4 PUSH1 0x1F DUP5 ADD SLT PUSH2 0x1307 JUMPI PUSH2 0x1306 PUSH2 0x1291 JUMP JUMPDEST JUMPDEST DUP3 CALLDATALOAD SWAP1 POP PUSH8 0xFFFFFFFFFFFFFFFF DUP2 GT ISZERO PUSH2 0x1324 JUMPI PUSH2 0x1323 PUSH2 0x1295 JUMP JUMPDEST JUMPDEST PUSH1 0x20 DUP4 ADD SWAP2 POP DUP4 PUSH1 0x1 DUP3 MUL DUP4 ADD GT ISZERO PUSH2 0x1340 JUMPI PUSH2 0x133F PUSH2 0x1299 JUMP JUMPDEST JUMPDEST SWAP3 POP SWAP3 SWAP1 POP JUMP JUMPDEST PUSH0 PUSH0 PUSH0 PUSH0 PUSH0 PUSH0 PUSH0 PUSH0 PUSH0 PUSH0 PUSH1 0xE0 DUP12 DUP14 SUB SLT ISZERO PUSH2 0x1365 JUMPI PUSH2 0x1364 PUSH2 0x1223 JUMP JUMPDEST JUMPDEST PUSH0 PUSH2 0x1372 DUP14 DUP3 DUP15 ADD PUSH2 0x124A JUMP JUMPDEST SWAP11 POP POP PUSH1 0x20 PUSH2 0x1383 DUP14 DUP3 DUP15 ADD PUSH2 0x127D JUMP JUMPDEST SWAP10 POP POP PUSH1 0x40 PUSH2 0x1394 DUP14 DUP3 DUP15 ADD PUSH2 0x127D JUMP JUMPDEST SWAP9 POP POP PUSH1 0x60 DUP12 ADD CALLDATALOAD PUSH8 0xFFFFFFFFFFFFFFFF DUP2 GT ISZERO PUSH2 0x13B5 JUMPI PUSH2 0x13B4 PUSH2 0x1227 JUMP JUMPDEST JUMPDEST PUSH2 0x13C1 DUP14 DUP3 DUP15 ADD PUSH2 0x129D JUMP JUMPDEST SWAP8 POP SWAP8 POP POP PUSH1 0x80 DUP12 ADD CALLDATALOAD PUSH8 0xFFFFFFFFFFFFFFFF DUP2 GT ISZERO PUSH2 0x13E4 JUMPI PUSH2 0x13E3 PUSH2 0x1227 JUMP JUMPDEST JUMPDEST PUSH2 0x13F0 DUP14 DUP3 DUP15 ADD PUSH2 0x129D JUMP JUMPDEST SWAP6 POP SWAP6 POP POP PUSH1 0xA0 PUSH2 0x1403 DUP14 DUP3 DUP15 ADD PUSH2 0x124A JUMP JUMPDEST SWAP4 POP POP PUSH1 0xC0 DUP12 ADD CALLDATALOAD PUSH8 0xFFFFFFFFFFFFFFFF DUP2 GT ISZERO PUSH2 0x1424 JUMPI PUSH2 0x1423 PUSH2 0x1227 JUMP JUMPDEST JUMPDEST PUSH2 0x1430 DUP14 DUP3 DUP15 ADD PUSH2 0x12F2 JUMP JUMPDEST SWAP3 POP SWAP3 POP POP SWAP3 SWAP6 SWAP9 SWAP12 SWAP2 SWAP5 SWAP8 SWAP11 POP SWAP3 SWAP6 SWAP9 POP JUMP JUMPDEST PUSH0 DUP2 ISZERO ISZERO SWAP1 POP SWAP2 SWAP1 POP JUMP JUMPDEST PUSH2 0x1458 DUP2 PUSH2 0x1444 JUMP JUMPDEST DUP3 MSTORE POP POP JUMP JUMPDEST PUSH0 PUSH1 0x20 DUP3 ADD SWAP1 POP PUSH2 0x1471 PUSH0 DUP4 ADD DUP5 PUSH2 0x144F JUMP JUMPDEST SWAP3 SWAP2 POP POP JUMP JUMPDEST PUSH0 PUSH20 0xFFFFFFFFFFFFFFFFFFFFFFFFFFFFFFFFFFFFFFFF DUP3 AND SWAP1 POP SWAP2 SWAP1 POP JUMP JUMPDEST PUSH0 PUSH2 0x14A0 DUP3 PUSH2 0x1477 JUMP JUMPDEST SWAP1 POP SWAP2 SWAP1 POP JUMP JUMPDEST PUSH2 0x14B0 DUP2 PUSH2 0x1496 JUMP JUMPDEST DUP3 MSTORE POP POP JUMP JUMPDEST PUSH0 PUSH1 0x20 DUP3 ADD SWAP1 POP PUSH2 0x14C9 PUSH0 DUP4 ADD DUP5 PUSH2 0x14A7 JUMP JUMPDEST SWAP3 SWAP2 POP POP JUMP JUMPDEST PUSH2 0x14D8 DUP2 PUSH2 0x1496 JUMP JUMPDEST DUP2 EQ PUSH2 0x14E2 JUMPI PUSH0 PUSH0 REVERT JUMPDEST POP JUMP JUMPDEST PUSH0 DUP2 CALLDATALOAD SWAP1 POP PUSH2 0x14F3 DUP2 PUSH2 0x14CF JUMP JUMPDEST SWAP3 SWAP2 POP POP JUMP JUMPDEST PUSH0 PUSH1 0x20 DUP3 DUP5 SUB SLT ISZERO PUSH2 0x150E JUMPI PUSH2 0x150D PUSH2 0x1223 JUMP JUMPDEST JUMPDEST PUSH0 PUSH2 0x151B DUP5 DUP3 DUP6 ADD PUSH2 0x14E5 JUMP JUMPDEST SWAP2 POP POP SWAP3 SWAP2 POP POP JUMP JUMPDEST PUSH0 PUSH1 0x20 DUP3 DUP5 SUB SLT ISZERO PUSH2 0x1539 JUMPI PUSH2 0x1538 PUSH2 0x1223 JUMP JUMPDEST JUMPDEST PUSH0 PUSH2 0x1546 DUP5 DUP3 DUP6 ADD PUSH2 0x124A JUMP JUMPDEST SWAP2 POP POP SWAP3 SWAP2 POP POP JUMP JUMPDEST PUSH0 PUSH1 0x20 DUP3 DUP5 SUB SLT ISZERO PUSH2 0x1564 JUMPI PUSH2 0x1563 PUSH2 0x1223 JUMP JUMPDEST JUMPDEST PUSH0 PUSH2 0x1571 DUP5 DUP3 DUP6 ADD PUSH2 0x127D JUMP JUMPDEST SWAP2 POP POP SWAP3 SWAP2 POP POP JUMP JUMPDEST PUSH2 0x1583 DUP2 PUSH2 0x125E JUMP JUMPDEST DUP3 MSTORE POP POP JUMP JUMPDEST PUSH0 DUP2 MLOAD SWAP1 POP SWAP2 SWAP1 POP JUMP JUMPDEST PUSH0 DUP3 DUP3 MSTORE PUSH1 0x20 DUP3 ADD SWAP1 POP SWAP3 SWAP2 POP POP JUMP JUMPDEST DUP3 DUP2 DUP4 MCOPY PUSH0 DUP4 DUP4 ADD MSTORE POP POP POP JUMP JUMPDEST PUSH0 PUSH1 0x1F NOT PUSH1 0x1F DUP4 ADD AND SWAP1 POP SWAP2 SWAP1 POP JUMP JUMPDEST PUSH0 PUSH2 0x15CB DUP3 PUSH2 0x1589 JUMP JUMPDEST PUSH2 0x15D5 DUP2 DUP6 PUSH2 0x1593 JUMP JUMPDEST SWAP4 POP PUSH2 0x15E5 DUP2 DUP6 PUSH1 0x20 DUP7 ADD PUSH2 0x15A3 JUMP JUMPDEST PUSH2 0x15EE DUP2 PUSH2 0x15B1 JUMP JUMPDEST DUP5 ADD SWAP2 POP POP SWAP3 SWAP2 POP POP JUMP JUMPDEST PUSH2 0x1602 DUP2 PUSH2 0x122B JUMP JUMPDEST DUP3 MSTORE POP POP JUMP JUMPDEST PUSH0 PUSH1 0xC0 DUP3 ADD SWAP1 POP PUSH2 0x161B PUSH0 DUP4 ADD DUP10 PUSH2 0x157A JUMP JUMPDEST PUSH2 0x1628 PUSH1 0x20 DUP4 ADD DUP9 PUSH2 0x157A JUMP JUMPDEST DUP2 DUP2 SUB PUSH1 0x40 DUP4 ADD MSTORE PUSH2 0x163A DUP2 DUP8 PUSH2 0x15C1 JUMP JUMPDEST SWAP1 POP DUP2 DUP2 SUB PUSH1 0x60 DUP4 ADD MSTORE PUSH2 0x164E DUP2 DUP7 PUSH2 0x15C1 JUMP JUMPDEST SWAP1 POP PUSH2 0x165D PUSH1 0x80 DUP4 ADD DUP6 PUSH2 0x15F9 JUMP JUMPDEST PUSH2 0x166A PUSH1 0xA0 DUP4 ADD DUP5 PUSH2 0x144F JUMP JUMPDEST SWAP8 SWAP7 POP POP POP POP POP POP POP JUMP JUMPDEST PUSH32 0x4964656E7469747920616C726561647920657869737473000000000000000000 PUSH0 DUP3 ADD MSTORE POP JUMP JUMPDEST PUSH0 PUSH2 0x16A9 PUSH1 0x17 DUP4 PUSH2 0x1593 JUMP JUMPDEST SWAP2 POP PUSH2 0x16B4 DUP3 PUSH2 0x1675 JUMP JUMPDEST PUSH1 0x20 DUP3 ADD SWAP1 POP SWAP2 SWAP1 POP JUMP JUMPDEST PUSH0 PUSH1 0x20 DUP3 ADD SWAP1 POP DUP2 DUP2 SUB PUSH0 DUP4 ADD MSTORE PUSH2 0x16D6 DUP2 PUSH2 0x169D JUMP JUMPDEST SWAP1 POP SWAP2 SWAP1 POP JUMP JUMPDEST PUSH32 0x49535355455F4944454E54495459000000000000000000000000000000000000 PUSH0 DUP3 ADD MSTORE POP JUMP JUMPDEST PUSH0 PUSH2 0x1711 PUSH1 0xE DUP4 PUSH2 0x1593 JUMP JUMPDEST SWAP2 POP PUSH2 0x171C DUP3 PUSH2 0x16DD JUMP JUMPDEST PUSH1 0x20 DUP3 ADD SWAP1 POP SWAP2 SWAP1 POP JUMP JUMPDEST DUP3 DUP2 DUP4 CALLDATACOPY PUSH0 DUP4 DUP4 ADD MSTORE POP POP POP JUMP JUMPDEST PUSH0 PUSH2 0x1740 DUP4 DUP6 PUSH2 0x1593 JUMP JUMPDEST SWAP4 POP PUSH2 0x174D DUP4 DUP6 DUP5 PUSH2 0x1727 JUMP JUMPDEST PUSH2 0x1756 DUP4 PUSH2 0x15B1 JUMP JUMPDEST DUP5 ADD SWAP1 POP SWAP4 SWAP3 POP POP POP JUMP JUMPDEST PUSH0 PUSH1 0xE0 DUP3 ADD SWAP1 POP DUP2 DUP2 SUB PUSH0 DUP4 ADD MSTORE PUSH2 0x1778 DUP2 PUSH2 0x1705 JUMP JUMPDEST SWAP1 POP PUSH2 0x1787 PUSH1 0x20 DUP4 ADD DUP12 PUSH2 0x15F9 JUMP JUMPDEST PUSH2 0x1794 PUSH1 0x40 DUP4 ADD DUP11 PUSH2 0x157A JUMP JUMPDEST PUSH2 0x17A1 PUSH1 0x60 DUP4 ADD DUP10 PUSH2 0x157A JUMP JUMPDEST DUP2 DUP2 SUB PUSH1 0x80 DUP4 ADD MSTORE PUSH2 0x17B4 DUP2 DUP8 DUP10 PUSH2 0x1735 JUMP JUMPDEST SWAP1 POP DUP2 DUP2 SUB PUSH1 0xA0 DUP4 ADD MSTORE PUSH2 0x17C9 DUP2 DUP6 DUP8 PUSH2 0x1735 JUMP JUMPDEST SWAP1 POP PUSH2 0x17D8 PUSH1 0xC0 DUP4 ADD DUP5 PUSH2 0x15F9 JUMP JUMPDEST SWAP10 SWAP9 POP POP POP POP POP POP POP POP POP JUMP JUMPDEST PUSH32 0x417574686F72697A6174696F6E20616C72656164792075736564000000000000 PUSH0 DUP3 ADD MSTORE POP JUMP JUMPDEST PUSH0 PUSH2 0x1819 PUSH1 0x1A DUP4 PUSH2 0x1593 JUMP JUMPDEST SWAP2 POP PUSH2 0x1824 DUP3 PUSH2 0x17E5 JUMP JUMPDEST PUSH1 0x20 DUP3 ADD SWAP1 POP SWAP2 SWAP1 POP JUMP JUMPDEST PUSH0 PUSH1 0x20 DUP3 ADD SWAP1 POP DUP2 DUP2 SUB PUSH0 DUP4 ADD MSTORE PUSH2 0x1846 DUP2 PUSH2 0x180D JUMP JUMPDEST SWAP1 POP SWAP2 SWAP1 POP JUMP JUMPDEST PUSH0 DUP2 SWAP1 POP SWAP3 SWAP2 POP POP JUMP JUMPDEST PUSH32 0x19457468657265756D205369676E6564204D6573736167653A0A333200000000 PUSH0 DUP3 ADD MSTORE POP JUMP JUMPDEST PUSH0 PUSH2 0x188B PUSH1 0x1C DUP4 PUSH2 0x184D JUMP JUMPDEST SWAP2 POP PUSH2 0x1896 DUP3 PUSH2 0x1857 JUMP JUMPDEST PUSH1 0x1C DUP3 ADD SWAP1 POP SWAP2 SWAP1 POP JUMP JUMPDEST PUSH0 DUP2 SWAP1 POP SWAP2 SWAP1 POP JUMP JUMPDEST PUSH2 0x18BB PUSH2 0x18B6 DUP3 PUSH2 0x125E JUMP JUMPDEST PUSH2 0x18A1 JUMP JUMPDEST DUP3 MSTORE POP POP JUMP JUMPDEST PUSH0 PUSH2 0x18CB DUP3 PUSH2 0x187F JUMP JUMPDEST SWAP2 POP PUSH2 0x18D7 DUP3 DUP5 PUSH2 0x18AA JUMP JUMPDEST PUSH1 0x20 DUP3 ADD SWAP2 POP DUP2 SWAP1 POP SWAP3 SWAP2 POP POP JUMP JUMPDEST PUSH32 0x496E76616C696420544545207369676E61747572650000000000000000000000 PUSH0 DUP3 ADD MSTORE POP JUMP JUMPDEST PUSH0 PUSH2 0x191A PUSH1 0x15 DUP4 PUSH2 0x1593 JUMP JUMPDEST SWAP2 POP PUSH2 0x1925 DUP3 PUSH2 0x18E6 JUMP JUMPDEST PUSH1 0x20 DUP3 ADD SWAP1 POP SWAP2 SWAP1 POP JUMP JUMPDEST PUSH0 PUSH1 0x20 DUP3 ADD SWAP1 POP DUP2 DUP2 SUB PUSH0 DUP4 ADD MSTORE PUSH2 0x1947 DUP2 PUSH2 0x190E JUMP JUMPDEST SWAP1 POP SWAP2 SWAP1 POP JUMP JUMPDEST PUSH32 0x4E487B7100000000000000000000000000000000000000000000000000000000 PUSH0 MSTORE PUSH1 0x41 PUSH1 0x4 MSTORE PUSH1 0x24 PUSH0 REVERT JUMPDEST PUSH32 0x4E487B7100000000000000000000000000000000000000000000000000000000 PUSH0 MSTORE PUSH1 0x22 PUSH1 0x4 MSTORE PUSH1 0x24 PUSH0 REVERT JUMPDEST PUSH0 PUSH1 0x2 DUP3 DIV SWAP1 POP PUSH1 0x1 DUP3 AND DUP1 PUSH2 0x19BF JUMPI PUSH1 0x7F DUP3 AND SWAP2 POP JUMPDEST PUSH1 0x20 DUP3 LT DUP2 SUB PUSH2 0x19D2 JUMPI PUSH2 0x19D1 PUSH2 0x197B JUMP JUMPDEST JUMPDEST POP SWAP2 SWAP1 POP JUMP JUMPDEST PUSH0 DUP2 SWAP1 POP DUP2 PUSH0 MSTORE PUSH1 0x20 PUSH0 KECCAK256 SWAP1 POP SWAP2 SWAP1 POP JUMP JUMPDEST PUSH0 PUSH1 0x20 PUSH1 0x1F DUP4 ADD DIV SWAP1 POP SWAP2 SWAP1 POP JUMP JUMPDEST PUSH0 DUP3 DUP3 SHL SWAP1 POP SWAP3 SWAP2 POP POP JUMP JUMPDEST PUSH0 PUSH1 0x8 DUP4 MUL PUSH2 0x1A34 PUSH32 0xFFFFFFFFFFFFFFFFFFFFFFFFFFFFFFFFFFFFFFFFFFFFFFFFFFFFFFFFFFFFFFFF DUP3 PUSH2 0x19F9 JUMP JUMPDEST PUSH2 0x1A3E DUP7 DUP4 PUSH2 0x19F9 JUMP JUMPDEST SWAP6 POP DUP1 NOT DUP5 AND SWAP4 POP DUP1 DUP7 AND DUP5 OR SWAP3 POP POP POP SWAP4 SWAP3 POP POP POP JUMP JUMPDEST PUSH0 DUP2 SWAP1 POP SWAP2 SWAP1 POP JUMP JUMPDEST PUSH0 PUSH2 0x1A79 PUSH2 0x1A74 PUSH2 0x1A6F DUP5 PUSH2 0x122B JUMP JUMPDEST PUSH2 0x1A56 JUMP JUMPDEST PUSH2 0x122B JUMP JUMPDEST SWAP1 POP SWAP2 SWAP1 POP JUMP JUMPDEST PUSH0 DUP2 SWAP1 POP SWAP2 SWAP1 POP JUMP JUMPDEST PUSH2 0x1A92 DUP4 PUSH2 0x1A5F JUMP JUMPDEST PUSH2 0x1AA6 PUSH2 0x1A9E DUP3 PUSH2 0x1A80 JUMP JUMPDEST DUP5 DUP5 SLOAD PUSH2 0x1A05 JUMP JUMPDEST DUP3 SSTORE POP POP POP POP JUMP JUMPDEST PUSH0 PUSH0 SWAP1 POP SWAP1 JUMP JUMPDEST PUSH2 0x1ABD PUSH2 0x1AAE JUMP JUMPDEST PUSH2 0x1AC8 DUP2 DUP5 DUP5 PUSH2 0x1A89 JUMP JUMPDEST POP POP POP JUMP JUMPDEST JUMPDEST DUP2 DUP2 LT ISZERO PUSH2 0x1AEB JUMPI PUSH2 0x1AE0 PUSH0 DUP3 PUSH2 0x1AB5 JUMP JUMPDEST PUSH1 0x1 DUP2 ADD SWAP1 POP PUSH2 0x1ACE JUMP JUMPDEST POP POP JUMP JUMPDEST PUSH1 0x1F DUP3 GT ISZERO PUSH2 0x1B30 JUMPI PUSH2 0x1B01 DUP2 PUSH2 0x19D8 JUMP JUMPDEST PUSH2 0x1B0A DUP5 PUSH2 0x19EA JUMP JUMPDEST DUP2 ADD PUSH1 0x20 DUP6 LT ISZERO PUSH2 0x1B19 JUMPI DUP2 SWAP1 POP JUMPDEST PUSH2 0x1B2D PUSH2 0x1B25 DUP6 PUSH2 0x19EA JUMP JUMPDEST DUP4 ADD DUP3 PUSH2 0x1ACD JUMP JUMPDEST POP POP JUMPDEST POP POP POP JUMP JUMPDEST PUSH0 DUP3 DUP3 SHR SWAP1 POP SWAP3 SWAP2 POP POP JUMP JUMPDEST PUSH0 PUSH2 0x1B50 PUSH0 NOT DUP5 PUSH1 0x8 MUL PUSH2 0x1B35 JUMP JUMPDEST NOT DUP1 DUP4 AND SWAP2 POP POP SWAP3 SWAP2 POP POP JUMP JUMPDEST PUSH0 PUSH2 0x1B68 DUP4 DUP4 PUSH2 0x1B41 JUMP JUMPDEST SWAP2 POP DUP3 PUSH1 0x2 MUL DUP3 OR SWAP1 POP SWAP3 SWAP2 POP POP JUMP JUMPDEST PUSH2 0x1B81 DUP3 PUSH2 0x1589 JUMP JUMPDEST PUSH8 0xFFFFFFFFFFFFFFFF DUP2 GT ISZERO PUSH2 0x1B9A JUMPI PUSH2 0x1B99 PUSH2 0x194E JUMP JUMPDEST JUMPDEST PUSH2 0x1BA4 DUP3 SLOAD PUSH2 0x19A8 JUMP JUMPDEST PUSH2 0x1BAF DUP3 DUP3 DUP6 PUSH2 0x1AEF JUMP JUMPDEST PUSH0 PUSH1 0x20 SWAP1 POP PUSH1 0x1F DUP4 GT PUSH1 0x1 DUP2 EQ PUSH2 0x1BE0 JUMPI PUSH0 DUP5 ISZERO PUSH2 0x1BCE JUMPI DUP3 DUP8 ADD MLOAD SWAP1 POP JUMPDEST PUSH2 0x1BD8 DUP6 DUP3 PUSH2 0x1B5D JUMP JUMPDEST DUP7 SSTORE POP PUSH2 0x1C3F JUMP JUMPDEST PUSH1 0x1F NOT DUP5 AND PUSH2 0x1BEE DUP7 PUSH2 0x19D8 JUMP JUMPDEST PUSH0 JUMPDEST DUP3 DUP2 LT ISZERO PUSH2 0x1C15 JUMPI DUP5 DUP10 ADD MLOAD DUP3 SSTORE PUSH1 0x1 DUP3 ADD SWAP2 POP PUSH1 0x20 DUP6 ADD SWAP5 POP PUSH1 0x20 DUP2 ADD SWAP1 POP PUSH2 0x1BF0 JUMP JUMPDEST DUP7 DUP4 LT ISZERO PUSH2 0x1C32 JUMPI DUP5 DUP10 ADD MLOAD PUSH2 0x1C2E PUSH1 0x1F DUP10 AND DUP3 PUSH2 0x1B41 JUMP JUMPDEST DUP4 SSTORE POP JUMPDEST PUSH1 0x1 PUSH1 0x2 DUP9 MUL ADD DUP9 SSTORE POP POP POP JUMPDEST POP POP POP POP POP POP JUMP JUMPDEST PUSH32 0x4964656E74696461642063726561646100000000000000000000000000000000 PUSH0 DUP3 ADD MSTORE POP JUMP JUMPDEST PUSH0 PUSH2 0x1C7B PUSH1 0x10 DUP4 PUSH2 0x1593 JUMP JUMPDEST SWAP2 POP PUSH2 0x1C86 DUP3 PUSH2 0x1C47 JUMP JUMPDEST PUSH1 0x20 DUP3 ADD SWAP1 POP SWAP2 SWAP1 POP JUMP JUMPDEST PUSH0 PUSH1 0x40 DUP3 ADD SWAP1 POP PUSH2 0x1CA4 PUSH0 DUP4 ADD DUP5 PUSH2 0x15F9 JUMP JUMPDEST DUP2 DUP2 SUB PUSH1 0x20 DUP4 ADD MSTORE PUSH2 0x1CB5 DUP2 PUSH2 0x1C6F JUMP JUMPDEST SWAP1 POP SWAP3 SWAP2 POP POP JUMP JUMPDEST PUSH32 0x496E76616C696420544545206164647265737300000000000000000000000000 PUSH0 DUP3 ADD MSTORE POP JUMP JUMPDEST PUSH0 PUSH2 0x1CF1 PUSH1 0x13 DUP4 PUSH2 0x1593 JUMP JUMPDEST SWAP2 POP PUSH2 0x1CFC DUP3 PUSH2 0x1CBD JUMP JUMPDEST PUSH1 0x20 DUP3 ADD SWAP1 POP SWAP2 SWAP1 POP JUMP JUMPDEST PUSH0 PUSH1 0x20 DUP3 ADD SWAP1 POP DUP2 DUP2 SUB PUSH0 DUP4 ADD MSTORE PUSH2 0x1D1E DUP2 PUSH2 0x1CE5 JUMP JUMPDEST SWAP1 POP SWAP2 SWAP1 POP JUMP JUMPDEST PUSH32 0x4964656E7469747920646F6573206E6F74206578697374000000000000000000 PUSH0 DUP3 ADD MSTORE POP JUMP JUMPDEST PUSH0 PUSH2 0x1D59 PUSH1 0x17 DUP4 PUSH2 0x1593 JUMP JUMPDEST SWAP2 POP PUSH2 0x1D64 DUP3 PUSH2 0x1D25 JUMP JUMPDEST PUSH1 0x20 DUP3 ADD SWAP1 POP SWAP2 SWAP1 POP JUMP JUMPDEST PUSH0 PUSH1 0x20 DUP3 ADD SWAP1 POP DUP2 DUP2 SUB PUSH0 DUP4 ADD MSTORE PUSH2 0x1D86 DUP2 PUSH2 0x1D4D JUMP JUMPDEST SWAP1 POP SWAP2 SWAP1 POP JUMP JUMPDEST PUSH32 0x416C7265616479207265766F6B65640000000000000000000000000000000000 PUSH0 DUP3 ADD MSTORE POP JUMP JUMPDEST PUSH0 PUSH2 0x1DC1 PUSH1 0xF DUP4 PUSH2 0x1593 JUMP JUMPDEST SWAP2 POP PUSH2 0x1DCC DUP3 PUSH2 0x1D8D JUMP JUMPDEST PUSH1 0x20 DUP3 ADD SWAP1 POP SWAP2 SWAP1 POP JUMP JUMPDEST PUSH0 PUSH1 0x20 DUP3 ADD SWAP1 POP DUP2 DUP2 SUB PUSH0 DUP4 ADD MSTORE PUSH2 0x1DEE DUP2 PUSH2 0x1DB5 JUMP JUMPDEST SWAP1 POP SWAP2 SWAP1 POP JUMP JUMPDEST PUSH0 PUSH1 0x20 DUP3 ADD SWAP1 POP PUSH2 0x1E08 PUSH0 DUP4 ADD DUP5 PUSH2 0x15F9 JUMP JUMPDEST SWAP3 SWAP2 POP POP JUMP JUMPDEST PUSH32 0x5061757361626C653A2070617573656400000000000000000000000000000000 PUSH0 DUP3 ADD MSTORE POP JUMP JUMPDEST PUSH0 PUSH2 0x1E42 PUSH1 0x10 DUP4 PUSH2 0x1593 JUMP JUMPDEST SWAP2 POP PUSH2 0x1E4D DUP3 PUSH2 0x1E0E JUMP JUMPDEST PUSH1 0x20 DUP3 ADD SWAP1 POP SWAP2 SWAP1 POP JUMP JUMPDEST PUSH0 PUSH1 0x20 DUP3 ADD SWAP1 POP DUP2 DUP2 SUB PUSH0 DUP4 ADD MSTORE PUSH2 0x1E6F DUP2 PUSH2 0x1E36 JUMP JUMPDEST SWAP1 POP SWAP2 SWAP1 POP JUMP JUMPDEST PUSH32 0x5265656E7472616E637947756172643A207265656E7472616E742063616C6C00 PUSH0 DUP3 ADD MSTORE POP JUMP JUMPDEST PUSH0 PUSH2 0x1EAA PUSH1 0x1F DUP4 PUSH2 0x1593 JUMP JUMPDEST SWAP2 POP PUSH2 0x1EB5 DUP3 PUSH2 0x1E76 JUMP JUMPDEST PUSH1 0x20 DUP3 ADD SWAP1 POP SWAP2 SWAP1 POP JUMP JUMPDEST PUSH0 PUSH1 0x20 DUP3 ADD SWAP1 POP DUP2 DUP2 SUB PUSH0 DUP4 ADD MSTORE PUSH2 0x1ED7 DUP2 PUSH2 0x1E9E JUMP JUMPDEST SWAP1 POP SWAP2 SWAP1 POP JUMP JUMPDEST PUSH32 0x4E487B7100000000000000000000000000000000000000000000000000000000 PUSH0 MSTORE PUSH1 0x21 PUSH1 0x4 MSTORE PUSH1 0x24 PUSH0 REVERT JUMPDEST PUSH0 PUSH1 0x20 DUP3 ADD SWAP1 POP PUSH2 0x1F1E PUSH0 DUP4 ADD DUP5 PUSH2 0x157A JUMP JUMPDEST SWAP3 SWAP2 POP POP JUMP JUMPDEST PUSH32 0x5061757361626C653A206E6F7420706175736564000000000000000000000000 PUSH0 DUP3 ADD MSTORE POP JUMP JUMPDEST PUSH0 PUSH2 0x1F58 PUSH1 0x14 DUP4 PUSH2 0x1593 JUMP JUMPDEST SWAP2 POP PUSH2 0x1F63 DUP3 PUSH2 0x1F24 JUMP JUMPDEST PUSH1 0x20 DUP3 ADD SWAP1 POP SWAP2 SWAP1 POP JUMP JUMPDEST PUSH0 PUSH1 0x20 DUP3 ADD SWAP1 POP DUP2 DUP2 SUB PUSH0 DUP4 ADD MSTORE PUSH2 0x1F85 DUP2 PUSH2 0x1F4C JUMP JUMPDEST SWAP1 POP SWAP2 SWAP1 POP JUMP JUMPDEST PUSH0 PUSH1 0xFF DUP3 AND SWAP1 POP SWAP2 SWAP1 POP JUMP JUMPDEST PUSH2 0x1FA1 DUP2 PUSH2 0x1F8C JUMP JUMPDEST DUP3 MSTORE POP POP JUMP JUMPDEST PUSH0 PUSH1 0x80 DUP3 ADD SWAP1 POP PUSH2 0x1FBA PUSH0 DUP4 ADD DUP8 PUSH2 0x157A JUMP JUMPDEST PUSH2 0x1FC7 PUSH1 0x20 DUP4 ADD DUP7 PUSH2 0x1F98 JUMP JUMPDEST PUSH2 0x1FD4 PUSH1 0x40 DUP4 ADD DUP6 PUSH2 0x157A JUMP JUMPDEST PUSH2 0x1FE1 PUSH1 0x60 DUP4 ADD DUP5 PUSH2 0x157A JUMP JUMPDEST SWAP6 SWAP5 POP POP POP POP POP JUMP INVALID LOG2 PUSH5 0x6970667358 0x22 SLT KECCAK256 PUSH5 0x53980DEE69 PUSH18 0x6636CA46F265C92006794819F2DA02418E0F RETURNDATACOPY DUP11 CALLDATALOAD DUP5 CALLCODE MUL SWAP5 PUSH5 0x736F6C6343 STOP ADDMOD 0x1E STOP CALLER "
		},
		"gasEstimates": {
			"creation": {
				"codeDepositCost": "1644800",
				"executionCost": "infinite",
				"totalCost": "infinite"
			},
			"external": {
				"identities(uint256)": "infinite",
				"isValid(uint256)": "infinite",
				"issueIdentity(uint256,bytes32,bytes32,string,string,uint256,bytes)": "infinite",
				"owner()": "2581",
				"pause()": "infinite",
				"paused()": "2568",
				"renounceOwnership()": "infinite",
				"revokeIdentity(uint256)": "infinite",
				"setTrustedTEE(address)": "infinite",
				"transferOwnership(address)": "infinite",
				"trustedTEE()": "2597",
				"unpause()": "infinite",
				"usedAuthorizations(bytes32)": "2807"
			}
		},
		"methodIdentifiers": {
			"identities(uint256)": "eaaf77e6",
			"isValid(uint256)": "f577a500",
			"issueIdentity(uint256,bytes32,bytes32,string,string,uint256,bytes)": "03cc4e1a",
			"owner()": "8da5cb5b",
			"pause()": "8456cb59",
			"paused()": "5c975abb",
			"renounceOwnership()": "715018a6",
			"revokeIdentity(uint256)": "80a9aed0",
			"setTrustedTEE(address)": "7ff2f9f2",
			"transferOwnership(address)": "f2fde38b",
			"trustedTEE()": "7a848115",
			"unpause()": "3f4ba83a",
			"usedAuthorizations(bytes32)": "d5a1780b"
		}
	},
	"abi": [
		{
			"inputs": [
				{
					"internalType": "address",
					"name": "_trustedTEE",
					"type": "address"
				},
				{
					"internalType": "address",
					"name": "_initialOwner",
					"type": "address"
				}
			],
			"stateMutability": "nonpayable",
			"type": "constructor"
		},
		{
			"inputs": [],
			"name": "ECDSAInvalidSignature",
			"type": "error"
		},
		{
			"inputs": [
				{
					"internalType": "uint256",
					"name": "length",
					"type": "uint256"
				}
			],
			"name": "ECDSAInvalidSignatureLength",
			"type": "error"
		},
		{
			"inputs": [
				{
					"internalType": "bytes32",
					"name": "s",
					"type": "bytes32"
				}
			],
			"name": "ECDSAInvalidSignatureS",
			"type": "error"
		},
		{
			"inputs": [
				{
					"internalType": "address",
					"name": "owner",
					"type": "address"
				}
			],
			"name": "OwnableInvalidOwner",
			"type": "error"
		},
		{
			"inputs": [
				{
					"internalType": "address",
					"name": "account",
					"type": "address"
				}
			],
			"name": "OwnableUnauthorizedAccount",
			"type": "error"
		},
		{
			"anonymous": false,
			"inputs": [
				{
					"indexed": true,
					"internalType": "uint256",
					"name": "certId",
					"type": "uint256"
				},
				{
					"indexed": true,
					"internalType": "bytes32",
					"name": "identityCommitment",
					"type": "bytes32"
				},
				{
					"indexed": false,
					"internalType": "uint256",
					"name": "issuedAt",
					"type": "uint256"
				},
				{
					"indexed": false,
					"internalType": "string",
					"name": "mensaje",
					"type": "string"
				}
			],
			"name": "IdentityIssued",
			"type": "event"
		},
		{
			"anonymous": false,
			"inputs": [
				{
					"indexed": true,
					"internalType": "uint256",
					"name": "certId",
					"type": "uint256"
				},
				{
					"indexed": false,
					"internalType": "uint256",
					"name": "revokedAt",
					"type": "uint256"
				}
			],
			"name": "IdentityRevoked",
			"type": "event"
		},
		{
			"anonymous": false,
			"inputs": [
				{
					"indexed": true,
					"internalType": "address",
					"name": "previousOwner",
					"type": "address"
				},
				{
					"indexed": true,
					"internalType": "address",
					"name": "newOwner",
					"type": "address"
				}
			],
			"name": "OwnershipTransferred",
			"type": "event"
		},
		{
			"anonymous": false,
			"inputs": [
				{
					"indexed": false,
					"internalType": "address",
					"name": "account",
					"type": "address"
				}
			],
			"name": "Paused",
			"type": "event"
		},
		{
			"anonymous": false,
			"inputs": [
				{
					"indexed": true,
					"internalType": "address",
					"name": "oldTEE",
					"type": "address"
				},
				{
					"indexed": true,
					"internalType": "address",
					"name": "newTEE",
					"type": "address"
				}
			],
			"name": "TrustedTEEUpdated",
			"type": "event"
		},
		{
			"anonymous": false,
			"inputs": [
				{
					"indexed": false,
					"internalType": "address",
					"name": "account",
					"type": "address"
				}
			],
			"name": "Unpaused",
			"type": "event"
		},
		{
			"inputs": [
				{
					"internalType": "uint256",
					"name": "",
					"type": "uint256"
				}
			],
			"name": "identities",
			"outputs": [
				{
					"internalType": "bytes32",
					"name": "identityCommitment",
					"type": "bytes32"
				},
				{
					"internalType": "bytes32",
					"name": "biometricCommitment",
					"type": "bytes32"
				},
				{
					"internalType": "string",
					"name": "cid",
					"type": "string"
				},
				{
					"internalType": "string",
					"name": "encryptedAESKey",
					"type": "string"
				},
				{
					"internalType": "uint256",
					"name": "issuedAt",
					"type": "uint256"
				},
				{
					"internalType": "bool",
					"name": "revoked",
					"type": "bool"
				}
			],
			"stateMutability": "view",
			"type": "function"
		},
		{
			"inputs": [
				{
					"internalType": "uint256",
					"name": "certId",
					"type": "uint256"
				}
			],
			"name": "isValid",
			"outputs": [
				{
					"internalType": "bool",
					"name": "",
					"type": "bool"
				}
			],
			"stateMutability": "view",
			"type": "function"
		},
		{
			"inputs": [
				{
					"internalType": "uint256",
					"name": "certId",
					"type": "uint256"
				},
				{
					"internalType": "bytes32",
					"name": "identityCommitment",
					"type": "bytes32"
				},
				{
					"internalType": "bytes32",
					"name": "biometricCommitment",
					"type": "bytes32"
				},
				{
					"internalType": "string",
					"name": "cid",
					"type": "string"
				},
				{
					"internalType": "string",
					"name": "encryptedAESKey",
					"type": "string"
				},
				{
					"internalType": "uint256",
					"name": "timestamp",
					"type": "uint256"
				},
				{
					"internalType": "bytes",
					"name": "signature",
					"type": "bytes"
				}
			],
			"name": "issueIdentity",
			"outputs": [],
			"stateMutability": "nonpayable",
			"type": "function"
		},
		{
			"inputs": [],
			"name": "owner",
			"outputs": [
				{
					"internalType": "address",
					"name": "",
					"type": "address"
				}
			],
			"stateMutability": "view",
			"type": "function"
		},
		{
			"inputs": [],
			"name": "pause",
			"outputs": [],
			"stateMutability": "nonpayable",
			"type": "function"
		},
		{
			"inputs": [],
			"name": "paused",
			"outputs": [
				{
					"internalType": "bool",
					"name": "",
					"type": "bool"
				}
			],
			"stateMutability": "view",
			"type": "function"
		},
		{
			"inputs": [],
			"name": "renounceOwnership",
			"outputs": [],
			"stateMutability": "nonpayable",
			"type": "function"
		},
		{
			"inputs": [
				{
					"internalType": "uint256",
					"name": "certId",
					"type": "uint256"
				}
			],
			"name": "revokeIdentity",
			"outputs": [],
			"stateMutability": "nonpayable",
			"type": "function"
		},
		{
			"inputs": [
				{
					"internalType": "address",
					"name": "_newTEE",
					"type": "address"
				}
			],
			"name": "setTrustedTEE",
			"outputs": [],
			"stateMutability": "nonpayable",
			"type": "function"
		},
		{
			"inputs": [
				{
					"internalType": "address",
					"name": "newOwner",
					"type": "address"
				}
			],
			"name": "transferOwnership",
			"outputs": [],
			"stateMutability": "nonpayable",
			"type": "function"
		},
		{
			"inputs": [],
			"name": "trustedTEE",
			"outputs": [
				{
					"internalType": "address",
					"name": "",
					"type": "address"
				}
			],
			"stateMutability": "view",
			"type": "function"
		},
		{
			"inputs": [],
			"name": "unpause",
			"outputs": [],
			"stateMutability": "nonpayable",
			"type": "function"
		},
		{
			"inputs": [
				{
					"internalType": "bytes32",
					"name": "",
					"type": "bytes32"
				}
			],
			"name": "usedAuthorizations",
			"outputs": [
				{
					"internalType": "bool",
					"name": "",
					"type": "bool"
				}
			],
			"stateMutability": "view",
			"type": "function"
		}
	]
}